:020000040802F0
:10000000D0050020A10102086D1902087D18020820
:1000100069190208D90202088D22020800000000B6
:10002000000000000000000000000000711902083C
:10003000DB030208000000006F19020873190208B0
:10004000BB010208BB010208BB010208BB01020898
:10005000BB010208BB010208BB010208BB01020888
:10006000BB010208BB010208BB010208BB01020878
:10007000BB010208BB010208BB010208BB01020868
:10008000BB010208BB010208BB010208BB01020858
:10009000BB010208BB010208BB010208BB01020848
:1000A000BB010208BB010208BB010208BB01020838
:1000B000BB010208BB010208BB010208BB01020828
:1000C000BB010208BB010208BB010208BB01020818
:1000D000BB0102087D220208BB010208BB01020825
:1000E000BB010208BB010208BB010208BB010208F8
:1000F000BB010208BB010208BB010208BB010208E8
:10010000BB010208BB010208BB010208BB010208D7
:10011000BB010208BB010208BB010208611A020808
:10012000BB010208BB010208DD020208BB01020894
:10013000BB010208BB010208BB010208BB010208A7
:10014000BB010208BB010208BB010208BB01020897
:10015000BB010208BB010208ED020208BB01020854
:10016000BB010208BB010208BB010208BB01020877
:10017000BB010208BB010208BB010208000000002D
:10018000BB010208BB010208DFF810D000F092F8B2
:1001900000480047D5240208AFF30080D0050020B6
:1001A0000648804706480047FEE7FEE7FEE7FEE711
:1001B000FEE7FEE7FEE7FEE7FEE7FEE73D1A020880
:1001C000890102082DE9F05F0546002092469B4612
:1001D00088460646814640241BE02846414647465D
:1001E000224600F057F853465A46C01A914110D3A0
:1001F00011461846224600F03EF82D1A67EB01081A
:100200004F4622460120002100F035F817EB000987
:100210004E41201EA4F10104DFDC484631462A4647
:100220004346BDE8F09FD2B201E000F8012B491E21
:10023000FBD270470022F6E710B513460A46044683
:100240001946FFF7F0FF204610BD30B50B460146BA
:1002500000202022012409E021FA02F59D4205D365
:1002600003FA02F5491B04FA02F52844151EA2F10F
:100270000102F1DC30BD202A04DB203A00FA02F151
:10028000002070479140C2F1200320FA03F3194384
:1002900090407047202A04DB203A21FA02F0002126
:1002A000704721FA02F3D040C2F120029140084386
:1002B00019467047064C074D06E0E06840F0010320
:1002C00094E8070098471034AC42F6D3FFF760FF7C
:1002D0006C2502088C25020800BFFEE710B5024815
:1002E00000F0E6F810BD0000C400002010B5024880
:1002F00000F0DEF810BD000024010020014608785F
:1003000010381823B0FBF3F20848805CC865032A54
:1003100005D908686FF30900001D886503E00868C7
:100320006FF309008865886D704700006425020836
:10033000014600208A6A8B69CBB932B1012A0DD0FF
:10034000022A03D0032A10D10EE000BFCB6A03F0CB
:100350008073B3F1807F00D1012007E0CB6AB3F155
:10036000C07F00D1012001E000E000BF34E08B69D4
:10037000B3F5005F1AD132B1012A07D0022A03D0A7
:10038000032A11D10AE000BF01200EE0CB6A03F07E
:100390008073B3F1807F00D1012006E0CB6AB3F116
:1003A000C07F00D1012000E000BF15E032B1012A7A
:1003B00005D0022A04D0032A0CD103E000BF00BFFD
:1003C000012008E0CB6A03F08073B3F1807F00D195
:1003D000012000E000BF00BF7047704770B50446C1
:1003E000A56D00F01FFB064694F83500022808D0E2
:1003F0008020606500BF002084F8340000BF012029
:1004000070BD2068006820F0160021680860206830
:10041000406920F0800021684861206C08B9A06C18
:1004200028B12068006820F0080021680860206872
:10043000006820F001002168086010E000F0F2FA86
:10044000801B05280BD920206065032084F8350027
:1004500000BF002084F8340000BF0320D0E72068EC
:10046000006800F001000028E8D194F85C103F20FB
:100470008840A860012084F8350000BF002084F87F
:10048000340000BF00BFBBE7014691F835000228E9
:1004900003D08020486501207047052081F8350091
:1004A0000868006820F001000A6810600020F3E787
:1004B000F8B50446002000908C4800684FF41651AF
:1004C000B0FBF1F7A56D2E6894F85C100820884009
:1004D000304098B12068006800F0040070B12068D6
:1004E000006820F004002168086094F85C1008207F
:1004F0008840A860606D40F00100606594F85C1071
:1005000001208840304068B12068406900F08000D8
:1005100040B194F85C1001208840A860606D40F004
:100520000200606594F85C1004208840304068B197
:100530002068006800F0020040B194F85C100420CC
:100540008840A860606D40F00400606594F85C101D
:1005500010208840304078B32068006800F0080020
:1005600050B394F85C1010208840A86020680068A0
:1005700000F4802080B12068006800F4002028B9D1
:10058000206CC8B12046216C884715E0A06C98B15A
:100590002046A16C88470FE02068006800F4807056
:1005A00028B92068006820F0080021680860206CE5
:1005B00010B12046216C884794F85C1020208840B8
:1005C0003040002865D02068006800F01000002846
:1005D0005FD094F85C1020208840A86094F8350023
:1005E000052828D12068006820F0160021680860DE
:1005F0002068406920F0800021684861206C08B9BB
:10060000A06C28B12068006820F00800216808600C
:1006100094F85C103F208840A860012084F83500E1
:1006200000BF002084F8340000BF206D10B12046C8
:10063000216D8847F8BD2068006800F4802080B1F3
:100640002068006800F4002028B9606C10B12046D2
:10065000616C88471DE0E06BD8B12046E16B8847AC
:1006600017E02068006800F4807068B920680068AE
:1006700020F0100021680860012084F8350000BFD8
:10068000002084F8340000BFE06B10B12046E16B1D
:100690008847606D38B3606D00F00100F0B105204F
:1006A00084F835002068006820F0010021680860A7
:1006B00000BF0098401C0090B84200D905E02068B7
:1006C000006800F001000028F3D100BF012084F889
:1006D000350000BF002084F8340000BFE06C10B18A
:1006E0002046E16C884700BFA4E70000000000201E
:1006F0002DE9F0410446002500F094F9074614B9AD
:100700000120BDE8F081606A00B100BF022084F8DA
:10071000350000BF002084F8340000BF2068006866
:1007200020F00100216808600AE000F07BF9C01B9E
:10073000052805D920206065032084F83500E0E70E
:100740002068006800F001000028EED120680568EC
:1007500021480540D4E901010843E16808432169C3
:10076000084361690843A1690843E1690843216AB4
:1007700008430543606A042803D1D4E90B01084308
:100780000543206805602068456925F00705606A13
:100790000543606A04280DD1A06A0543E06A48B1A8
:1007A0002046FFF7C5FD28B140206065012084F890
:1007B0003500A6E7206845612046FFF79FFD064605
:1007C00094F85C103F208840B060002060650120F4
:1007D00084F83500002094E73F8010F070B504469F
:1007E00000F020F906462546681C10B10448007840
:1007F000054400BF00F016F9801BA842FAD370BD73
:100800000C000020F8B502460B460025002400200D
:100810000021D6E0012606FA01F51E6806EA050465
:10082000AC4274D11E7906F00306012E04D01E7965
:1008300006F00306022E13D190684F000326BE4037
:10084000B0434F00DE68BE403043906050680126E0
:100850008E40B0431E79C6F300168E403043506080
:100860001E7906F00306032E09D0D0684F00032638
:10087000BE40B0434F009E68BE403043D0601E79FA
:1008800006F00306022E13D1CF0802F1200656F817
:1008900027004E07F70E0F26BE40B0434F07FF0E4E
:1008A0001E69BE403043CF0802F1200646F82700FB
:1008B00010684F000326BE40B0431E7906F00306C1
:1008C0004F00BE40304310605E6806F44036002E94
:1008D00076D000BF002600963C4E366846F480462F
:1008E0003A4F3E603E46366806F48046009600BFAA
:1008F00000BF374E8F0856F827008E07370F0F2698
:10090000BE40B043334EB24202D1002624E057E04D
:10091000314EB24201D101261EE0304EB24201D129
:10092000022619E02E4EB24201D1032614E02D4ECC
:10093000B24201D104260FE02B4EB24201D105266E
:100940000AE02A4EB24201D1062605E0284EB24204
:1009500001D1072600E008268F073F0FBE40304335
:100960001B4E8F0846F82700224E3068A0435E6871
:1009700006F4801606B120431E4E3060361D3068E6
:10098000A0435E6806F4001606B12043194E361DDA
:100990003060184E361F3068A0435E6806F400369B
:1009A00006B12043134E361F3060361F3068A04317
:1009B0005E6806F4803606B120430E4E083E306075
:1009C000491C1029FFF426AFF8BD0000443802404E
:1009D00008380140000002400004024000080240C4
:1009E000000C0240001002400014024000180240B7
:1009F000001C0240083C014010B5426921EA020394
:100A000002EA010443EA0443836110BD0AB1816133
:100A100001E00B048361704701480068000C7047D7
:100A2000002004E001480068704700000400002036
:100A30000348006803490978084401490860704781
:100A4000040000200C00002010B50A48006840F4A3
:100A50000070084908600846006840F4806008603B
:100A6000032000F083F80F2000F006F800F02AF8C9
:100A7000002010BD003C024070B504460E480078CE
:100A80004FF47A71B1FBF0F00C490968B1FBF0F555
:100A9000284600F00DFC08B1012070BD102C07D2D3
:100AA00000222146501E00F022F80548046001E0B3
:100AB0000120F2E70020F0E70C00002000000020F9
:100AC0000800002070470146084600280DDB00BFE3
:100AD00000BF00F01F0301229A4043099B0003F16D
:100AE000E023C3F8002100BF00BF00BF70472DE91D
:100AF000F05F80460D461646002701F0D9FB0746F9
:100B000039462A46334601F00700C0F1070ABAF118
:100B1000040F02D94FF0040A01E0C0F1070AD146E0
:100B200000F1040ABAF1070F02D24FF0000A01E007
:100B3000A0F1030AD4464FF0010A0AFA09FAAAF111
:100B4000010A0AEA020A0AFA0CFA4FF0010B0BFA40
:100B50000CFBABF1010B0BEA030B4AEA0B04214639
:100B6000404601F0ADFBBDE8F09F000000BF00F083
:100B70000702064B19684FF6FF031940044B0B435D
:100B800043EA0221014B196000BF70470CED00E001
:100B90000000FA0570B504460D460CB9012070BD81
:100BA0005848006800F00700A84209D255490D7066
:100BB0000846006800F00700A84201D00120EEE7D7
:100BC000207800F0020002281DD1207800F00400F7
:100BD000042805D14C48006840F4E0504A490860B8
:100BE000207800F00800082805D14748006840F444
:100BF0006040454908604448006820F0F000A16862
:100C0000084341490860207800F00100A8B36068FB
:100C1000012807D13C4808380068C0F34040B8B903
:100C20000120BCE76068022802D06068032807D171
:100C3000354808380068C0F3406048B90120AEE785
:100C4000314808380068C0F3400008B90120A6E721
:100C50002D48006820F00300616808432A490860B5
:100C6000FFF7E0FE064609E0FFF7DCFE801B41F2DD
:100C70008831884202D9032091E707E022480068C2
:100C800000F00C006168B0EB810FEDD11D480068E9
:100C900000F00700A84209D91A490D7008460068FB
:100CA00000F00700A84201D0012078E7207800F08A
:100CB0000400042807D11448006820F4E050E168DB
:100CC000084311490860207800F00800082808D17E
:100CD0000D48006820F46040216940EAC1000A49DB
:100CE000086000F03FF808490968C1F30311074A9A
:100CF000515CC8400649086006480068FFF7BCFE22
:100D000000204CE7003C0240083802404C25020815
:100D10000000002008000020014800687047000023
:100D20000000002000B5FFF7F7FF04490968C1F390
:100D30008221034A515CC84000BD000008380240CF
:100D40005C25020800B5FFF7E7FF04490968C1F315
:100D50004231034A515CC84000BD000008380240DF
:100D60005C2502082DE9F047002400250026A14655
:100D70002548006800F00C0020B1042805D00828A0
:100D80003AD105E0DFF8849039E0DFF8849036E06E
:100D90001D48001F006800F03F041B48001F00684A
:100DA00000F4800078B11A481749091F0968C1F397
:100DB0008811A0FB01700146224600233846FFF748
:100DC00001FA05460EE011480F49091F0968C1F3F1
:100DD0008811A0FB01700146224600233846FFF728
:100DE000F1F905460848001F0068C0F30140401CA7
:100DF0004600B5FBF6F902E0DFF8109000BF00BF37
:100E00004846BDE8F0870000083802400024F4009E
:100E100040787D01F8B504460CB90120F8BD207872
:100E200000F00100002874D0F948006800F00C00C0
:100E300004280DD0F648006800F00C00082813D1F3
:100E4000F348001F006800F48000B0F5800F0BD15C
:100E5000EF4808380068C0F34040002859D0606867
:100E6000002856D10120D9E700BF6068B0F5803F67
:100E700008D1E7480838006840F48030E449083970
:100E800008601EE06068B0F5A02F0DD1E04808387A
:100E9000006840F48020DE49083908600846006890
:100EA00040F4803008600CE0D9480838006820F42D
:100EB0008030D749083908600846006820F480204F
:100EC000086000BF606890B1FFF7ACFD054606E022
:100ED000FFF7A8FD401B642801D903209EE7CC48FA
:100EE00008380068C0F340400028F1D011E0FFF757
:100EF00099FD054606E0FFF795FD401B642801D9E2
:100F000003208BE7C24808380068C0F3404000283F
:100F1000F1D1207800F0020002285FD1BC480068BF
:100F200000F00C0058B1BA48006800F00C00082826
:100F30001CD1B748001F006800F48000B0B9B44865
:100F400008380068C0F3400020B1E068012801D0F3
:100F5000012063E7AE480838006820F0F8002169F6
:100F600040EAC100AA490839086037E0E06800B3E8
:100F70000120A8490860FFF755FD054606E0FFF788
:100F800051FD401B022801D9032047E7A04808383B
:100F90000068C0F340000028F1D09D480838006880
:100FA00020F0F800216940EAC10099490839086039
:100FB00014E0002097490860FFF734FD054606E07D
:100FC000FFF730FD401B022801D9032026E7904897
:100FD00008380068C0F340000028F1D1207800F004
:100FE000080008282CD16069A8B101208A4908604E
:100FF000FFF718FD054606E0FFF714FD401B022829
:1010000001D903200AE782486C300068C0F3400031
:101010000028F1D014E000207F490860FFF702FDAE
:10102000054606E0FFF7FEFC401B022801D903201D
:10103000F4E677486C300068C0F340000028F1D136
:10104000207800F00400042870D100277048383060
:10105000006800F0805090B900BF002000906C48FC
:101060003830006840F080506949383108600846DF
:10107000006800F08050009000BF00BF0127674863
:10108000006800F48070B0B96448006840F4807073
:1010900062490860FFF7C6FC054606E0FFF7C2FCA0
:1010A000401B022801D90320B8E65C48006800F420
:1010B00080700028F2D000BFA068012808D15448F1
:1010C0006830006840F001005149683108601DE057
:1010D000A06805280DD14E486830006840F0040033
:1010E0004B49683108600846006840F0010008601C
:1010F0000CE047486830006820F00100444968313E
:1011000008600846006820F00400086000BFA0687E
:10111000A8B1FFF787FC054609E0FFF783FC401BF9
:1011200041F28831884202D9032077E626E0384828
:1011300068300068C0F340000028EED013E0FFF7ED
:1011400071FC054608E0FFF76DFC401B41F2883159
:10115000884201D9032061E62D4868300068C0F359
:1011600040000028EFD1012F07D12948383000680E
:1011700020F0805026493831086000BFA06900285F
:1011800045D02348006800F00C0008285DD0A06915
:10119000022845D100201F490866FFF743FC054699
:1011A00006E0FFF73FFC401B022801D9032035E68B
:1011B000174808380068C0F340600028F1D1D4E92E
:1011C00007010843616A40EA81110122A06AC2EB6B
:1011D000500041EA00412C20005D41EA00600C49CA
:1011E000091F086001200B490866FFF71BFC054634
:1011F00006E0FFF717FC401B022801D903200DE68B
:10120000034808380068C0F340600028F1D049E086
:101210000838024000004742800E474200700040FC
:10122000002021490866FFF7FDFB054606E0FFF7B1
:10123000F9FB401B022801D90320EFE51B48006899
:10124000C0F340600028F2D12CE0A069012800D151
:10125000E4E51648001D0668A069012820D006F4C0
:101260008001E06981421BD106F03F01206A814282
:1012700016D147F6C0703040616AB0EB811F0FD1C4
:1012800006F440310122A06AC2EB5000B1EB004FDE
:1012900006D106F070612C20005DB1EB006F01D02B
:1012A0000120BBE50020B9E50000474200380240BC
:1012B00070B504462546681EB0F1807F01D3012039
:1012C0000FE0681E4FF0E02148610F214FF0FF3022
:1012D00000F0F6FF00204FF0E02188610720086150
:1012E000002070BD10B504460CB9012010BD94F863
:1012F0003D0028B9002084F83C00204600F025F885
:10130000022084F83D00211D206800F017FC012018
:1013100084F8460000BF84F83E0001213F200155BB
:10132000402001554120015500BF00BF012084F835
:10133000420043200155442001554520015500BF7E
:10134000012084F83D000020D0E77047014691F865
:101350003D00012801D001207047022081F83D00A6
:101360000868C06840F001000B68D8601A4B086834
:1013700098421BD00868B0F1804F17D0174B08680F
:10138000984213D0164B086898420FD0154B086846
:1013900098420BD0144B0868984207D0134B08684A
:1013A000984203D0124B086898420CD108688068B4
:1013B00000F00702062A0CD00868006840F001001F
:1013C0000B68186005E00868006840F001000B68D1
:1013D00018600020C0E70000000001400004004049
:1013E00000080040000C00400004014000400140A3
:1013F00000180040074B02689A420AD1426B022A49
:1014000001D1054B1970054A126852680AB9024B9E
:10141000197070470010014016000020C400002021
:10142000704700002DE9F84F0446206805682068E1
:10143000C668206847694FF00009CA4605F00F09E1
:10144000B9F1000F0AD105F0200038B106F02000F4
:1014500020B1204600F007FDBDE8F88FB9F1000F7C
:101460007CD007F0010018B906F49070002875D000
:1014700005F0010030B106F4807018B1606C40F0E6
:101480000100606405F0040030B107F0010018B1FC
:10149000606C40F00200606405F0020030B107F0BB
:1014A000010018B1606C40F00400606405F00800B1
:1014B00048B106F0200010B907F0010018B1606CC7
:1014C00040F008006064606C002846D005F0200001
:1014D00028B106F0200010B1204600F0C4FC2068BE
:1014E0004069C0F3801A606C00F0080010B9BAF1CE
:1014F000000F2DD0204600F070FC2068406900F0FD
:101500004000402820D100BF00BF2168143151E8BD
:10151000001F21F040002168143141E80002002A38
:10152000F3D100BFE06B50B17F48E16B0865E06B21
:10153000FEF7AAFF88B1E06B016D88470DE02046F9
:10154000FFF76EFF09E009E02046FFF769FF04E0BE
:101550002046FFF765FF002060647DE7206B0128CF
:1015600078D105F01000002874D006F01000002893
:10157000FAD000BF0020009020680068009020682A
:101580004068009000BF00BF2068406900F0400044
:10159000402870D1E06B006840681FFA80F8B8F10D
:1015A000000F58D0A08D404555DDA4F82E80E06B8B
:1015B000C069B0F5807F43D000BF00BF21680C3107
:1015C00051E8001F21F4807021680C3141E80002CD
:1015D000002AF3D100BF00BF00BF2168143151E8D9
:1015E000001F21F001002168143141E80002002AA7
:1015F000F3D100BF00BF00BF2168143151E8001FC4
:1016000021F040002168143141E80002002AF3D1A2
:1016100000BF202084F842000020206300BF00BFEC
:1016200021680C3151E8001F21F0100021680C31B5
:1016300041E80002002AF3D100BFE06BFEF7CEFEC6
:1016400002206063A08DE28D801A81B22046FFF7F0
:10165000D1FE0EE052E0A08D40450AD1E06BC0699A
:10166000B0F5807F05D102206063A18D2046FFF791
:10167000C1FEF1E6FFE7A08DE18D401A1FFA80F868
:10168000E08DD0B3B8F1000F37D000BF00BF2168A4
:101690000C3151E8001F21F4907021680C3141E8B1
:1016A0000002002AF3D100BF00BF00BF216814313F
:1016B00051E8001F21F001002168143141E80002C7
:1016C000002AF3D100BF202084F8420000202063CC
:1016D00000BF00BF21680C3151E8001F21F010004D
:1016E00021680C3141E80002002AF3D100BF02203A
:1016F000606341462046FFF77DFEADE605F08000C1
:1017000030B106F0800018B1204600F041FDA3E69C
:1017100005F0400030B106F0400018B1204600F05E
:1017200092FB99E600BF97E6C91D020810B5044672
:101730000CB9012010BDA06900B100E000BF94F811
:10174000410028B9002084F84000204600F029F824
:10175000242084F841002068C06820F400502168EB
:10176000C860204600F0FEFB2068006920F490402D
:10177000216808612068406920F02A0021684861DA
:101780002068C06840F400502168C8600020606490
:10179000202084F8410084F842000020606300BFEC
:1017A000C8E7704770472DE9F84F04460E461746C4
:1017B00099464FF0000A94F84100202850D106B114
:1017C00017B90120BDE8F88F00206064212084F85B
:1017D0004100FFF727F98246A784E784A068B0F5A7
:1017E000805F04D1206910B90025B04602E035467B
:1017F0004FF000081EE05346002280212046CDF81D
:10180000009000F0F5FC20B1202084F84100032076
:10181000D8E745B9B8F80000C0F30800216848606F
:1018200008F1020803E02878216848606D1CE08C0C
:10183000401EE084E08C0028DDD153460022402188
:101840002046CDF8009000F0D3FC20B1202084F891
:1018500041000320B6E7202084F841000020B1E7D2
:101860000220AFE7034A0168914202D10121024AF6
:1018700011707047001001401400002000BFFEE707
:1018800000B587B000BF002001901B48006840F001
:101890002000194908600846006800F02000019007
:1018A00000BF00BF4020029001200390049003205D
:1018B000059002A91148FEF7A5FF8020029002A919
:1018C0000E48FEF79FFF4FF48070029002A90B486C
:1018D000FEF798FF012240210848FFF797F8012200
:1018E00080210648FFF792F8012211020348FFF712
:1018F0008DF807B000BD00003038024000140240EF
:1019000008B500BF002000901448006840F4800033
:10191000124908600846006800F48000009000BF8B
:1019200000BF0F480F4908600020486080210D4823
:1019300081608900C16049000161002141618161CC
:10194000C1614FF4003101620421416203218162CF
:101950000021C1620163FEF7CBFE08BD30380240B2
:10196000106402401C00002000BFFEE77047704773
:10197000704710B5FFF75CF810BD000000B593B0DC
:1019800000BF002001902A48006840F0805028499C
:1019900008600846006800F08050019000BF00BF5A
:1019A00000BF002001902348006840F48040214996
:1019B00008600846006800F48040019000BF00BF46
:1019C0000120029000040390022008904105099133
:1019D00019210A914FF4A8710B9102210C91072152
:1019E0000D9102A8FFF716FA08B100BFFEE70F201D
:1019F0000E9002200F90002010904FF4A0501190F4
:101A00004FF48050129005210EA8FFF7C3F808B1DB
:101A100000BFFEE7FFF700F841F20101884205D15F
:101A20000548006840F480700349086013B000BDA9
:101A30004038024000700040003C0240034800680B
:101A400040F47000014908607047000088ED00E034
:101A500010B5044600F068F8204600F031F810BDDB
:101A600010B50D480068006900F0010098B16FF0F2
:101A7000010009490968086108480068401C0749D5
:101A800008600846006800EB8000420008460168D4
:101A900003A000F0FDFB10BD7C0000201000002022
:101AA0005B54494D375D207469636B3D25752C206F
:101AB000757074696D653D257520730D0A00000011
:101AC00038B5044600BF002000901448006840F07C
:101AD0002000124908600846006800F020000090CD
:101AE00000BF00BF0E480F4908604AF20F4048602F
:101AF00000210C4881600120C0EB44010948C1600D
:101B000000210161FFF7EEFB6FF001000549096854
:101B100008610448FFF71AFC38BD00004038024055
:101B2000001400407C00002010B500220221372064
:101B3000FEF7DDFF3720FEF7C6FF10BD10B50268C7
:101B40002B4B98420ED0B0F1804F0BD0294B9842CE
:101B500008D0294B984205D0284B984202D0284BF8
:101B6000984203D122F070024B681A43204B9842EE
:101B700020D0B0F1804F1DD01E4B98421AD01E4B82
:101B8000984217D01D4B984214D01D4B984211D04B
:101B90001C4B98420ED01C4B98420BD01B4B9842CA
:101BA00008D01B4B984205D01A4B984202D01A4BD2
:101BB000984203D122F44072CB681A4322F080038A
:101BC0004C6943EA04028B68C3620B688362084B6A
:101BD000984202D00A4B984201D10B690363036813
:101BE00043F00403036001234361026010BD000061
:101BF000000001400004004000080040000C0040CC
:101C00000004014000400140004401400048014000
:101C100000180040001C00400020004008B500BF34
:101C2000002000901C48006840F010001A4908602D
:101C30000846006800F01000009000BF00BF174881
:101C4000174908604FF4E130486000211448816072
:101C5000C160016181610C214161FFF767FD00F006
:101C60007FF800F01FF8002201212520FEF73FFF3A
:101C70002520FEF728FF002201214620FEF737FF2E
:101C80004620FEF720FF002201213A20FEF72FFF19
:101C90003A20FEF718FF08BD44380240001001400A
:101CA0008401002008B500BF00200090274800688C
:101CB00040F48000254908600846006800F4800070
:101CC000009000BF00BF2248224908604FF000602A
:101CD000486000211F488160C1604FF4806101614C
:101CE000002141618161C1614FF400310162002135
:101CF0004162FEF7FDFC00BF16481749C86308465D
:101D00001449886300BF12487830144908604FF0C6
:101D1000006048604021114881600021C1604FF49B
:101D200080610161002141618161C1614FF4003135
:101D3000016200214162FEF7DBFC00BF0748064953
:101D4000886308460549886300BF08BD30380240F3
:101D500040640240C40000208401002024010020CF
:101D600000B587B0142102A8FEF764FA00BF002076
:101D700001901348006840F00100114908600846CE
:101D8000006800F00100019000BF00BF48150290FC
:101D90000220039001200490032005900720069064
:101DA00002A90848FEF72EFD4FF48060029007203C
:101DB000069002A90348FEF725FD07B000BD00000C
:101DC000303802400000024070B50446A56B002088
:101DD000E8852846FFF724FB70BD00BF00BF0268FE
:101DE0000C3252E8002F22F4907102680C3242E863
:101DF0000013002BF3D100BF00BF00BF02681432F4
:101E000052E8002F22F001010268143242E8001368
:101E1000002BF3D100BF016B01290ED100BF00BF21
:101E200002680C3252E8002F22F0100102680C32D6
:101E300042E80013002BF3D100BF202180F84210AC
:101E400000210163704710B504462068C06820F087
:101E500040002168C860202084F841002046FFF738
:101E600001FD002010BDF8B504460025002694F8B9
:101E70004200222873D1A068B0F5805F0BD12069A1
:101E800048B9A66A20684068C0F308003080A06A9C
:101E9000801CA06214E0A56AA068B0F5805F03D042
:101EA000A06828B9206918B920684068287004E043
:101EB0002068406800F07F002870A06A401CA06283
:101EC000E08D401E80B2E085002846D12068C068C1
:101ED00020F020002168C8602068C06820F480706D
:101EE0002168C8602068406920F0010021684861CD
:101EF000202084F8420000206063206B012826D156
:101F00000020206300BF00BF21680C3151E8001F92
:101F100021F0100021680C3141E80002002AF3D1C1
:101F200000BF2068006800F0100010280AD100BF30
:101F300000200090206800680090206840680090B1
:101F400000BF00BFA18D2046FFF754FA02E02046F3
:101F5000FFF728FC0020F8BD01E00020FBE702208D
:101F6000F9E700002DE9F84F04462068006920F4E5
:101F70004050E1680843216808612169A06808436E
:101F800061690843E169084300902068C06849F22C
:101F90000C618843009908432168C8602068406943
:101FA00020F44070A169084321684861764920689F
:101FB000884203D075492068884203D1FEF7C2FEEB
:101FC000814602E0FEF7AEFE8146E069B0F5004FC3
:101FD0006CD102206168A0FB015003461920A9FBC7
:101FE000007001462A463846FEF7ECF86421B0FB43
:101FF000F1F04FEA001A02206168A0FB01510B4684
:102000001920A9FB00712A463846FEF7DBF8834603
:1020100002206168A0FB015003461920A9FB007152
:102020002A463846FEF7CEF86421B0FBF1F000EB0B
:10203000C00101EB0010ABEB8000322101EBC000CE
:102040006421B0FBF1F000F0F8000AEB400A022036
:102050006168A0FB015003461920A9FB00700146EE
:102060002A463846FEF7AEF8834602206168A0FB98
:10207000015003461920A9FB00712A463846FEF795
:10208000A1F86421B0FBF1F000EBC00101EB0010FE
:10209000ABEB8000322101EBC0006421B0FBF1F01A
:1020A00000F007005044216888606AE004206168FD
:1020B000A0FB015003461920A9FB007001462A46E7
:1020C0003846FEF77FF8824604206168A0FB015085
:1020D00003461920A9FB007001462A463846FEF740
:1020E00071F86421B0FBF1F000EBC00101EB0010CE
:1020F000AAEB8000322101EB00106421B0FBF1F06B
:1021000000F0F00A04206168A0FB0170034619206A
:10211000A9FB00513A462846FEF754F86421B0FB6B
:10212000F1F00AEB001A04206168A0FB01510B4694
:102130001920A9FB00712A463846FEF743F883466A
:1021400004206168A0FB015003461920A9FB007020
:1021500001462A463846FEF735F86421B0FBF1F017
:1021600000EBC00101EB0010ABEB8000322101EB72
:1021700000106421B0FBF1F000F00F005044216822
:102180008860BDE8F88F0000001001400014014095
:10219000014691F84100212828D18868B0F5805F78
:1021A0000BD1086948B90A6A1088C0F308000B68A7
:1021B0005860086A801C086205E00B6A581C0862B7
:1021C00018780B685860C88C401E80B2C88458B913
:1021D0000868C06820F080000B68D8600868C06894
:1021E00040F040000B68D860002070470220FCE7F8
:1021F0002DE9F84304460D4617469846089E31E0FF
:10220000701C70B3FEF70EFCA0EB0800B04200D8C3
:1022100016B90320BDE8F8832068C06800F0040008
:10222000F8B1802D1ED0402D1CD020680068C0F36E
:10223000C000B0B100BF002000902068006800908E
:1022400020684068009000BF00BF2046FFF7C5FD32
:102250000820606400BF002084F8400000BF012017
:10226000D8E7FFE7206800682840A84201D1012094
:1022700000E00020B842C3D00020CBE710B50248F0
:10228000FFF7D0F810BD00008401002000BFFEE77A
:102290000FB4054B10B503A9044A029800F034F8B6
:1022A00010BC5DF814FB0000B924020818000020DF
:1022B00002480068C0F30220704700000CED00E007
:1022C00010B5002804DB0A07130E054A135406E074
:1022D0000A07140E034A00F00F031B1FD45410BD4D
:1022E00000E400E018ED00E002E008C8121F08C199
:1022F000002AFAD170477047002001E001C1121F87
:10230000002AFBD1704700002DE9FF4F89B09B46A2
:102310000446002506E025280BD05A460B99904725
:10232000641C6D1C20780028F5D10DB02846BDE84E
:10233000F08F0027B8460122474900E0074314F810
:10234000013F203B02FA03F00842F7D120782E2803
:1023500019D114F8010F47F004072A280ED06FF0A6
:102360002F022078A0F1300109290CD808EB880150
:1023700002EB410100EB0108641CF2E70A98641CBF
:1023800050F8048B0A9020780028CED0642808D01A
:10239000692806D075281ED05A460B9990476D1CA7
:1023A00058E00A994FF00A0901C90A91002802DA97
:1023B00040422D2102E0390504D52B218DF8201053
:1023C000012103E0F90704D02021F7E78A4608AE8F
:1023D0000DE00021FAE70A994FF00A0901C90A91B4
:1023E000F7E74946FDF731FF303106F8011D0028B7
:1023F000F7D1ADEB060000F12009780701D44FF0CA
:102400000108C84502DDA8EB090000E00020804675
:10241000002706E008A85A46C05D0B9990476D1C3E
:102420007F1C5745F6DB04E030205A460B99904755
:102430006D1CB8F10001A8F10108F5DC05E016F803
:10244000010B5A460B9990476D1CB9F10001A9F197
:102450000109F4DC641C65E70928010010B50AA035
:10246000FFF716FFFEF7F0FAFFF788FAFFF708FA12
:10247000FFF7D4FBFFF744FA42F21070FFF7E8FAD7
:1024800007A0FFF705FF10BD6170705F636F6E6698
:1024900069675F696E69742073746172740D0A00F4
:1024A0006170705F636F6E6669675F696E697420E3
:1024B000656E640D0A00000013B50C464FF47A7384
:1024C000012269460248FFF76EF900981CBD000022
:1024D00084010020154816490860FEF7B5FAFFF799
:1024E000BDFF14A0FFF7D4FE1EE015A0FFF7D0FE3D
:1024F00040211548FEF780FA4FF4FA70FEF76EF9A6
:10250000012240211048FEF781FA012280210E4865
:10251000FEF77CFA00224FF480710B48FEF776FA42
:102520004FF4FA70FEF75AF9DFE7000000000208E6
:1025300008ED00E031323334204150500D0A0000E4
:102540003332310D0A000000001402400000000088
:102550000000000001020304060708090000000053
:102560000102030400061016000610168C2502084E
:10257000000000201C000000E8220208A825020834
:102580001C000020B4050000F82202080024F4001A
:10259000000000001000000001000000000000002A
:0825A000000000000000000033
:040000050802018963
:00000001FF
