:020000040802F0
:10000000C8E8012059020208FD4C02087D020208DE
:10001000274C020895180208A954020800000000A5
:10002000000000000000000000000000A101020824
:100030006524020800000000F5010208054F0208CF
:1000400073020208730202087302020873020208B4
:1000500073020208730202080127020873020208F1
:100060007302020873020208730202087302020894
:100070007302020873020208730202087302020884
:100080007302020873020208730202087302020874
:100090007302020873020208730202087302020864
:1000A0007302020873020208730202087302020854
:1000B0007302020873020208730202087302020844
:1000C0007302020873020208730202087302020834
:1000D00073020208915402087302020873020208B4
:1000E0007302020873020208730202087302020814
:1000F0007302020873020208730202087302020804
:1001000073020208730202087302020873020208F3
:1001100073020208730202087302020873020208E3
:1001200073020208730202087302020873020208D3
:1001300073020208DD240208730202087302020837
:1001400073020208730202087302020873020208B3
:1001500073020208730202087302020873020208A3
:100160007302020873020208730202087302020893
:100170007302020873020208730202080000000002
:100180007302020873020208DFF810D001F05CF875
:10019000004800471DDE0208AFF30080C8E80120D8
:1001A0002A4B19680868B0E8F04F80F30988BFF35C
:1001B0006F8F4FF0000080F311887047000000003F
:1001C00006480068006880F3088862B661B6BFF32D
:1001D0004F8FBFF36F8F00DF00BF00BF08ED00E05F
:1001E000DFF80C00016841F470010160704700BF46
:1001F00088ED00E0EFF30980BFF36F8F134B1A68AF
:100200001EF0100F08BF20ED108A20E9F04F10609B
:1002100008B44FF0500080F31188BFF34F8FBFF345
:100220006F8F17F087FD4FF0000080F3118808BC36
:1002300019680868B0E8F04F1EF0100F08BFB0EC66
:10024000108A80F30988BFF36F8F70475800002031
:10025000EFF30580704700000648804706480047D6
:10026000FEE7FEE7FEE7FEE7FEE7FEE7FEE7FEE766
:10027000FEE7FEE7ED4F0208890102087046694675
:1002800006F062FEFFF7FEFF2DE9F05F0546002055
:1002900092469B4688460646814640241BE02846F7
:1002A00041464746224600F020F853465A46C01AB7
:1002B000914110D311461846224600F0FDF92D1A3F
:1002C00067EB01084F4622460120002100F0F4F9B7
:1002D00017EB00094E41201EA4F10104DFDC484663
:1002E00031462A464346BDE8F09F202A04DB203AE7
:1002F00021FA02F00021704721FA02F3D040C2F146
:10030000200291400843194670470000004870479A
:10031000388F030810B50446FFF7F8FF0068005D4A
:1003200000F0010010BDA0F14101192900D82030D2
:10033000704700000649074A0868504343F23902F3
:100340001044086040087047014908607047000089
:10035000100200206D4EC64110B5441A0346944267
:1003600009D28418114403E011F8013D04F8013D5D
:10037000521EF9D210BD40EA0104A40703D009E0DF
:1003800010C9121F10C3042AFAD203E011F8014B5E
:1003900003F8014B521EF9D210BDD2B201E000F8B1
:1003A000012B491EFBD270470022F6E710B5134619
:1003B0000A4604461946FFF7F0FF204610BD10B567
:1003C000044604E00B7800F8013B03B1491C521EBF
:1003D000F8D2204610BDCAB2401E10F8011F8A4252
:1003E00002D00029F9D100207047421C10F8011BEF
:1003F0000029FBD1801A704710B5002200E0521C82
:10040000835C8C5CA34201D1002BF8D1D8B2E1B25D
:10041000401A10BD30B504460020034600E05B1CC6
:10042000934203D2E05CCD5C401BF8D030BD034664
:1004300011F8012B00F8012B002AF9D1184670475A
:1004400030B505460020034600E05B1C934205D210
:10045000EC5CC85C201A01D1002CF6D130BD000044
:100460000FB400B58DB010A909900B9000914FF01A
:10047000FF300A9000200C90054806900548079030
:100480006A4609A80F9900F09DFC0DB05DF814FBB9
:10049000E10D0208FF0D02082DE9F04D81EA030489
:1004A00004F0004B21F0004514464FF0000A23F001
:1004B000004150EA050220D054EA01021DD0C5F3E4
:1004C0000A570246C5F31303C1F31300C1F30A56DA
:1004D00040F4801543F48013A7EB0608101BD646A2
:1004E00008F2FD3873EB050002D308F1010801E0C2
:1004F00092185B41B8F1000F03DA00200146BDE815
:10050000F08D00204FF48011064684460EE0171B44
:1005100073EB050705D3121B63EB050306434CEA97
:10052000010C49084FEA300092185B4150EA01077C
:10053000EDD152EA030012D082EA040083EA0501F9
:10054000084305D0101BAB4106D20122002306E070
:1005500000224FF0004302E06FF0010253101AEB4B
:1005600006004CEB085110EB0A0041EB0B01BDE813
:10057000F04D00F0DABC0EB540F23341029100219B
:10058000CDE900110A460B4600F0DEFC03B000BDC9
:1005900070B5C1F30A5201F000450024C1F3130104
:1005A00040F2FF3341F480119A4201DA002070BD1D
:1005B00040F233439A42A2F2334203DC5242FFF745
:1005C00094FE00E090402C43F1D0404270BD00F01A
:1005D000004230F000400AD0C10D01F56071C0F357
:1005E000160042EA0151C20840071143704700203B
:1005F0000146704730B5041E71F1000404DB4FF072
:100600000044404264EB0101141E73F1000405DB59
:100610001C464FF00043524263EB04038B4208BF79
:10062000824230BD30B5041E71F1000404DB4FF08E
:100630000044404264EB0101141E73F1000405DB29
:100640001C464FF00043524263EB0403994208BF3B
:10065000904230BD01F0004330B421F0004150EA37
:10066000010206D00A0DA2F56072C1F31301002A3F
:1006700002DC30BC00207047440F44EAC104C100D2
:10068000E01830BC00EBC25000F018BC30B50B468F
:10069000014600202022012409E021FA02F59D42B2
:1006A00005D303FA02F5491B04FA02F52844151E86
:1006B000A2F10102F1DC30BD202A04DB203A00FA6D
:1006C00002F1002070479140C2F1200320FA03F3A9
:1006D0001943904070472DE9FF4F1C4681B000211F
:1006E000D4E9016791464FF0FF358A468846A169F3
:1006F0006D1C02988847216A834688470028F6D1F6
:10070000BBF1FF3F0CD026F4C066002F1ADD700647
:1007100015D5BBF12B0F0AD0BBF12D0F0FD104E083
:100720004FF0FF3005B0BDE8F08F46F48066A16958
:100730006D1C029888477F1E8346002F02DDBBF1A7
:10074000300F03D0B9F1000F2AD025E0A1696D1C4C
:1007500046F400767F1E029888478346002F05DD09
:10076000BBF1780F06D0BBF1580F03D0B9F1000FE1
:1007700010D011E0B9F1000F02D0B9F1100F0BD178
:10078000A1696D1C26F400767F1E02988847834677
:10079000102000E0082081464FEAE970009017E041
:1007A0000A20F8E74346AAFB092803FB0980DDF885
:1007B00000C07F1E0AFB0C0112EB0B0A41EBEB7829
:1007C000A16946F4007605F1010502988847834641
:1007D000002F06DD4946584600F05AFD5FEA000B3F
:1007E000E0D5E16902988847B00502D46FF00100B6
:1007F00098E7F00718D1700610D57005514605D559
:100800000023D1EB030163EB080200E042462068BD
:10081000031D23600068C0E9001205E02068011D87
:1008200021600068C0E900A828467BE72DE9FF5F4A
:100830001D464FF0FF3BD5E9014691465F464FF01C
:100840000008A9697F1C01988847296A8246884761
:100850000028F6D1BAF1FF3F0CD024F4C064002E7A
:1008600019DD600614D5BAF12B0F09D0BAF12D0F9E
:100870000ED103E0584604B0BDE8F09F44F4806414
:10088000A9697F1C01988847761E8246002E02DDEA
:10089000BAF1300F03D0B9F1000F26D032E0A969C8
:1008A000761E44F400747F1C019888478246002E0F
:1008B00005DDBAF1780F06D0BAF1580F03D0B9F1BF
:1008C000000F10D01EE0B9F1000F02D0B9F1100FE7
:1008D00018D1A969761E24F400747F1C01988847FA
:1008E0008246102002E0082000E00A20814609E04C
:1008F00008FB0908A969761E44F400747F1C01985E
:1009000088478246002E05DD4946504600F0C0FC6F
:100910000028EDDAE96901988847A00502D46FF054
:100920000100A8E7E00725D1600613D5600502D5D0
:10093000C8F1000000E0404629680A1D2A600968E5
:10094000220501D5087015E0220701D5088011E0C5
:1009500008600FE02868011D29600068210502D5A4
:1009600080F8008006E0210702D5A0F8008001E0B1
:10097000C0F8008038467EE72DE9FF5FD2E901A785
:100980004FF00008916999461446DDF838B04646A4
:1009900001988847054659EA0B0005D009E0A1698E
:1009A000761C019888470546216A28468847002812
:1009B000F5D1681C03D05FEACA7005D015E04FF08E
:1009C000FF3004B0BDE8F09F2068011D2160D0F821
:1009D00000800AE05FEACA7001D108F8015BA169F2
:1009E000761C7F1E019888470546002F1ADD681C7B
:1009F00018D0B9F1000F0DD0E81705EBD060421107
:100A000020F01F0059F822102A1A012090400142BC
:100A1000E0D107E0BBF1000FDCD1216A284688470E
:100A20000028D7D0E16901988847BBF1000F07D1B2
:100A3000002E05DD5FEACA7002D1002188F800109F
:100A4000A068B84203DDBBF1000F03D017B16FF00F
:100A50000100B6E73046B4E72DE9FF4F087883B0D0
:100A60009946FF2805D0491C2D2804D000240020D9
:100A700008E000200BE00124F9E700EB800003EB25
:100A80004000491C0B78FF2BF7D104B140420023F2
:100A90000293147819461D462D2C01D02B2C04D11D
:100AA000521C2D2C13D000240294AA461478FF2C3B
:100AB0000FD00A25A3FB057801FB05814FF0000C40
:100AC00003FB0C11521CE3194AEB0101EEE7012470
:100AD000EAE7814453EA010002D019F5C87F06DA3B
:100AE00003980021C0E9001107B0BDE8F08F002590
:100AF000AE4E2F46DFF8B882184600F06FFDCDE904
:100B00000001B9F1000002DAC9F1000400E0044676
:100B10000023A74A1AEB030B42EB045A12E0E0074A
:100B200007D02A4633463846414600F002FB0746C6
:100B300088462A4633461046194600F0FAFA05461A
:100B40000E466410002CEAD1DDE90001B9F1000F76
:100B50005A46534606DAFFF79FFC3A464346FFF7EC
:100B60009BFC05E000F0E5FA3A46434600F0E1FA66
:100B7000029A0AB181F00041039AC2E90001B3E789
:100B80002DE9FF4F1F468DB0D7E901464FF0FF38E2
:100B90002E2045464FF000090B90B9696D1C0E9848
:100BA0008847396A824688470028F6D1BAF1FF3F64
:100BB0000AD024F4D064002E11DDBAF12B0F08D036
:100BC000BAF12D0F0BD102E0404611B08DE744F48D
:100BD0008064B9696D1C0E9888478246761E694606
:100BE000600501D52D2000E02B208DF8000001F1DB
:100BF000010B0DF1200809E0B9696D1C0E988847BA
:100C000082460F9844F40074761E0560002E02DDC3
:100C1000BAF1300FF0D00B998A453ED144F08004F0
:100C200006E00F99681CA9F1010944F400740860FA
:100C3000B9696D1C761E0E98884782463028F0D020
:100C40002BE00B998A4505D1200603D444F080049B
:100C5000761E18E0504604F037FF08B30DF113017B
:100C6000761E44F400748B4508D2AAF130000BF8CC
:100C7000010B200607D5A9F1010003E0200602D4EC
:100C800009F101008146A00502D50F99681C086092
:100C9000B9696D1C0E9888478246002ED1DC53E05E
:100CA000002E51DDBAF1650F02D0BAF1450F4BD1DC
:100CB000A00549D5B9696D1C24F44074761E0E98C0
:100CC00088478246002E0CDD2B2804D0BAF12D0F68
:100CD00007D144F48074B9696D1C0E988847824628
:100CE000761EE00501D52D2100E02B2108F8011B1F
:100CF000CDF82C8021E00DF12901761E44F400741A
:100D000088450CD2AAF1300010F0FF0088F80000EE
:100D100002D10B99884509D908F1010806E0E005E0
:100D200001D5244801E042F20F708146B9696D1C7B
:100D30000E98884782460F980560002E04DD5046C5
:100D400004F0C2FE0028D6D1F9690E988847FF202A
:100D50008BF8000088F800000020069007904B46B2
:100D60006A4608A906A8FFF777FEA00502D46FF02F
:100D700001002AE714F0240F0AD0E00714D1DDE9BE
:100D800006123868031D3B600068C0E900120BE0E2
:100D9000DDE90601FFF75EFC0146E00704D1386893
:100DA000021D3A600068016028460EE7000014400A
:100DB0000000F03FF1D8FFFF026811441378016092
:100DC00018467047D16004495161044911620021FD
:100DD0001161114600F06ABAB90D02081503020844
:100DE000426842B1016811F8013B23B1521EC0E9CB
:100DF0000012184670470121C160881E7047426882
:100E00005AB1C368016843B983688B4205D0491E53
:100E1000521CC0E90012002070474FF0FF307047AD
:100E20000FB4002300B589B00CA900910B996FF0A5
:100E30000042CB601E4B06931E4B07930423CDE963
:100E400001321D4A089202466B460020FFF798FEC9
:100E500009B05DF814FB70B586B006464FF0FF3060
:100E60000091CDE90101002015460C460490324660
:100E7000694604A8FFF7D4FF02460498211825B15B
:100E800008B1084600E020462860049800280DD0EC
:100E9000002A02DD0098884208D0081B0094CDE9A2
:100EA00001043246694604A8FFF7BAFF06B070BDD8
:100EB000E10D0208FF0D0208150302080029A8BF72
:100EC0007047401C490008BF20F00100704710B473
:100ED000B0FA80FC00FA0CF050EA010404BF10BC28
:100EE000704749B1CCF1200421FA04F411FA0CF155
:100EF00018BF012121430843A3EB0C01CB1D4FEA8E
:100F000000614FEA102042BF002010BC704700EB88
:100F1000C35010440029A4BF10BC7047401C4900B6
:100F200008BF20F0010010BC704710B5141E73F10B
:100F3000000408DA401C41F1000192185B411A4399
:100F400001D120F0010010BD2DE9F04D92469B46E5
:100F500011B1B1FA81F202E0B0FA80F2203290468B
:100F6000FFF7AAFB04460F4640EA0A0041EA0B01DC
:100F700053465A46084313D0114653EA010019D08C
:100F8000C8F140025046FFF7B0F905460E465046FC
:100F900059464246FFF790FB084305D0012004E084
:100FA00020463946BDE8F08D0020054346EAE0764C
:100FB0002C4337430A986305E40AA0EB080000229B
:100FC000FD0A44EA47540A3002D500200146E9E709
:100FD000010510196941DDE9084500196941BDE8BD
:100FE000F04DA2E72DE9FE4F804681EA0300C00FD5
:100FF0000C46009021F0004123F00045B8EB0200C0
:10100000A94105D24046214690461C460B46024661
:1010100023F00040104347D0270DC7F30A00C3F365
:101020000A510290401A019040286BDAC3F3130072
:1010300040F4801B0098924620B10023D2EB030AB3
:1010400063EB0B0B01985946C0F140025046FFF785
:1010500033FB06460D4650465946019A00F006F904
:1010600010EB08006141002487EA115284EAE7731B
:101070001A4340D0009A62B3019A012A4FEA0752FC
:1010800015DC001B61EB02014FF0004202EA07523F
:10109000CDE90042001C41F5801132462B46FFF796
:1010A00053FF03B0BDE8F08F40462146F9E7001B2F
:1010B00061EB0201001C41F5801300185B41201810
:1010C000A2F5001747EB030140EAD570B6196D4150
:1010D00011E06D084FEA360645EAC0754FEA07523F
:1010E000001B61EB0201001C41F5801149084FEA29
:1010F00030000019514132462B4603B0BDE8F04F95
:10110000FFF713BF0098012240000023D0EB02023A
:1011100063EBE073009821464FEAE074B8EB0000FF
:1011200061EB0401E9E783F000435BE781F00041F4
:1011300058E72DE9FE4F81EA030404F0004421F052
:10114000004100944FF0000B23F0004350EA0104EB
:101150005ED052EA03045BD0C3F30A54C1F30A55CC
:101160002C44A4F2F3340194A0FB0254C1F3130104
:1011700041F48011C3F3130343F4801301FB0244D1
:1011800000FB034E840A970A44EA815447EA8357D6
:10119000A4FB076802958D0A05FB07854FEA932C8F
:1011A00004FB0C542705029D4FEA065847EA163700
:1011B000B5EB08056EEB070C870E920E47EA811718
:1011C00042EA8312A7FB0201B6EB0B0164EB0004B9
:1011D0002B0D43EA0C335E1844EB1C50DA465146A3
:1011E000E7FB0201C5F313044FEA0B3343EA145340
:1011F0004FEA0432019C43EA0603A4F10C04029472
:10120000009CCDE900B4FFF79FFE03B0BDE8F08F6E
:1012100000200146F9E7C1F30A52C1F3130140F27D
:10122000FF3341F480119A4202DA002001467047F0
:1012300040F233439A42A2F2334202DC5242FFF7B9
:1012400054B8FFF739BA0000064C074D06E0E068D5
:1012500040F0010394E8070098471034AC42F6D3FD
:10126000FEF796FFE4990308049A0308202A06DB98
:10127000CB17203A41FA02F043EAE07306E041FA64
:1012800002F3D040C2F12002914008431946704752
:101290003A2800D2303820F02002412A01D3A2F1AE
:1012A0003700884201D34FF0FF3070472DE9F34FEC
:1012B0008BB04FF0000801F10C000C464FF0010B11
:1012C00046460DF1080A0190626901210198904794
:1012D000051E2DD0252D2CD0216A8847C0B162690A
:1012E000012101989047216A88470028F7D1411EC3
:1012F00062690198904700E0761CA1690B988847C5
:10130000216A88470028F7D1E1690B988847DBE715
:10131000A1690B9888470746A84201D1761CD3E7FC
:10132000E1690B9888477F1C02D1B8F1000F6FD09C
:1013300047E1002762693D463946019890472A28CF
:1013400004D162690121019890470125DFF8889254
:101350006269012101989047A0F130010A290AD25F
:101360004F45E5DC07EB870100EB4107303FDFD459
:1013700045F01005ECE7E90601D46FF000476C2852
:101380000AD04C2814D0682815D06A280DD07428AB
:101390001CD07A281AD01DE062690121019890477B
:1013A0006C2802D045F0040514E045F002050DE07C
:1013B00045F020050AE062690121019890476828FC
:1013C00002D045F0080505E045F400656269012199
:1013D00001989047C4E9015765283DD019DC582889
:1013E0007AD00CDC452837D004DC252826D04128CB
:1013F00031D131E046282FD047282CD12CE05B2872
:1014000077D0612828D063287CD0642823D15AE083
:10141000D1E06F2848D008DC66281DD067281BD093
:10142000692821D06E2816D127E0702845D073286E
:1014300068D0752847D078280DD14DE0A1690B9868
:101440008847054625283FF469AFE1690B9888472E
:101450006D1C3FF46AAFB4E023466A466FF00100AA
:101460000B99FFF78DFB9FE045F040006060A807F7
:1014700023464FF0000236D43EE0E8077FF447AF42
:101480002068011D21600068290501D506701BE751
:10149000290701D5068017E7A90703D5F117C0E989
:1014A000006111E706600FE745F040006060A807A3
:1014B00023464FF0080216D41EE040F60E0125EA3E
:1014C0000100606016E045F040006060A807234618
:1014D0004FF00A0207D40FE045F040006060A80713
:1014E00008D5234610226FF001000B99FFF7F3F89F
:1014F0005AE007E0234610226FF001000B99FFF736
:1015000095F951E04FF000094F464B46632802D051
:101510005B2807D041E02079C00601D40120A060FB
:1015200001273AE062690121019890475E2805D1C0
:101530004FF001096269494601989047216939B91C
:1015400000210A46534643F82120491C0829FADBAA
:10155000B0B3216969B9C11700EBD16253110AEB2D
:10156000830122F01F02821A01200B68904003437E
:101570000B6062690121019890475D28E8D1B9F1BB
:10158000000F09D00020514651F82020D24341F8E5
:101590002020401C0828F7DB02AB224600976FF0A2
:1015A00001000B99FFF7E8F900280CDA401C08D17C
:1015B000BBF1000F05D04FF0FF300DB0BDE8F08F4C
:1015C000FFE74046F9E7E90701D108F101080644C1
:1015D0004FF0000B78E60000CCCCCC0C0EB540F2FE
:1015E000334202920022CDE900221346FFF7ACFC01
:1015F00003B000BD30B58C1810F8012B12F00F03AA
:1016000001D110F8013B120906D110F8012B03E0BB
:1016100010F8015B01F8015B5B1EF9D101E001F8F4
:10162000013B521EFBD1A142E6D3002030BD000099
:1016300049494A6822F440324A604A6843681A437A
:101640004A6001684A6822F480724A6001684A6808
:10165000036942EA03224A6001684A6822F0407244
:101660004A6001684A6883681A434A6001688A6868
:1016700022F400628A6001688A68C3681A438A603B
:10168000816A6FF07062D14214D001688A6822F0DA
:1016900070628A6001688A68836A1A438A60016896
:1016A0008A6822F040528A6001688A68C36A1A43D5
:1016B0008A6009E001688A6822F070628A600168C5
:1016C0008A6822F040528A6001688A6822F0020229
:1016D0008A6001688A68836942EA43028A60016A13
:1016E00089B101684A6842F400624A6001684A6848
:1016F00022F460424A6001684B68426A521E43EA23
:1017000042324A6004E001684A6822F400624A609A
:101710000168CA6A22F47002CA620168CB6A828BCD
:10172000521E43EA0252CA6201688A6822F40072B9
:101730008A6001688A68036B42EA43228A60016812
:101740008A6822F480628A6001688A68406942EA95
:1017500080208860704700000023014010B50C49CC
:101760000A48086001F0B8FF00F0F8FF03F0E0FB62
:1017700002F0EAFB00F04CFD06A208A109A005F06A
:1017800015FDBDE810400AA004F038B800000208BA
:1017900008ED00E056302E312E30000056312E304C
:1017A0002E3000004A49454A49452D46343037001D
:1017B0002D2D2D2D2D2D2D2D2D2D2D204C7769707E
:1017C0002064656D6F202D2D2D2D2D2D2D2D2D2D72
:1017D0002D2D0A001CB51F4801F03AFA00F092FFC7
:1017E0001D48016841F00101016002208DF80000F0
:1017F00000218DF801108DF802108DF803108DF87E
:1018000004108DF805101348144A0260012242604A
:101810000182C0F814D08261C161D1050162491210
:101820008160C910C16001F0B7FA044614B10CA080
:1018300003F0E4FF0823144A1449064801F0CBF9E9
:10184000134A0823A2F50071024801F08DF92046E1
:101850001CBD000060020020009002400080024099
:101860005B44454255475D20657468206861726439
:101870007761726520696E6974206661696C642E97
:101880002E2E0A0D0A00000048340020A803002074
:10189000A8040020FEE700000648016841F08071BE
:1018A0000160054800214160016841F001010160CB
:1018B00070470000FCED00E0001000E001484068C7
:1018C00070470000001000E001B50021009BA82037
:1018D0004343FFF7F3FF0246FFF7F0FF9042FBD0D0
:1018E00003D9A0EB0202114403E06FEA02020244B2
:1018F000114402469942EFD308BD00002DE9F84398
:10190000444C002740F6B836277043A003F076FF1A
:1019100040F25B7569464EA00DF06AFC002827D1A5
:101920000098002824D068460AF0B4F88046424661
:1019300047A14CA003F062FF2A46414654A003F0A1
:101940005DFF2946404615F015F96060002816DB5A
:101950005CA003F053FF66A003F050FF03F036F8DD
:10196000002813D06FA003F049FF15F0E5F8CBE78E
:101970007AA003F043FF304616F04CF8CAE78448DB
:1019800003F03CFF304616F045F8C3E781A003F0B2
:1019900035FF012288A1606802F098FF002805DA6F
:1019A00090A003F02BFF15F0C7F8ADE7012298A136
:1019B000606802F08BFF002805DA8AA003F01EFFA2
:1019C00015F0BAF8A0E701229EA1606802F07EFF40
:1019D000002805DA83A003F011FF15F0ADF893E7B6
:1019E0000122A7A1606802F071FF002805DA7DA03E
:1019F00003F004FF15F0A0F886E7AD4803F0FEFE03
:101A000001202070ABA00CF069FEAEA003F0F6FE42
:101A1000BDE8F883100000205B44454255475D2037
:101A2000312EE5BC80E5A78BE8BF9EE68EA5E5AF2D
:101A3000B9E5BA94E4BA91E5B9B3E58FB0E79A8411
:101A4000E69C8DE58AA1E599A82E2E2E0A0D0A00A6
:101A50006D717474732E6865636C6F7564732E6337
:101A60006F6D00005B44454255475D20686F73749D
:101A7000206E616D65203A202573202C20686F73DD
:101A8000745F6970203A2025730A0D0A0000000077
:101A90005B44454255475D20E69C8DE58AA1E5996A
:101AA000A84950E59CB0E59D803A2025732CE7AB12
:101AB000AFE58FA3E58FB7EFBC9A253064210A0DFF
:101AC0000A0000005B44454255475D20E8BF9EE6A2
:101AD0008EA5E4BA91E5B9B3E58FB0E69C8DE58AB1
:101AE000A1E599A8E68890E58A9F210A0D0A0000E1
:101AF0005B44454255475D20322E4D515454E79486
:101B0000A8E688B7E5908DE4B88EE7A798E992A596
:101B1000E9AA8CE8AF81E799BBE999862E2E2E0AB7
:101B20000D0A00005B44454255475D204D51545419
:101B3000E794A8E688B7E5908DE4B88EE7A798E922
:101B400092A5E9AA8CE8AF81E799BBE99986E5A45B
:101B5000B1E8B4A52E2E2E0A0D0A00005B444542C2
:101B600055475D20444E53E8A7A3E69E90E5A4B1F7
:101B7000E8B4A52CE7AD89E5BE8533E7A792E586F5
:101B80008DE5B09DE8AF952E2E2E0A0D0A000000BF
:101B90003C8F03085B44454255475D20332EE5BC2E
:101BA00080E5A78BE8AEA2E99885E6B688E681AF26
:101BB0002E2E2E0A0D0A0000247379732F583944F3
:101BC00063696F356349302F736D6172746461703E
:101BD0002F7468696E672F70726F70657274792FD9
:101BE000736574005B44454255475D20E5AEA2E64F
:101BF00088B7E7ABAFE8AEA2E99885E6B688E6819C
:101C0000AFE5A4B1E8B4A52E2E2E0A0D0A000000FF
:101C1000247379732F58394463696F356349302FC2
:101C2000736D6172746461702F7468696E672F7070
:101C3000726F70657274792F706F73742F72657024
:101C40006C790000247379732F58394463696F35B8
:101C50006349302F736D6172746461702F746869A9
:101C60006E672F70726F70657274792F6465736917
:101C70007265642F6765742F7265706C790000005F
:101C8000247379732F58394463696F356349302F52
:101C9000736D6172746461702F7468696E672F650B
:101CA00076656E742F706F73742F7265706C790027
:101CB000888F03085B226C65645F7377697463685F
:101CC000225D00005B44454255475D20342EE5BC53
:101CD00080E5A78BE5BEAAE78EAFE68EA5E694B6B3
:101CE000E8AEA2E99885E79A84E6B688E681AF2E49
:101CF0002E2E0A0D0A00000070B5401C04F02EFDC7
:101D00000546280014D01EA104F0D0FC0446A4B15E
:101D1000204604F000FD80B1616971B1C8290CD082
:101D200019A003F06BFD2846BDE8704004F09ABC92
:101D3000BDE870401EA003F061BD27A1284604F055
:101D4000B5FCB8B126A104F0B1FC04467CB1204634
:101D500004F0D6FC18B9204604F0DDFC38B1606907
:101D600008B1012000E0002000F058F802E01FA0B8
:101D700003F044FD2846BDE8704004F073BC000049
:101D8000636F6465000000005B44454255475D2079
:101D90006465736972656420676574207265667531
:101DA0007365642C20636F64653D25640A0D0A0029
:101DB0005B44454255475D206465736972656420E4
:101DC0007265706C79207061727365206661696CF0
:101DD00065640A0D0A00000064617461000000007F
:101DE0006C65645F73776974636800005B444542A7
:101DF00055475D2064657369726564206461746130
:101E000020686173206E6F206C65645F73776974FE
:101E100063682076616C75650A0D0A0010B504468A
:101E20000E48002C06D04FF4000101600CA003F016
:101E3000E5FC04E0802101600FA003F0DFFC0CB1A1
:101E400013A100E016A11AA00CF04CFD002804D04C
:101E5000BDE8104017A003F0D1BC10BD181402401B
:101E60005B44454255475D20E5BC80E590AF6C651D
:101E700064E781AF0A0D0A005B44454255475D2087
:101E8000E585B3E997AD6C6564E781AF0A0D0A009B
:101E90007B22737769746368223A317D0000000009
:101EA0007B22737769746368223A307D00000000FA
:101EB0006C6564005B44454255475D206C65642059
:101EC0006576656E7420706F7374206661696C65E9
:101ED000640A0D0A0000000070B5AAB0401C04F0AE
:101EE0003DFC0646300012D028A104F0DFFB054679
:101EF000280011D004F01AFC70B125A1304604F07E
:101F0000D5FB80B124A104F0D1FB04460CE025A050
:101F100003F074FC2AB070BD304604F0A3FB2AA085
:101F200003F06CFCF6E7002474B1204604F0E8FBF3
:101F300018B9204604F0EFFB30B1606908B1012008
:101F400000E00020FFF76AFF27A2A02102A82B696A
:101F500003F064FC0446304604F084FB002CD9DD19
:101F6000A02CD7DAA0B20090364802AB002228A1FC
:101F7000406802F0D0F9002803DA33A003F03EFCF9
:101F8000C8E702A939A003F039FCC3E7696400007F
:101F9000706172616D7300006C65645F7377697462
:101FA000636800005B44454255475D2073657420BB
:101FB0006A736F6E207061727365206661696C650B
:101FC000640A0D0A000000005B44454255475D204D
:101FD000736574206A736F6E206E6F20696420666B
:101FE00069656C640A0D0A007B226964223A222525
:101FF00073222C22636F6465223A3230302C226DBA
:102000007367223A2273756363657373227D0000E0
:10201000247379732F58394463696F356349302FBE
:10202000736D6172746461702F7468696E672F706C
:10203000726F70657274792F7365745F7265706CFE
:1020400079000000100000205B44454255475D20A8
:102050007365745F7265706C79207075626C6973FA
:1020600068206661696C65640A0D0A005B4445423C
:1020700055475D207365745F7265706C792070756B
:10208000626C697368206F6B3A2025730A0D0A0031
:102090000025002420A003F0B1FB4FF4FA77264E70
:1020A0000CE038460DF09AFE641C3C2C06D340F23E
:1020B0001D12224922A003F0A1FB06E096F8311080
:1020C000C807EED070680028EBD004F02DFC50B1AA
:1020D0004FF49372194929A003F090FB40F2311498
:1020E0004FF47A760EE030A003F088FBF6E71D4649
:1020F000022B0DD02246114933A003F07FFB30465E
:102100000DF06CFE04F042FC0346AB42F7D0EEE764
:1021100035A003F073FBF2E75B494E464F5D205755
:10212000616974696E6720666F72206E6574776F7F
:10213000726B2E2E2E0D0A0058E10120748B0308BD
:102140005B5741524E5D5B25733A25645D204E65B9
:1021500074776F726B206E6F742072656164792082
:10216000696E203330732C207374617274204D516A
:10217000545420616E797761790D0A005B455252A3
:102180004F525D5B25733A25645D20436C6F756427
:10219000206D616E61676572207374617274206670
:1021A00061696C65640D0A005B494E464F5D2043D2
:1021B0006C6F7564206D616E616765722073746108
:1021C000727465640D0A00005B5741524E5D5B25D9
:1021D000733A25645D20436C6F7564207374617479
:1021E000653A2025640D0A005B494E464F5D204349
:1021F0006C6F756420636F6E6E6563746564202810
:102200004F6E654E4554204D515454290D0A00001F
:1022100010B50C4C0A4820604FF4E130606000209B
:10222000A060E0602061A0610C206061204601F0A8
:10223000B1FD2068C16841F02001C16010BD0000FF
:10224000001001402002002008B50948016841F053
:1022500010010160006800F01000009000F01CF810
:102260000122BDE808400821024801F01ABA000026
:10227000303802400010024000B585B008200090C0
:1022800000200190012002906946024801F020F9E7
:1022900005B000BD0010024000B585B008200090D8
:1022A00001200190022003906946024801F010F9D4
:1022B00005B000BD001002402DE9F04700260025C2
:1022C0004FF47A77DFF880904FF0010809E0641C42
:1022D000A4B2BC4202D90020BDE8F0870120FFF77C
:1022E000F3FA0821484601F0D5F90028EFD0322052
:1022F000FFF7EAFA00240821484601F0CBF901284B
:1023000013D0C5F1070008FA00F086436D1CEDB24A
:10231000082DE6D33046DFE7641CA4B2BC4201D9E5
:102320000020D9E70120FFF7CFFA0821484601F045
:10233000B1F90128F0D00024C5F1070008FA00F037
:10234000C0B20643E2E70000001002402DE9F0476A
:1023500004462DED028BFFF79FFF3F4E0022082120
:10236000304601F09EF944F25060FFF7ADFA0122C9
:102370000821304601F095F91E20FFF7A5FAFFF776
:102380007BFF0821304601F085F920B10020BDEC2B
:10239000028BBDE8F087002508E06D1CADB2642D0E
:1023A00001D90020F3E70120FFF78EFA082130461B
:1023B00001F070F90028F0D0002508E06D1CADB2E6
:1023C000642D01D90020E2E70120FFF77DFA082102
:1023D000304601F05FF90128F0D0FFF76DFF207063
:1023E000FFF76AFF6070FFF767FFA070FFF764FFF9
:1023F000E070FFF761FF207181462678657806EB73
:10240000C60000EB061005EB8000FEF7B4F89FED68
:10241000138B53EC182BFEF73FF8C4E9020194F834
:102420000280E77808EBC80000EB081007EB80009B
:10243000FEF7A1F853EC182BFEF72EF8C4E90401BF
:10244000701908EB07010844C1B2894501D1012088
:102450009DE700209BE70000001002400000000004
:10246000000059407047006800F58050816941F0D4
:10247000020181617047006800F58050816941F474
:10248000005181617047000008B507494FF4FA52C6
:102490000968B1FBF2F14143009100BF0098411E71
:1024A0000091FAD208BD00000000002038B50446B3
:1024B000206800F58050816941F4801181612068B5
:1024C00000F58050806900900120FFF7DDFF206853
:1024D000009900F58050816138BD000010B5502092
:1024E000EFF3118480F31188BFF34F8FBFF36F8F29
:1024F000024800F010FC84F3118810BD6002002037
:102500001079537940EA032307480844036411789B
:10251000D37841EA0361937852781B0443EA02229C
:102520001143416470470000008002402DE9F041F2
:10253000AEB00446002904D04FF40060E060C00053
:10254000A060002511951295139514951595169573
:10255000E06900287DD017954FF400701890199508
:102560001A951B951C951D9540271E971F95209524
:1025700021952295239524952595269580262796A5
:10258000289529952A952B952C952D9520680268DC
:1025900045490A40D4E902131943179B194341F4F2
:1025A0000071114301602068D0F80080012000F024
:1025B000C9FA2068C0F80080206847602068476832
:1025C000012000F0BFFA206847602068856020681D
:1025D000C560206881694FF64172114041F0800169
:1025E000816120688769012000F0ACFA206887616A
:1025F0002068C5612068C769012000F0A3FA20683F
:10260000C7610195B00402900395011104910595ED
:10261000069507950895042109910A9040120B90A0
:1026200080010C9040120D900E960F951095206829
:1026300000F5805081691D4A11401D4A0A4382619C
:10264000206800F580508569012000F07BFA206841
:1026500000E016E000F5805085612068154900F51E
:1026600080500160206800F580500568012000F06E
:1026700069FA206800F580500560A069012804D03F
:102680000AE04FF48060179066E7206800F58050FC
:10269000C169094A1143C16162692EB02046BDE893
:1026A000F0410021FFF72CBF0F8120FF233FDEF810
:1026B000040020028020C1024000010038B5044619
:1026C0002068016841F00401016020680068009002
:1026D0000120FFF7D9FE21680098086038BD38B5A1
:1026E00004462068016841F0080101602068006824
:1026F00000900120FFF7C8FE21680098086038BDEF
:102700007047000010B586B01248016841F480712E
:102710000160006800F48070009001200290039036
:102720000220049001900C4C01A9204600F0D0FE3C
:1027300000220221204600F0B4FF052000F002FA3A
:1027400001220221204600F0ACFF052000F0FAF93A
:1027500006B010BD303802400020024008B51948CC
:10276000016841F080010160016801F08001009181
:10277000016841F004010160016801F00401009169
:10278000016841F001010160016801F0010100915F
:10279000016841F002010160016801F0020100914D
:1027A000016841F040010160016801F040010091C1
:1027B000016841F480710160006800F4807000904D
:1027C00008BD00003038024002494888421C4A8057
:1027D000704700001000002078B50024009490F8A5
:1027E0003C20012A19D0012280F83C200A680725E4
:1027F000092A14D90368DE680A3A02EB42029540BE
:10280000AE43DE600A788B680A3A02EB42029340DC
:102810000268D5682B43D36011E0022078BD0368BD
:102820001E6902EB42029540AE431E610A788B6836
:1028300002EB42029340026815692B4313614A6818
:102840001F25072A13D203685E6B521E02EB820219
:102850009540AE435E630A8893B20A79521E02EB3A
:10286000820293400268556B2B43536328E00D2A84
:1028700013D203681E6BD21F02EB82029540AE4357
:102880001E630A8893B20A79D21F02EB8202934038
:102890000268156B2B43136312E00368DE6A0D3A7E
:1028A00002EB82029540AE43DE620A8893B20A7957
:1028B0000D3A02EB820293400268D56A2B43D36241
:1028C000174A184B05689D4206D10D68122D03D199
:1028D000556845F48005556005689D421BD10B681D
:1028E000102B01D0112B16D1536843F40003536011
:1028F000096810290FD10C490C4A0968B1FBF2F1A3
:1029000001EB81014900009102E00099491E00910C
:1029100000990029F9D180F83C40002078BD0000E2
:1029200000230140002001400000002040420F0031
:102930000068C06C704770B504460026002C03D0B8
:10294000206C002510B107E0012070BD656484F89B
:102950003C50204600F019F8206CC00610D4206CC2
:1029600020F4885040F0020020642046FEF760FE0C
:102970006564206C20F0020040F00100206400E05B
:10298000012684F83C50304670BD70472DE9F04177
:1029900004460D46206881684FF0000749050BD5B5
:1029A0008068C00508D5206C40F02000206484F8C1
:1029B0003C700120BDE8F08100F080FE06460FE08B
:1029C000681C0DD025B100F079FE801BA84207D904
:1029D000206C40F00400206484F83C700320E9E798
:1029E000206800688007EBD521686FF0120008604E
:1029F000206C40F4007020642068816811F0405F12
:102A000013D1A16989B9C16A11F4700F02D080682D
:102A100040050AD4206C20F480702064206CC0042F
:102A200003D4206C40F0010020640020C2E70000C5
:102A300018B50022009290F83C10012907D001211E
:102A400080F83C1001688B68DB0702D014E002209C
:102A500018BD8B6843F001038B602749274B096839
:102A6000B1FBF3F101EB4101009102E00099491E35
:102A7000009100990029F9D101688B68DB0738D0F3
:102A8000036C40F20164A34343F4807303644B6816
:102A90005B0505D5036C23F4005343F480530364B2
:102AA000036CDB0404D5436C23F00603436400E0AD
:102AB000426480F83C20124A6FF022030B60516898
:102AC000C90608D000680F49884212D1816811F008
:102AD000405F0AD00DE00068816811F0405F08D1C6
:102AE000816841F08041816003E0816841F080416C
:102AF0008160002018BD00000000002040420F004F
:102B0000002301400020014090F83C1001290CD026
:102B1000012180F83C1001688A6822F001028A6075
:102B200001688968C90702D007E002207047016C7C
:102B300021F4885141F001010164002180F83C102A
:102B40000020704770B5044600F0B8FD0546601CD3
:102B500002D004480078044400F0B0FD401BA042BD
:102B6000FAD370BD04000020F0B5002490F8455061
:102B7000012D09D0012780F84570022580F84450C6
:102B8000816244F2F45C19E00220F0BD01EB4415CF
:102B90004FF000462E60C5F804C0C4EBC41606EB27
:102BA000460602EB8606AE6086695E1EB44203D21C
:102BB00005F12006EE6000E0E960641C9C42E5D36C
:102BC000026802F58052D16080F84470002180F8DC
:102BD00045100020F0BD2DE9F043002590F8454058
:102BE000012C0BD04FF0010C80F845C0022480F876
:102BF0004440C1624FF480185F1E1CE00220BDE813
:102C0000F08301EB4514C4F80080C5EBC51606EB54
:102C1000460602EB8606A660C66926B9266846F413
:102C20004009C4F80090BD4203D204F12006E660DA
:102C300000E0E1606D1C9D42E3D3026802F5805222
:102C4000116180F844C0002180F845100020D6E7CB
:102C500010B50446022084F84400204600F0B8F97C
:102C6000002004F8440F607010BD0000E322024908
:102C700002A002F0C3BD00006C8903085B455252FC
:102C80004F525D5B25733A25645D2065746820654D
:102C900072720A0D0A00000010B590F84510012963
:102CA00013D0012380F84530022180F84410816A56
:102CB0000A680024002A29DB0A68D20518D5826B2D
:102CC000521C8263012A02D002E0022010BD01637F
:102CD0002830C1600A68C2F30D42121F4261826847
:102CE00092688261C968016003774477002010BD53
:102CF0000A68920505D5016344638363C9688162EC
:102D000004E0826B521C8263C968816200F8443F10
:102D10004470012010BD70B50446206800F5805055
:102D200041694FF0000649064FF001050CD52046D9
:102D300000F026FA2068402100F58050416184F8B7
:102D4000445084F845600DE04069C0070AD0204631
:102D500000F0E1FA206800F58050456184F84450A5
:102D600084F8456020684FF4803100F5805041615F
:102D7000206800F58050406900040CD52046FFF71C
:102D800075FF20684FF4004100F58050416184F8E0
:102D9000445084F8456070BD2DE9FC4704464FF06F
:102DA0000008CDF80480C146002C03D094F84400FC
:102DB00018B107E00120BDE8FC8784F84580204673
:102DC00000F038F97848016841F4804101600068FA
:102DD00000F4804000907548016821F40001016012
:102DE0000168226A11430160206800F58050016883
:102DF00041F00101016000F061FC05464FF4FA76F4
:102E00000AE000F05BFC401BB04205D9032084F8C7
:102E1000440084F84580CEE7206800F580500068C3
:102E2000C007EED12068006920F01C0500F06CFDA1
:102E30005F49604A0144914202D245F0080516E01C
:102E40005D495E4A0144914202D245F00C050EE014
:102E50005B495C4A0144914209D35B4908445B49A0
:102E6000884202D245F0040501E045F010052068D3
:102E700005614FF400420021204600F04DFA012583
:102E800038B101212046FFF751FB84F8445001205E
:102E900091E70520FFF756FE6068E0B300F00EFCF6
:102EA000074641F2883601AA0121204600F026F9A2
:102EB00000F004FCC01BB04209D901212046FFF7F5
:102EC00035FB84F8445084F84580032073E701986B
:102ED0004007E8D54FF480520021204600F01CFA4C
:102EE00038B101212046FFF721FB84F8445001202E
:102EF00061E700F0E3FB074601AA0121204600F04C
:102F0000FDF800F0DBFBC01BB0420BD901212046CD
:102F1000FFF70CFB00E028E084F8445084F845807B
:102F2000032048E701988006E6D501AA1F21204624
:102F300000F0E4F838B101212046FFF7F7FA84F8F1
:102F40004450012037E70198C10603D54FF40061D2
:102F5000E16001E0C4F80C80400702D5C4F80880A5
:102F60001AE04FF48040A06016E0E0680021C0F352
:102F7000CF02A068C0F34F000243204600F0CCF916
:102F800038B101212046FFF7D1FA84F844500120DE
:102F900011E70520FFF7D6FD49462046FFF7C6FAA0
:102FA00084F84450002006E74438024004380140C9
:102FB00000D3CEFEC0E1E40040F1E9FD40787D01A0
:102FC00000796CFC005A6202001F0AFA80F0FA02D3
:102FD00010B500681249884221D11248016821F0D9
:102FE00080610160016821F000610160016821F0E9
:102FF0000071016032210C4800F0CCF986210B48A9
:1030000000F0C8F90A4C4FF40061204600F0C2F904
:103010002046BDE810404FF4C04100F0BBB910BDE0
:1030200000800240303802400008024000000240A8
:10303000001802402DE9F04186B000682A49884214
:103040004ED13220019002240294002503950326DC
:1030500004960B27059701A9244800F039FA862029
:103060000190029403950496059701A9204800F069
:103070002FFAA00201900294039504960597DFF8B9
:10308000748001A9404600F023FA70030190029475
:1030900003950496059701A9404600F019FA00220D
:1030A00006213D2000F05CFB3D2000F04EFB124865
:1030B000016841F000710160016801F00071009148
:1030C000016841F080610160016801F08061009158
:1030D000016841F000610160006800F0006000904C
:1030E00006B0BDE8F0810000008002400008024008
:1030F0000000024000180240303802402DE9F0473D
:103100000446914694F8440082281DD0822084F819
:1031100044002068026902F01C03228A4FF6FF7502
:1031200005EAC2221A434FF4F86303EA81111143FE
:1031300021F0020141F00105056100F0BFFA0646E9
:1031400001274FF480380FE00220BDE8F08700F03F
:10315000B5FA801B404505D304F8447F0020607019
:103160000320F2E720680569E807F0D1206840698C
:1031700080B2C9F8000084F844700020E5E7000040
:1031800008B50C48016881F08001016000200090C2
:1031900009486946006815F055F90098002807D0DD
:1031A00006494FF080500860BFF34F8FBFF36F8F19
:1031B00008BD000014140240B401002004ED00E03A
:1031C00070B5044694F84500012819D0012584F80B
:1031D0004550022084F844002046FFF780FA20463C
:1031E000FFF76CFA2046FFF761F92046FFF743F935
:1031F0002046FFF738F904F8445F0020607070BD86
:10320000022070BDF0B5002390F84520012A11D0AE
:10321000012780F84570022280F84420002659B129
:10322000C46A2268002A0CDA122100F8441F467092
:103230000120F0BD0220F0BD00F8447F467001205F
:10324000F0BD40F2F455A9420AD9B1FBF5F2B1FB49
:10325000F5FC05FB1C1CBCF1000F02D0521C00E069
:103260000122012A44D1226842F040522260C26AFF
:10327000C1F30C015160C16A0A6842F000420A6061
:10328000C16AC968C16235E0C46AD4F800C02CF0D4
:10329000405CC4F800C033B9C46AD4F800C04CF034
:1032A000805CC4F800C0C46A6560541EA34214D197
:1032B000C46AD4F800C04CF0005CC4F800C0C2F18D
:1032C0000104C4EBC41404EB440401EB8404D0F8FF
:1032D0002CC0C4F30C04CCF80440C46AD4F800C079
:1032E0004CF0004CC4F800C0C46AE468C4625B1CC3
:1032F0009342C9D3016801F580514A69520705D547
:1033000004224A61016801F580514E6000F8447F53
:1033100046700020F0BD70472DE9F041044694F856
:103320004400422820D0422084F8440020680369E9
:1033300003F01C03258A4FF6FF7606EAC5251D43D8
:103340004FF4F86303EA8111294341F0020141F08F
:10335000010591B241612068056100F0AFF90646B0
:1033600001274FF480380FE00220BDE8F08100F023
:10337000A5F9801B404505D304F8447F0020607008
:103380000320F2E720680569E807F0D184F844706B
:10339000EBE700002DE9F04F0023DFF80C814FF040
:1033A000010C0F270CFA03F201EA0204944275D1D2
:1033B00006684FEA4309032505FA09F5AE4306609E
:1033C000DE0800EB8609D9F820A05E074FEAD66B2D
:1033D00007FA0BFB2AEA0B0A3E46C9F820A0D0F8F0
:1033E000089029EA0509C0F80890D0F8049029EA65
:1033F0000209C0F80490C268AA43C26023F0030225
:1034000002EB0805D5F808284FEA83794FEA1979C5
:1034100006FA09F606EA020A244A904201D100227D
:1034200023E0234A904201D101221EE0214A90422A
:1034300001D1022219E0204A904201D1032214E076
:103440001E4A904201D104220FE01D4A904201D150
:1034500005220AE01B4A904201D1062205E01A4AE1
:10346000904201D1072200E0082202FA09F25245F7
:1034700014D1D5F80828B243C5F80828134A1568AE
:10348000A5431560121D1568A5431560121D15682A
:10349000A5431560121D1568A54315605B1C102B14
:1034A00080D3BDE8F08F00000030014000000240F2
:1034B0000004024000080240000C024000100240DC
:1034C0000014024000180240001C0240003C014071
:1034D0002DE9F84F0022DFF89091DFF88C8109F197
:1034E00008094FF0010E4FF00F0C09F1040A0EFA13
:1034F00002F60B683340B34271D14C68022C01D004
:10350000122C11D1D40800EB84073D6A5407E40E55
:103510000CFA04FB25EA0B05D1F810B00BFA04FBFA
:103520004BEA050BC7F820B0076854000325A540F7
:10353000AF4391F804B00BF0030B0BFA04FB4BEA1A
:10354000070BC0F800B04F68012F05D0022F03D041
:10355000112F01D0122F11D18768AF43D1F80CB0D1
:103560000BFA04FB4BEA070BC0F808B04768B743F7
:103570000E79C6F3001696403E434660C668AE43D9
:103580008D68A5403543C5604C68E40065D5374C6F
:10359000256845F480452560246804F4804400943F
:1035A000334C22F003052544D5F808789407260FFC
:1035B0000CFA06F4A7432F4CA04201D1002424E0CA
:1035C0002D4CA04201D101241FE02C4CA04201D17E
:1035D00002241AE02A4CA04202D1032415E03CE068
:1035E000284CA04201D104240FE0274CA04201D175
:1035F00005240AE0254CA04201D1062405E0244C14
:10360000A04201D1072400E00824B4403C43C5F89F
:103610000848D8F800409C434D68ED0300D51C4392
:10362000C8F80040104D2D1D2C689C434E68B60311
:1036300000D51C432C60D9F800409C434D68ED0236
:1036400000D51C43C9F80040DAF800409C434D689F
:10365000AD0200D51C43CAF80040521C102AFFF4EA
:1036600046AFBDE8F88F0000003C014044380240FE
:103670000030014000000240000402400008024007
:10368000000C0240001002400014024000180240EA
:10369000001C02400069084201D001207047002050
:1036A0007047002A01D08161704709048161704729
:1036B00001480068000C7047002004E00148806861
:1036C000704700000400002002488168027811441D
:1036D000816070470400002010B50948016841F47A
:1036E00000710160016841F480610160032000F015
:1036F00057F80F2000F006F800F026F8002010BD63
:10370000003C024070B504460D4D4FF47A712878A4
:10371000B1FBF0F00B490968B1FBF0F000F026FBBB
:1037200008B1012070BD102C07D200222146501E86
:1037300000F016F86C60002070BD012070BD000024
:103740000400002000000020704700F01F0201214B
:1037500091404009800000F1E020C0F8001170475E
:10376000F0B40D460D4B1B68C3F30223C3F10704ED
:10377000042C00D90424191D072901D2002300E0DC
:10378000DB1E012606FA04F1491E294099409E409D
:10379000761E16403143F0BC01F0B1BA0CED00E0EA
:1037A00000F00701054A10684FF6FF03184040EA91
:1037B0000120034908431060704700000CED00E051
:1037C0000000FA052DE9F04704460D46002C13D001
:1037D000DFF82491D9F80000EFB200F00F00A84202
:1037E0000CD289F80070D9F8000000F00F00A84250
:1037F00004D00120BDE8F0870120FBE720683F4EA0
:10380000810712D5400703D5306840F4E05030609E
:103810002078000703D5306840F46040306030689D
:10382000A16820F0F000084330602078C00731D054
:10383000324960680839012808D002280BD00328D3
:1038400009D0096889070BD40120D3E709688903E7
:1038500006D40120CEE70968890101D40120C9E717
:10386000316821F0030101433160FFF727FF8046F3
:1038700041F2883A07E0FFF721FFA0EB080050452E
:1038800001D90320B6E73068616800F00C00B0EBA6
:10389000810FF0D1D9F8000000F00F00A84209D93B
:1038A00089F80070D9F8000000F00F00A84201D09C
:1038B00001209FE72078400705D53068E16820F4B3
:1038C000E050084330602078000706D53068216951
:1038D00020F4604040EAC100306000F03BF83168FD
:1038E000074AC1F30311515CC840064908600F2024
:1038F000FFF708FF00207DE7003C02400838024047
:103900005489030800000020014800687047000047
:103910000000002000B5FFF7F7FF04490968044ADA
:10392000C1F38221515CC84000BD0000083802404C
:103930006489030800B5FFF7E7FF04490968044AF2
:10394000C1F34231515CC84000BD0000083802405C
:103950006489030810B51748006810F00C01164878
:1039600016D0164B042912D0082911D1114C241F4E
:10397000216801F03F02216849020AD52068C0F39E
:103980008810A0FB03010023FCF77EFC09E0184629
:1039900010BD21680023C1F38811A1FB0001FCF7D1
:1039A00073FC2168C1F30141491C4900B0FBF1F0EF
:1039B00010BD0000083802400024F40040787D016A
:1039C0002DE9F84F0446002C10D02078DC4DC007BC
:1039D00057D0DB4808300168C1F3810101290DD0BF
:1039E0000068C0F38100022803D00EE00120BDE88A
:1039F000F88FD348001D0068400206D52868800370
:103A00003FD5606870BB0120F1E76068B0F5803F8A
:103A100010D0B0F5A02F12D0286820F48030286094
:103A2000286820F4802028606068E0B1FFF746FE37
:103A3000064614E0286840F480302860F4E72868DF
:103A400040F480202860286840F480302860EBE74C
:103A5000FFF734FE801B642801D90320C7E72868DC
:103A60008003F5D50DE0FFF729FE064606E0FFF7D7
:103A700025FE801B642801D90320B8E7286880034D
:103A8000F5D42078AF4F80074FF0000849D5AC48F7
:103A90000830016811F00C0F09D00068C0F38100F4
:103AA000022814D1A648001D006840020FD42868DF
:103AB000800704D5E068012801D0012097E7286835
:103AC000216920F0F80040EAC100286029E0E068A0
:103AD000B8B101203860FFF7F1FD064606E0FFF7B8
:103AE000EDFD801B022801D9032080E728688007AC
:103AF000F5D52868216920F0F80040EAC100286067
:103B00000FE0C7F80080FFF7D9FD064606E0FFF793
:103B1000D5FD801B022801D9032068E728688007AB
:103B2000F5D42078000729D5DFF81492864861691A
:103B300009F1740989B101210160FFF7BFFD064653
:103B400006E0FFF7BBFD801B022801D903204EE7EA
:103B5000D9F800008007F4D510E0C0F80080FFF726
:103B6000ADFD064606E0FFF7A9FD801B022801D93E
:103B700003203CE7D9F800008007F4D42078400700
:103B800072D50026DFF8B8A10AF1400ADAF8000081
:103B9000C0000BD4DAF8000040F08050CAF80000F2
:103BA000DAF8000000F0805000900126DFF89CB1A8
:103BB000DBF80000C00515D4DBF8000040F480708D
:103BC000CBF80000FFF77AFD814607E0FFF776FDAE
:103BD000A0EB0900022801D9032008E7DBF8000068
:103BE000C005F3D5DFF858B1A0680BF1700B0128C0
:103BF00013D0052818D0DBF8000020F00100CBF826
:103C00000000DBF8000020F00400CBF80000A06802
:103C100030B3FFF753FD81461DE0DBF8000040F0B4
:103C20000100CBF80000F2E7DBF8000040F00400F0
:103C3000CBF80000DBF8000040F00100CBF80000FA
:103C4000E5E7FFF73BFDA0EB090141F28830814237
:103C500001D90320CBE6DBF800008007F1D512E0A4
:103C6000FFF72CFD81460AE015E0FFF727FDA0EBEA
:103C7000090141F28830814201D90320B7E6DBF81F
:103C800000008007F1D4012E05D1DAF8000020F001
:103C90008050CAF80000A069C0B3294908310968FA
:103CA000C1F38101022949D0022805D0C7F86080FC
:103CB000FFF704FD04463CE0C7F86080FFF7FEFC18
:103CC000064606E0FFF7FAFC801B022801D9032014
:103CD0008DE628688001F5D4D4E907010843616ABC
:103CE000A26A4FF0FF33890103EB520241EA02411D
:103CF000084394F82C1040EA01611148001D01604E
:103D000001203866FFF7DAFC044607E014E0FFF70D
:103D1000D5FC001B022801D9032068E62868800131
:103D2000F5D509E0FFF7CAFC001B022801D90320E2
:103D30005DE628688001F5D4002058E6012056E6AB
:103D40000038024000004742800E474200700040A9
:103D50004FF0E021042804D0086920F00400086135
:103D60007047086940F004000861704710B5401EB4
:103D7000B0F1807F01D3012010BD4FF0E0246061DD
:103D80000F21601700F0BBFF0020A0610720206119
:103D9000002010BD70B50446002C04D094F8390002
:103DA000002510B106E0012070BD84F8385020468F
:103DB00000F022F8242084F839002068C16821F43A
:103DC0000051C160204601F0A7F92068016921F483
:103DD000904101612068416921F02A014161206818
:103DE000C16841F40051C160E563202084F83900C6
:103DF00084F83A00002070BD30B587B01D480168D6
:103E000041F010010160006800F0100001901948B5
:103E10001438016841F001010160016801F00101FD
:103E20000191016841F001010160006800F00100AA
:103E300001904FF400700290022003900120049042
:103E400003200590072406940B4D02A92846FFF78E
:103E50003FFB29150291069402A92846FFF738FB7B
:103E6000012200212520FFF77BFC2520FFF76DFCB8
:103E700007B030BD44380240000002402DE9F8434D
:103E800004460D4691461E4694F83900202802D07B
:103E90000220BDE8F883B5B1B9F1000F13D094F852
:103EA0003800012811D0012084F838000027E7638A
:103EB000212084F83900FFF701FC8046A4F8249003
:103EC000A4F826902DE00120E3E70220E1E7E08C52
:103ED000401EE084A068B0F5805F09D04346002210
:103EE00080212046009601F0A1FAB0B10320D0E76E
:103EF0004346002280212046009601F097FA08B13F
:103F00000320C6E728882168C0F3080048602069BC
:103F100008B16D1C05E0AD1C03E0216815F8010B2C
:103F20004860E08C0028D2D1434600224021204640
:103F3000009601F07BFA08B10320AAE7202038346C
:103F4000607027700020A4E7F0B587B01B480168B7
:103F500041F020010160016801F020010191016838
:103F600041F020010160016801F020010191016828
:103F700041F020010160006800F020000190402421
:103F80000294012003900490032005900C4F02A995
:103F90003846FFF79DFA8025029502A93846FFF7BB
:103FA00097FAA600029602A93846FFF791FA04484C
:103FB000183004600560066007B0F0BD303802407C
:103FC00000140240054C4FF4FA75216881F040015D
:103FD000216028460BF002FFF7E7000014140240AE
:103FE00070B598B005460E461446002C00D1084C1A
:103FF00001A800F059F83246294601A800F06AF8F5
:1040000001A9204600F006F818B0204670BD000057
:10401000086900202DE9F04792B080460E46D6E9A7
:10402000044596F8580000F03F00382802D2C0F14D
:10403000380901E0C0F1780948216846FCF7B4F975
:1040400080208DF800000027EA46FA002046294625
:10405000FCF74BF909EB07010AF801007F1C082F58
:10406000F3DB09F108026946304600F033F800201E
:104070003268C100CA4008F80020736808EB0002EB
:10408000CB401371B368CB401372F368CB4013730A
:10409000401C0428ECDB5C213046FCF785F912B0AB
:1040A0000120BDE8F087000010B504465C212046E1
:1040B000FCF77AF905482060054860600348C04372
:1040C000A0600348C043E060012010BD01234567A4
:1040D00089ABCDEF2DE9F04104460E461546216926
:1040E00001EBC500814202D96169491C61616169C6
:1040F00001EB557161612061A06DC0F1400704F1D1
:1041000018084044BD4209D22A463146FCF724F93A
:10411000A06D2844A0650120BDE8F0813A463146F3
:10412000FCF71AF94146204609F02EFF3E44ED1BEC
:1041300005E03146204609F027FF4036403D402D3E
:10414000F7D22A4631464046FCF706F9A56501201C
:10415000E2E7FEB505460C461646002002900193A4
:1041600001A80DF0E3FD8DF808000298C0F3C0002F
:1041700020700298C0F3031028706946019800F07F
:104180005DF9019901440191009A8B18591A02298D
:1041900004DB01A80DF0D0FD30800120FEBD7FB50D
:1041A00005460E460020039002920024009002A8CB
:1041B0000DF0BCFD8DF80C000398C0F3031002282D
:1041C0001AD101A9029800F039F90299044642185F
:1041D000029201981044801A02280DDB02A80DF00B
:1041E000A5FD8DF80000009800F00100287002A8DD
:1041F0000DF09CFD3070012404B0204670BD2DE907
:10420000FE4F0D46DDE90C97DDE90E81044693462D
:104210001E460020029001918246009001A80DF0F8
:1042200085FD8DF808000298C0F3031103292DD1F4
:10423000C0F3C00020700298C0F3410028600298CB
:1042400000F001008BF800006946019800F0F6F8D4
:10425000019982460844019000994418224601A918
:1042600048460DF072FD88B10198201A0ED42868D6
:10427000002803DD01A80DF05FFD30800198201AB1
:10428000C8F80000019838604FF0010A5046BDE8B8
:10429000FE8F2DE9FE4F82460C980E4614461F46AF
:1042A0004FF00009CDF808900190C84601A80DF024
:1042B0003DFD8DF808000298C0F30310092827D1AE
:1042C0006946019800F0BAF80199804608440190C7
:1042D00000994518281A02281ADB01A80DF02CFDB8
:1042E000AAF80000C4F800900DE02068B04202DD9A
:1042F0004FF0FF380CE001A80DF018FD2268511CAA
:10430000216047F822000198A842EED34FF001083F
:104310004046BDE8FE8F2DE9F041ADF5087D05462C
:10432000DDF8388214461F464FF4FA7600230993CD
:104330000A9300200891012C1AD0022C18D00024D6
:10434000CDE9057808A986C9CDE90327CDE9003074
:1043500002912346002231460BA800F0E1F9014604
:10436000002908DC4FF0FF300DF5087DBDE8F08135
:10437000FEF72AFAE4E70BA812F028FC002802DA7C
:104380006FF00100F0E73CB16FF00207012C05D09F
:10439000022C0ED0781FE7E70020E5E70522042174
:1043A000284601F005FA002801DA3846DCE701204A
:1043B000DAE705221146284601F0FAF9002801DA69
:1043C0003846D1E72B46002231460BA800F0FAF917
:1043D000014639B10BA812F0F9FB002805DA6FF09D
:1043E0000500C1E76FF00300BEE70522114628462D
:1043F00001F0DEF9002802DA6FF00600B4E70220CF
:10440000B2E7F8B507460E460124002500203060CB
:104410006D1C042D0FDC01216846B84701280AD124
:104420009DF80020306802F07F0101FB040030603D
:10443000E4011006ECD42846F8BD0000024A1060E2
:104440000248FFF7DEBF0000DC01002065640208BF
:1044500010B504460020CA1701EB526323F07F0217
:10446000891ACAB2D911002901DD42F0800203463F
:1044700000F10100E254EEDC10BD0000401C802879
:1044800001DA401C7047B0F5804F01DA801C70479C
:104490000349884201DAC01C7047001D70470000C4
:1044A000FFFF1F002DE9FC4104460F4615464FF063
:1044B000FF3600200190009001212046A8470128E6
:1044C00018D169462846FFF79CFF601C0099FFF74A
:1044D000BFFF401C00990A18BA420BDC21B12044EE
:1044E000A8470099884205D120788DF804000198EA
:1044F000C0F303163046BDE8FC817CB50546069E38
:10450000002401940095042901DAA01E7CBD62F309
:10451000071463F3C3040194062A15D024F006029D
:1045200001929DF80410684613F05AFC022100988D
:10453000FFF78EFF0099084400903146684613F05B
:1045400055FC0098401B7CBD24F00602921CE7E756
:104550002DE9FE4305460F461446029500260196B6
:104560000096204600F092F88046FFF787FFB84299
:1045700002DDB01EBDE8FE838DF80460019820F0D6
:10458000F000103001909DF8041002A813F028FCF0
:1045900041460298FFF75CFF029908440290207A96
:1045A000042813D035A102A813F006FC032102A8A9
:1045B00013F016FC8DF80060A17E009861F34100B5
:1045C0000090E17E59B140F004000AE02DA102A85C
:1045D00013F0F2FB042102A813F002FCEAE720F03A
:1045E00004000090410708D594F83D1061F3C40021
:1045F00094F83C1061F345100090206C08B9A06C51
:1046000018B1009840F080000090E06C08B9606D2F
:1046100018B1009840F0400000909DF8001002A8EA
:1046200013F0DEFB218B02A813F0E0FBD4E9042396
:1046300002A8E16813F0E9FBE07E58B1D4E90A234F
:1046400002A8616A13F0E1FBD4E90D2302A8216BF3
:1046500013F0DBFB009E300605D5D4E9112302A838
:10466000216C13F0D2FB700604D54C3402A80ECC9A
:1046700013F0CBFB0298401B7CE700004D514973BF
:10468000647000004D5154540000000070B50446A1
:104690000025207A032802D0042802D002E00C254D
:1046A00000E00A25D4E90412E06800F0B1FA0544FC
:1046B000AD1CE07E68B1D4E90A12606A00F0A8FA85
:1046C000D4E90D120646206B00F0A2FA30440544EE
:1046D0002D1D206C08B9A16C29B1D4E9111200F08C
:1046E00097FA0544AD1CE06C08B9616D29B1D4E9B5
:1046F000141200F08DFA0544AD1C284670BD0C2242
:1047000000F0C7B808B5002300920422FFF7F5FEB9
:1047100008BD08B5002300920722FFF7EEFE08BD92
:104720002DE9FE4F0546DDE90C9A129E0F46904694
:104730001C460295002001900EA900960EC9204645
:1047400000F032F88346FFF799FEB84203DD6FF0C0
:104750000100BDE8FE8F302068F3C30064F342001F
:1047600069F3000001909DF8041002A813F038FBD3
:1047700059460298FFF76CFE0299084402900EA970
:1047800002A80EC913F041FB002C03DD514602A81C
:1047900013F02CFB324611990298FBF7DDFD0298CD
:1047A00030440290401BD4E77FB50546089C01A821
:1047B00007C800F02DFA2044801C002D00DD801C6D
:1047C00004B070BD08B5009313460622FFF795FEAE
:1047D00008BD2DE9FF4F83B00646DDE91189109F22
:1047E0008A469346029600250195002441463846A4
:1047F00000F039F80090FFF741FE504503DDA01EA0
:1048000007B0BDE8F08F8DF80450019820F0F0005B
:1048100080306BF3C30020F00600801C01909DF8EF
:10482000041002A813F0DCFA00990298FFF710FEBA
:1048300002990844029002A8069913F0D7FA0DE0F5
:1048400004EB440008EB800502A80ECD13F0DDFA5E
:1048500019F8241002A813F0C3FA641CBC42EFDB61
:104860000298801BCCE72DE9F04106460F46022551
:10487000002409E004EB440007EB800307CB00F0C1
:10488000C7F90544ED1C641CB442F3DB2846BDE8BF
:10489000F0811CB50446002001900094022901DA41
:1048A000801E1CBD8DF80400019862F30710019072
:1048B0009DF80410684613F093FA00210098FFF762
:1048C000C7FD009901440091081B1CBD2DE9F04370
:1048D000A7B00446002026902590642709900A90EE
:1048E0000B90022304930590069004F00700012327
:1048F00003FA00F6E01704EB5070C5100DF118082C
:10490000042C04D218F80500304308F8050009917A
:10491000089209A9DFF8AC90CDE9003108A802900F
:10492000D9F808000022411C83B2C9F808103946A2
:104930000CA8FFF74EFF01460CA812F047F900281B
:1049400004DA4FF0FF3027B0BDE8F08304A800235D
:1049500000901A4606A9601C08F00AFE90B1042CCB
:1049600003D218F80500304202D16FF00200EAE7E6
:10497000154A39460CA8FFF795FD092805D06FF0B8
:104980000300E0E76FF00100DDE70CA8CDE90007C8
:1049900007AB25AA012126A8FFF77BFC012802D03E
:1049A0006FF00400CFE70798802806D0D9F80800F8
:1049B000BDF89810401E814202D06FF00500C2E79A
:1049C0000020C0E710000020616B030830B5ADF592
:1049D000197D5822284983A8FBF7BEFC4FF40074C8
:1049E000C820264DCDE9005025A331A233A1364879
:1049F0000BF03EF930B135A000F000FF01200DF5BD
:104A0000197D30BD2AA086903C20ADF824022BA051
:104A10009390969504208DF8140201208DF82602BB
:104A200083AA214603A8FFF793FD014603A812F0CD
:104A3000CDF8304A214603A8FFF734FD022804D000
:104A40002DA000F0DBFE0220D9E7234603AA01A92E
:104A500002A8FFF7A4FB012802D19DF8040030B1A1
:104A60009DF804102CA000F0C9FE0120C7E736A075
:104A700000F0C4FE0020C2E784890308E863002038
:104A800054484E704F45686B6346565862315642E3
:104A90005346453562304A6E576D5A44624642422B
:104AA000636D4A5955557479516B4D3D00000000B6
:104AB000736D617274646170000000005839446362
:104AC000696F35634930000004B4A36F5B4445420D
:104AD00055475D204F6E654E455420746F6B656E73
:104AE000206275696C64206661696C65640A0D0AF0
:104AF00000000000616B03085B44454255475D20A0
:104B00004D515454E8BF9EE68EA5E697A0E5938DDF
:104B1000E5BA94210A0D0A005B44454255475D20E1
:104B2000E697A0E6B395E8BF9EE68EA52CE994999A
:104B3000E8AFAFE4BBA3E7A081E698AF3A202564D5
:104B4000210A0D0A000000005B44454255475D20E4
:104B5000E794A8E688B7E5908DE4B88EE7A798E9D2
:104B600092A5E9AA8CE8AF81E68890E58A9F2C4D52
:104B7000515454E8BF9EE68EA5E68890E58A9F21B1
:104B80000A0D0A002DE9F041B6B004464FF0C808FE
:104B90000520019000200290039004F007000126F8
:104BA0008640E01704EB5070C51003AF042C02D20E
:104BB000785D30437855414604A8FFF7A0FD0146D3
:104BC00004A812F003F801A8002300901A4603A9D4
:104BD000601C08F0CDFC98B1042C02D2785D304204
:104BE00004D16FF0010036B0BDE8F081074A4146BC
:104BF00004A8FFF757FC0D2805D06FF00200F2E77C
:104C00004FF0FF30EFE70020EDE70000616B030895
:104C100017B40098002803D000981EBCFBF7E5BB32
:104C200001981EBC7047FEE74FF47A7442F210758B
:104C30000BA000F0E3FD13F00BF9014614A000F007
:104C4000DDFD13F0E5FCB0FBF4F119A000F0D6FD9A
:104C50001EA000F0D3FD28460BF0C0F8E8E70000E6
:104C60005B494E464F5D203D3D3D3D3D3D3D3D3D1B
:104C70003D2053797374656D20537461747573208E
:104C80003D3D3D3D3D3D3D3D3D3D0D0A00000000AB
:104C90005B494E464F5D20486561702066726565D0
:104CA0003A2025642062797465730D0A00000000C3
:104CB0005B494E464F5D20557074696D653A2025FD
:104CC00064207365636F6E64730D0A005B494E4622
:104CD0004F5D203D3D3D3D3D3D3D3D3D3D3D3D3DEF
:104CE0003D3D3D3D3D3D3D3D3D3D3D3D3D3D3D3DF4
:104CF0003D3D3D3D3D3D0D0A000000007047090768
:104D0000090E002806DA00F00F0000F1E02080F81C
:104D1000141D704700F1E02080F800147047000077
:104D200010B506A000F06AFD00F08CF90BA000F0B1
:104D300065FDBDE81040002012F0A6BE5B494E465E
:104D40004F5D20496E697469616C697A696E67208C
:104D50004C5749502E2E2E0D0A0000005B494E463E
:104D60004F5D204C57495020696E697469616C69C8
:104D70007A65640D0A0000002DE9FF4704460F46DE
:104D80009046002B29D0019300200290039004F05C
:104D9000070001268640E01704EB5070C5100DF1A6
:104DA0000C09042C04D219F80500304309F8050059
:104DB00001A8002300901A4603A9601C08F0D8FB44
:104DC0004FF0FF3178B1042C03D219F805003042BE
:104DD00003D1084604B0BDE8F087044A414638468E
:104DE000FFF760FBF6E70846F4E70000616B030895
:104DF00092B00DF0E1F94FF47A7A0024694602206E
:104E000004F024FA40B99DED040ABCEEC00A10EE8D
:104E1000100A80B201F0BCFF50460AF0DFFF641CAC
:104E20000A2CEBD30BA80DF03BF948B1FF221E4929
:104E30001EA000F0E3FC42F210700AF0CFFFDCE7A6
:104E40000F98FBF7C4FB04460D460E98FBF7BFFB1B
:104E500006460F460D98FBF7BAFB804689460C982C
:104E6000FBF7B5FB41EC100BCDE9008953EC102B9F
:104E70001848CDE90267CDE9044500F0BFFC0020E9
:104E80008DF81C000BA808901C20ADF82400109889
:104E90000A9007A801F0F4FD0028CCD0FC220249BA
:104EA0000DA000F0ABFCC6E7688B03085B574152CE
:104EB0004E5D5B25733A25645D2053656E736F729A
:104EC00020636F6C6C656374206661696C65640D4A
:104ED0000A000000EC8F03085B5741524E5D5B25D2
:104EE000733A25645D2053656E736F72206461743C
:104EF00061207265706F7274206661696C65640D03
:104F00000A00000010B55020EFF3118480F31188DF
:104F1000BFF34F8FBFF36F8FFEF7D6FB13F06AFB23
:104F2000012801D013F020F884F3118810BD00008F
:104F300030B593B000252A48016841F080510160E6
:104F4000006800F0805001902648016841F48041DB
:104F50000160006800F4804001900120029000048C
:104F60000390022408948001099019200A904FF4BC
:104F7000A8700B900C9407200D9002A8FEF720FD5E
:104F800000B1FEE70F200E900F9410954FF4A05043
:104F900011904FF48050129005210EA8FEF712FCDC
:104FA00000B1FEE7FEF7B0FC4FF47A71B0FBF1F010
:104FB000FEF7DCFE0420FEF7CBFE00221146501E59
:104FC000FEF7CEFBFEF774FB41F20101884204D1EB
:104FD0000548016841F48071016013B030BD0000E4
:104FE0004038024000700040003C02401048016818
:104FF00041F4700101600F48016841F00101016056
:105000000C4A00210832116002680B4B1A40026002
:10501000031D0A4A1A60026822F4802202600548D1
:105020000C30016002490648803908607047000072
:1050300088ED00E000380240FFFFF6FE103000244B
:10504000000002083EB50021084611F025FC1E4D67
:1050500000202860291D0860091D08601B491C4AA2
:10506000CDE9012105F1080300901A1F111F19480D
:105070000AF022FC17480AF0B3FD164C94F83100F0
:10508000400703D520460AF0D3FD02E011480AF09C
:10509000ADFD104803F0DCF930B10FA000F0AEFB1D
:1050A00002E0012012F0B6FC606829688842F8D05E
:1050B0006068010E0091C0F30743C0F30722C1B23C
:1050C0000CA000F09BFB3EBDCC01002099690308B9
:1050D00029A0020858E101206C7769702064686398
:1050E0007020696E6974206661696C2E2E2E0A0A22
:1050F000000000004C6F63616C20495020616464C3
:10510000726573732069733A2025642E25642E25F9
:10511000642E25640A0A00002DE9F0410446206847
:10512000016921F44052E168114301612068C268BD
:1051300049F20C618A432369A168E56919436369EF
:105140002B4319431143C1602068416921F4407128
:10515000A2690A434261E069B24AB3496425322632
:10516000B0F5004F59D02068884201D090427DD1DF
:10517000FEF7E0FB00EBC00101EB00106168890065
:10518000B0FBF1F7FEF7D6FB00EBC00101EB00101E
:1051900061688900B0FBF1F0B0FBF5F06FF0180129
:1051A000484307EB800006EB0010B0FBF5F000F081
:1051B000F007FEF7BFFB00EBC00101EB00106168D8
:1051C0008900B0FBF1F0B0FBF5F007EB0017FEF73C
:1051D000B1FB00EBC00101EB001061688900B0FB7E
:1051E000F1F8FEF7A7FB00EBC00101EB00106168CE
:1051F0008900B0FBF1F0B0FBF5F06FF01801484307
:1052000008EB800006EB0010B0FBF5F0216800F021
:105210000F0038448860BDE8F0812068884201D0E2
:10522000904256D1FEF786FB00EBC00101EB001067
:1052300061684900B0FBF1F0B0FBF5F00701FEF743
:1052400079FB00EBC00101EB001061684900B0FB85
:10525000F1F8FEF76FFB00EBC00101EB0010616895
:105260004900B0FBF1F0B0FBF5F000E086E06FF034
:105270001801484308EB800006EBC000B0FBF5F0D6
:1052800000F0F80007EB4007FEF754FB00EBC0010D
:1052900001EB001061684900B0FBF1F8FEF74AFB32
:1052A00000EBC00101EB001061684900B0FBF1F0B8
:1052B000B0FBF5F06FF01801484308EB800006EBF7
:1052C000C000B0FBF5F0216800F0070038448860AA
:1052D000A1E7FEF71FFB00EBC00101EB00106168C6
:1052E0004900B0FBF1F0B0FBF5F00701FEF712FB4F
:1052F00000EBC00101EB001061684900B0FBF1F860
:10530000FEF708FB00EBC00101EB001061684900EB
:10531000B0FBF1F0B0FBF5F06FF01801484308EB7B
:10532000800006EBC000B0FBF5F000F0F80007EBE2
:105330004007FEF7EFFA00EBC00101EB00106168D7
:105340004900B0FBF1F8FEF7E5FA00EBC00101EB14
:10535000001061684900B0FBF1F0B0FBF5F06FF0B0
:105360001801484308EB800006EBC000B0FBF5F0E5
:10537000216800F00700384488604CE7FEF7CAFA5D
:1053800000EBC00101EB001061688900B0FBF1F790
:10539000FEF7C0FA00EBC00101EB00106168890064
:1053A000B0FBF1F0B0FBF5F06FF01801484307EBEC
:1053B000800006EB0010B0FBF5F000F0F007FEF700
:1053C000A9FA00EBC00101EB001061688900B0FB95
:1053D000F1F0B0FBF5F007EB0017FEF79BFA00EBDE
:1053E000C00101EB001061688900B0FBF1F8FEF725
:1053F00091FA00EBC00101EB001061688900B0FB7D
:10540000F1F0B0FBF5F06FF01801484308EB8000B5
:1054100006EB0010B0FBF5F0216800F00F003844F7
:105420008860F8E600140140001001402DE9F041C9
:1054300004460E4617469846069D1DE0681C1BD084
:105440002DB1FEF73BF9A0EB0800A84214D9206863
:10545000C16821F4D071C1602068416921F0010167
:105460004161202084F8390084F83A00002084F853
:1054700038000320BDE8F0812068006836EA0000AB
:1054800004D00020B842D9D00020F3E70120F9E78A
:10549000044800680168C943890602D44168C9B25A
:1054A0004160704720020020FEE7000070B504460E
:1054B0002CA000F0A3F9D4F8F80102284ED92078E6
:1054C00000282ED0012830D0022832D031A000F0A0
:1054D00095F904F5FE710D4638A000F08FF9611CB6
:1054E0003FA000F08BF947A0D4F8F81100F086F93E
:1054F0004DA12846FAF780FF00281ED055A1284666
:10550000FAF77AFF00281CD05FA12846FAF774FF4B
:1055100000281BD06BA12846FAF76EFF002819D08F
:105520001CE074A000F06AF9D3E77CA000F066F9F3
:10553000CFE784A000F062F9CBE72046FCF7CCFC73
:105540000CE0611C89A000F059F907E02046FCF747
:10555000D3FB03E0611C8EA000F050F9002084F81A
:105560003E0270BD5B44454255475D202A2A2A2AE7
:105570002AE694B6E588B0E8AEA2E99885E79A8471
:10558000E6B688E681AF212A2A2A2A2A2A0A0D0AA3
:10559000000000005B44454255475D204D51545486
:1055A0003E3EE99499E8AFAFE79A84E6B688E68193
:1055B000AFE8B4A8E9878F0A0D0A00005B444542B2
:1055C00055475D204D5154543E3EE6B688E681AFC6
:1055D000E4B8BBE9A298EFBC9A25730A0D0A000053
:1055E0005B44454255475D204D5154543E3EE6B61E
:1055F00088E681AFE7B1BBE5AEB9EFBC9A25730A87
:105600000D0A00005B44454255475D204D515454FE
:105610003E3EE6B688E681AFE995BFE5BAA6EFBCA7
:105620009A25640A0D0A0000247379732F583944AF
:1056300063696F356349302F736D61727464617093
:105640002F7468696E672F70726F70657274792F2E
:1056500073657400247379732F58394463696F3507
:105660006349302F736D6172746461702F7468695F
:105670006E672F70726F70657274792F706F7374AC
:105680002F7265706C790000247379732F58394438
:1056900063696F356349302F736D61727464617033
:1056A0002F7468696E672F70726F70657274792FCE
:1056B000646573697265642F6765742F7265706CB9
:1056C00079000000247379732F58394463696F356A
:1056D0006349302F736D6172746461702F746869EF
:1056E0006E672F6576656E742F706F73742F726599
:1056F000706C79005B44454255475D204D515454D0
:105700003E3EE6B688E681AFE8B4A8E9878FEFBCF5
:105710009A516F53300A0D0A000000005B44454265
:1057200055475D204D5154543E3EE6B688E681AF64
:10573000E8B4A8E9878FEFBC9A516F53310A0D0A7C
:10574000000000005B44454255475D204D515454D4
:105750003E3EE6B688E681AFE8B4A8E9878FEFBCA5
:105760009A516F53320A0D0A000000005B44454213
:1057700055475D2070726F706572747920706F7319
:1057800074207265706C793A2025730A0D0A000046
:105790005B44454255475D206576656E7420706FA9
:1057A0007374207265706C793A2025730A0D0A00B3
:1057B0002DE9F043FDB081460E46174600254FF413
:1057C000FA780223424669464846FFF7D5FA04466E
:1057D000601C04D0E0B24246694609F00BF86D1C2B
:1057E000EDB2B44201D0BD42EBD3B44203D10020AC
:1057F0007DB0BDE8F0834FF0FF30F9E70FB4054B03
:1058000010B503A9044A029800F066F910BC5DF8CF
:1058100014FB000045A40208140200200FB47CB55C
:105820000C0009AD01D0611E00E00021CDE90001AE
:10583000064B6A462946089800F04EF9002C02D023
:10584000009A002111707CBC5DF814FBDF61020836
:105850000FB4084B10B504A902AA039800F03CF954
:10586000044602A9002000F0C5FC204610BC5DF8EB
:1058700014FB0000F561020830B528B1144C031F79
:10588000002021680A4605E0084630BD9A4203D848
:1058900010465268002AF9D1002800D041680BD088
:1058A0000468A3EB0005A54204D11B681C44034611
:1058B000046002E0436000E023603AB11C68D51A3E
:1058C000A54203D115682C441C6052685A6030BD53
:1058D000180200202DE9F04782460F4C10480D4E6B
:1058E0000E4F001B4FF0000820F007054FF0010994
:1058F00000221146504605F0B9FB002802D130685D
:1059000010B10020BDE8F0873C60C4E90058C6F83B
:105910000090EDE71C020020CCE2012018020020DC
:10592000C8E4012002E008C8121F08C1002AFAD109
:1059300070477047002001E001C1121F002AFBD10F
:10594000704700002DE9FF5F82B00021DDE90430DF
:10595000020DDDF840B0034318D044F61050A2F217
:10596000FF3242431514119801281FD0A5EB0B00FC
:10597000401C5FEA000A4FF000064E4FDFF83891F6
:10598000B046504615D5CAF1000413E01198012421
:105990004AA3012801D16FEA0B010298119AC0E9CC
:1059A0000031C0E9024206B0BDE8F09FCBF1000033
:1059B000DFE704460021404A491842EB0450CDE994
:1059C000001012E0E00707D032463B464046494609
:1059D000FBF7AFFB8046894632463B4610461946E8
:1059E000FBF7A7FB06460F466410002CEAD1DDE961
:1059F0000401DDE90023BAF1000F06DAFBF799FB99
:105A000042464B46FBF795FB05E0FAF745FD42465B
:105A10004B46FAF741FD04460E460022284BFAF7A2
:105A200001FE03D84FF0FF30014607E00022254B6E
:105A300020463146FBF7D6FAFBF7EDFB102409E0D0
:105A4000002C0ADB0A220023FAF71EFC039B3032EB
:105A50001A55641E50EA0102F2D1641C039AC4F183
:105A600011031444119A012A03D0012208430DD1D5
:105A70000AE0084304D000204FF0110B119072E7A8
:105A8000A3EB0B056D1E0DE05B4504DD4FF000023E
:105A900005F1010504E003DA4FF00002A5F101056C
:105AA000002AECD002981199C0E90231C0E9004502
:105AB00079E70000000014400000F03F30000000D3
:105AC0000000F0430000E03F30380A2801D20120F6
:105AD00070470020704700002DE9FF4F95B09A46AF
