:020000040802F0
:1000000058E9002059020208E56C02087D02020846
:10001000C16B0208AD1A0208D59C0208000000005E
:10002000000000000000000000000000A101020824
:100030004927020800000000F50102085D9402084B
:1000400073020208730202087302020873020208B4
:100050007302020873020208F529020873020208FB
:100060007302020873020208730202087302020894
:100070007302020873020208730202087302020884
:100080007302020873020208730202087302020874
:100090007302020873020208730202087302020864
:1000A0007302020873020208730202087302020854
:1000B0007302020873020208730202087302020844
:1000C0007302020873020208730202087302020834
:1000D00073020208B99C020873020208D19C02084C
:1000E0007302020873020208730202087302020814
:1000F0007302020873020208730202087302020804
:1001000073020208730202087302020873020208F3
:1001100073020208730202087302020873020208E3
:1001200073020208730202087302020873020208D3
:1001300073020208D1270208730202087302020840
:1001400073020208730202087302020873020208B3
:1001500073020208730202087302020873020208A3
:100160007302020873020208730202087302020893
:100170007302020873020208730202080000000002
:100180007302020873020208DFF810D001F07EF952
:100190000048004715340308AFF3008058E90020F9
:1001A0002A4B19680868B0E8F04F80F30988BFF35C
:1001B0006F8F4FF0000080F311887047000000003F
:1001C00006480068006880F3088862B661B6BFF32D
:1001D0004F8FBFF36F8F00DF00BF00BF08ED00E05F
:1001E000DFF80C00016841F470010160704700BF46
:1001F00088ED00E0EFF30980BFF36F8F134B1A68AF
:100200001EF0100F08BF20ED108A20E9F04F10609B
:1002100008B44FF0500080F31188BFF34F8FBFF345
:100220006F8F1DF01DFF4FF0000080F3118808BC98
:1002300019680868B0E8F04F1EF0100F08BFB0EC66
:10024000108A80F30988BFF36F8F7047B4000020D5
:10025000EFF30580704700000648804706480047D6
:10026000FEE7FEE7FEE7FEE7FEE7FEE7FEE7FEE766
:10027000FEE7FEE7459502088901020870466946D7
:100280000BF0CEFBFFF7FEFF2DE9F05F05460020E7
:1002900092469B4688460646814640241BE02846F7
:1002A00041464746224600F051F853465A46C01A86
:1002B000914110D311461846224600F0CFFA2D1A6C
:1002C00067EB01084F4622460120002100F0C6FAE4
:1002D00017EB00094E41201EA4F10104DFDC484663
:1002E00031462A464346BDE8F09F2DE9F0410024FF
:1002F000061B254671F1000605DA01240027D0EB24
:10030000070067EB0101161E73F1000605DA0027EE
:10031000D2EB0702012567EB0303FFF7B5FF864623
:100320000E4617469C46AC4204D00025D0EB050E85
:1003300065EB010624B10020D2EB000760EB030C53
:10034000704631463A466346BDE8F081202A04DB18
:10035000203A21FA02F00021704721FA02F3D0403E
:10036000C2F1200291400843194670470048704787
:100370004012040810B50446FFF7F8FF0068005D5E
:1003800000F0010010BDA0F14101192900D8203072
:10039000704700000649074A0868504343F2390293
:1003A0001044086040087047014908607047000029
:1003B000700200206D4EC64110B5441A03469442A7
:1003C00009D28418114403E011F8013D04F8013DFD
:1003D000521EF9D210BD40EA0104A40703D009E07F
:1003E00010C9121F10C3042AFAD203E011F8014BFE
:1003F00003F8014B521EF9D210BDD2B201E000F851
:10040000012B491EFBD270470022F6E710B51346B8
:100410000A4604461946FFF7F0FF204610BD30B5E6
:1004200005462A460B4612F8010B13F8014B08B19A
:10043000A042F8D01CB1002802D06D1CF1E728467C
:1004400030BD10B5044604E00B7800F8013B03B161
:10045000491C521EF8D2204610BDCAB2401E10F8E8
:10046000011F8A4202D00029F9D100207047421CA6
:1004700010F8011B0029FBD1801A704710B500222B
:1004800000E0521C835C8C5CA34201D1002BF8D1AC
:10049000D8B2E1B2401A10BD30B504460020034680
:1004A00000E05B1C934203D2E05CCD5C401BF8D0C3
:1004B00030BD034611F8012B00F8012B002AF9D1B9
:1004C0001846704730B505460020034600E05B1C27
:1004D000934205D2EC5CC85C201A01D1002CF6D105
:1004E00030BD00000FB400B58DB010A909900B907D
:1004F00000914FF0FF300A9000200C9005480690C4
:10050000054807906A4609A80F9900F02DFD0DB027
:100510005DF814FB850F0208A30F02082DE9F047D0
:1005200091460F4680460446002614F8015B2DB123
:10053000FFF71CFF0068405DC007F6D12B2D02D0ED
:100540002D2D18D0641E4A463946204600F03AFD4B
:1005500027B13968A14201D1C7F8008071054FF079
:1005600002040BD54042002803DD09F0B3FD04600E
:10057000A007BDE8F08746F48066E4E70028F8DAD3
:1005800009F0A8FD04606FF00040F2E72DE9F05F8C
:1005900093460F4680460446002609F09BFDD0F89E
:1005A0000090824614F8015B2DB1FFF7DFFE006872
:1005B000405DC007F6D12B2D02D02D2D1AD0641E20
:1005C0000021CAF800105A463946204600F0FAFCCD
:1005D000014627B13868A04201D1C7F80080DAF897
:1005E0000000022809D0CAF80090700505D54842DD
:1005F000BDE8F09F46F48066E2E70846F8E770B58C
:10060000064609F067FD046805460A2200213046C7
:10061000FFF784FF2C6070BD2DE9F04D81EA0304E3
:1006200004F0004B21F0004514464FF0000A23F07F
:10063000004150EA050220D054EA01021DD0C5F362
:100640000A570246C5F31303C1F31300C1F30A5658
:1006500040F4801543F48013A7EB0608101BD64620
:1006600008F2FD3873EB050002D308F1010801E040
:1006700092185B41B8F1000F03DA00200146BDE893
:10068000F08D00204FF48011064684460EE0171BC3
:1006900073EB050705D3121B63EB050306434CEA16
:1006A000010C49084FEA300092185B4150EA0107FB
:1006B000EDD152EA030012D082EA040083EA050178
:1006C000084305D0101BAB4106D20122002306E0EF
:1006D00000224FF0004302E06FF0010253101AEBCA
:1006E00006004CEB085110EB0A0041EB0B01BDE892
:1006F000F04D00F03CBD0EB5C10F80EAE07008443B
:10070000CA07002140F233438DE80E000A460B462B
:1007100000F03CFD03B000BD0EB540F23341029144
:100720000021CDE900110A460B4600F02FFD03B071
:1007300000BD70B5C1F30A5201F000450024C1F3B9
:10074000130140F2FF3341F480119A4201DA002094
:1007500070BD40F233439A42A2F2334203DC52426C
:10076000FFF7F4FD00E090402C43F1D0404270BD13
:1007700000F0004230F000400AD0C10D01F5607178
:10078000C0F3160042EA0151C20840071143704706
:10079000002001467047000030B5041E71F10004CE
:1007A00004DB4FF00044404264EB0101141E73F17E
:1007B000000405DB1C464FF00043524263EB040388
:1007C0008B4208BF824230BD30B5041E71F1000477
:1007D00004DB4FF00044404264EB0101141E73F14E
:1007E000000405DB1C464FF00043524263EB040358
:1007F000994208BF904230BD01F0004330B421F06F
:10080000004150EA010206D00A0DA2F56072C1F360
:100810001301002A02DC30BC00207047440F44EA78
:10082000C104C100E01830BC00EBC25000F068BC4D
:1008300030B50B46014600202022012409E021FAB0
:1008400002F59D4205D303FA02F5491B04FA02F5AD
:100850002844151EA2F10102F1DC30BD202A04DB80
:10086000203A00FA02F1002070479140C2F12003C3
:1008700020FA03F31943904070472DE9FF4F1C46BF
:1008800081B00021D4E9016791464FF0FF358A46D7
:100890008846A1696D1C02988847216A834688476B
:1008A0000028F6D1BBF1FF3F0CD026F4C066002F24
:1008B0001ADD700615D5BBF12B0F0AD0BBF12D0F39
:1008C0000FD104E04FF0FF3005B0BDE8F08F46F4E3
:1008D0008066A1696D1C029888477F1E8346002FA1
:1008E00002DDBBF1300F03D0B9F1000F2AD025E0B3
:1008F000A1696D1C46F400767F1E029888478346E6
:10090000002F05DDBBF1780F06D0BBF1580F03D0E7
:10091000B9F1000F10D011E0B9F1000F02D0B9F118
:10092000100F0BD1A1696D1C26F400767F1E029872
:1009300088478346102000E0082081464FEAE9708E
:10094000009017E00A20F8E74346AAFB092803FBBA
:100950000980DDF800C07F1E0AFB0C0112EB0B0AB8
:1009600041EBEB78A16946F4007605F101050298A8
:1009700088478346002F06DD4946584600F0AAFD09
:100980005FEA000BE0D5E16902988847B00502D420
:100990006FF0010098E7F00718D1700610D57005C8
:1009A000514605D50023D1EB030163EB080200E0BB
:1009B00042462068031D23600068C0E9001205E07C
:1009C0002068011D21600068C0E900A828467BE777
:1009D0002DE9FF5F1D464FF0FF3BD5E901469146EB
:1009E0005F464FF00008A9697F1C01988847296A73
:1009F000824688470028F6D1BAF1FF3F0CD024F494
:100A0000C064002E19DD600614D5BAF12B0F09D091
:100A1000BAF12D0F0ED103E0584604B0BDE8F09FA7
:100A200044F48064A9697F1C01988847761E824639
:100A3000002E02DDBAF1300F03D0B9F1000F26D03D
:100A400032E0A969761E44F400747F1C019888473F
:100A50008246002E05DDBAF1780F06D0BAF1580FA4
:100A600003D0B9F1000F10D01EE0B9F1000F02D091
:100A7000B9F1100F18D1A969761E24F400747F1CF7
:100A8000019888478246102002E0082000E00A20F2
:100A9000814609E008FB0908A969761E44F4007440
:100AA0007F1C019888478246002E05DD4946504646
:100AB00000F010FD0028EDDAE96901988847A005EB
:100AC00002D46FF00100A8E7E00725D1600613D536
:100AD000600502D5C8F1000000E0404629680A1D03
:100AE0002A600968220501D5087015E0220701D5A2
:100AF000088011E008600FE02868011D2960006887
:100B0000210502D580F8008006E0210702D5A0F873
:100B1000008001E0C0F8008038467EE72DE9FF5FE5
:100B2000D2E901A74FF00008916999461446DDF813
:100B300038B0464601988847054659EA0B0005D06B
:100B400009E0A169761C019888470546216A284674
:100B500088470028F5D1681C03D05FEACA7005D029
:100B600015E04FF0FF3004B0BDE8F09F2068011D94
:100B70002160D0F800800AE05FEACA7001D108F86D
:100B8000015BA169761C7F1E019888470546002FEE
:100B90001ADD681C18D0B9F1000F0DD0E81705EB6D
:100BA000D060421120F01F0059F822102A1A0120AB
:100BB00090400142E0D107E0BBF1000FDCD1216A97
:100BC000284688470028D7D0E16901988847BBF1BB
:100BD000000F07D1002E05DD5FEACA7002D10021A7
:100BE00088F80010A068B84203DDBBF1000F03D005
:100BF00017B16FF00100B6E73046B4E72DE9FF4FBB
:100C0000087883B09946FF2805D0491C2D2804D0C8
:100C10000024002008E000200BE00124F9E700EBAD
:100C2000800003EB4000491C0B78FF2BF7D104B187
:100C3000404200230293147819461D462D2C01D002
:100C40002B2C04D1521C2D2C13D000240294AA4624
:100C50001478FF2C0FD00A25A3FB057801FB058132
:100C60004FF0000C03FB0C11521CE3194AEB01017D
:100C7000EEE70124EAE7814453EA010002D019F5C6
:100C8000C87F06DA03980021C0E9001107B0BDE86B
:100C9000F08F0025AE4E2F46DFF8B882184600F0E0
:100CA000BFFDCDE90001B9F1000002DAC9F100048D
:100CB00000E004460023A74A1AEB030B42EB045A58
:100CC00012E0E00707D02A4633463846414600F096
:100CD00052FB074688462A4633461046194600F01E
:100CE0004AFB05460E466410002CEAD1DDE90001FE
:100CF000B9F1000F5A46534606DAFFF78DFC3A4623
:100D00004346FFF789FC05E000F035FB3A464346D1
:100D100000F031FB029A0AB181F00041039AC2E966
:100D20000001B3E72DE9FF4F1F468DB0D7E901461B
:100D30004FF0FF382E2045464FF000090B90B9695F
:100D40006D1C0E988847396A824688470028F6D17C
:100D5000BAF1FF3F0AD024F4D064002E11DDBAF1BD
:100D60002B0F08D0BAF12D0F0BD102E0404611B085
:100D70008DE744F48064B9696D1C0E9888478246FB
:100D8000761E6946600501D52D2000E02B208DF8E8
:100D9000000001F1010B0DF1200809E0B9696D1C9B
:100DA0000E98884782460F9844F40074761E0560BA
:100DB000002E02DDBAF1300FF0D00B998A453ED1FA
:100DC00044F0800406E00F99681CA9F1010944F47D
:100DD00000740860B9696D1C761E0E9888478246BB
:100DE0003028F0D02BE00B998A4505D1200603D49A
:100DF00044F08004761E18E0504609F097FA08B3D4
:100E00000DF11301761E44F400748B4508D2AAF14B
:100E100030000BF8010B200607D5A9F1010003E013
:100E2000200602D409F101008146A00502D50F99E0
:100E3000681C0860B9696D1C0E9888478246002EB0
:100E4000D1DC53E0002E51DDBAF1650F02D0BAF1CA
:100E5000450F4BD1A00549D5B9696D1C24F44074E8
:100E6000761E0E9888478246002E0CDD2B2804D073
:100E7000BAF12D0F07D144F48074B9696D1C0E9836
:100E800088478246761EE00501D52D2100E02B2102
:100E900008F8011BCDF82C8021E00DF12901761E08
:100EA00044F4007488450CD2AAF1300010F0FF0021
:100EB00088F8000002D10B99884509D908F101088A
:100EC00006E0E00501D5244801E042F20F708146BA
:100ED000B9696D1C0E98884782460F980560002EF0
:100EE00004DD504609F022FA0028D6D1F9690E989F
:100EF0008847FF208BF8000088F80000002006904B
:100F000007904B466A4608A906A8FFF777FEA0059A
:100F100002D46FF001002AE714F0240F0AD0E00792
:100F200014D1DDE906123868031D3B600068C0E992
:100F300000120BE0DDE90601FFF75EFC0146E00769
:100F400004D13868021D3A600068016028460EE747
:100F5000000014400000F03FF1D8FFFF0268114488
:100F60001378016018467047D16004495161044903
:100F7000116200211161114600F0BABA5D0F02083A
:100F800075030208426842B1016811F8013B23B1C0
:100F9000521EC0E90012184670470121C160881E28
:100FA000704742685AB1C368016843B983688B428D
:100FB00005D0491E521CC0E90012002070474FF0B6
:100FC000FF3070472DE9F05F824600780027154614
:100FD0008B460AF10104B946302801D09DB113E0D7
:100FE00014F8010B0127782803D0582801D045B107
:100FF0000AE00DB1102D07D10027102514F8010BC0
:1010000002E0082500E00A250026B0460EE005FBB8
:10101000080005FB06F1012701EB10461FFA80F8D6
:10102000B6F5803F00D3B94614F8010B294600F00D
:1010300051FA0028EBDABBF1000F05D00FB1641EA6
:1010400000E05446CBF80040B9F1000F06D009F09B
:1010500041F802210160C81EBDE8F09F48EA064041
:10106000FAE700000FB4002300B589B00CA9009185
:101070000B996FF00042CB601E4B06931E4B0793FB
:101080000423CDE901321D4A089202466B46002036
:10109000FFF748FE09B05DF814FB70B586B0064650
:1010A0004FF0FF300091CDE90101002015460C46BC
:1010B00004903246694604A8FFF7D4FF024604981C
:1010C000211825B108B1084600E0204628600498A0
:1010D00000280DD0002A02DD0098884208D0081BA5
:1010E0000094CDE901043246694604A8FFF7BAFF2F
:1010F00006B070BD850F0208A30F02087503020831
:101100000029A8BF7047401C490008BF20F001001B
:10111000704710B4B0FA80FC00FA0CF050EA0104F9
:1011200004BF10BC704749B1CCF1200421FA04F48B
:1011300011FA0CF118BF012121430843A3EB0C0164
:10114000CB1D4FEA00614FEA102042BF002010BCC7
:10115000704700EBC35010440029A4BF10BC704777
:10116000401C490008BF20F0010010BC704710B5BA
:10117000141E73F1000408DA401C41F100019218BA
:101180005B411A4301D120F0010010BD2DE9F04D63
:1011900092469B4611B1B1FA81F202E0B0FA80F2B8
:1011A00020329046FFF75AFB04460F4640EA0A00F9
:1011B00041EA0B0153465A46084313D0114653EAFD
:1011C000010019D0C8F140025046FFF7BFF80546AC
:1011D0000E46504659464246FFF740FB084305D0AD
:1011E000012004E020463946BDE8F08D002005438B
:1011F00046EAE0762C4337430A986305E40AA0EBFD
:1012000008000022FD0A44EA47540A3002D50020B3
:101210000146E9E7010510196941DDE908450019B2
:101220006941BDE8F04DA2E72DE9FE4F804681EA15
:101230000300C00F0C46009021F0004123F0004550
:10124000B8EB0200A94105D24046214690461C4613
:101250000B46024623F00040104347D0270DC7F34A
:101260000A00C3F30A510290401A019040286BDA39
:10127000C3F3130040F4801B0098924620B1002372
:10128000D2EB030A63EB0B0B01985946C0F1400205
:101290005046FFF7E3FA06460D4650465946019A76
:1012A00000F006F910EB08006141002487EA1152B2
:1012B00084EAE7731A4340D0009A62B3019A012A84
:1012C0004FEA075215DC001B61EB02014FF00042B0
:1012D00002EA0752CDE90042001C41F58011324676
:1012E0002B46FFF753FF03B0BDE8F08F4046214681
:1012F000F9E7001B61EB0201001C41F580130018A7
:101300005B412018A2F5001747EB030140EAD570B6
:10131000B6196D4111E06D084FEA360645EAC07511
:101320004FEA0752001B61EB0201001C41F58011DE
:1013300049084FEA30000019514132462B4603B0AC
:10134000BDE8F04FFFF713BF0098012240000023D3
:10135000D0EB020263EBE073009821464FEAE074A1
:10136000B8EB000061EB0401E9E783F000435BE7C1
:1013700081F0004158E72DE9FE4F81EA030404F0B3
:10138000004421F0004100944FF0000B23F0004393
:1013900050EA01045ED052EA03045BD0C3F30A545E
:1013A000C1F30A552C44A4F2F3340194A0FB025477
:1013B000C1F3130141F48011C3F3130343F4801309
:1013C00001FB024400FB034E840A970A44EA81545D
:1013D00047EA8357A4FB076802958D0A05FB07853A
:1013E0004FEA932C04FB0C542705029D4FEA065844
:1013F00047EA1637B5EB08056EEB070C870E920E21
:1014000047EA811742EA8312A7FB0201B6EB0B0100
:1014100064EB00042B0D43EA0C335E1844EB1C50C4
:10142000DA465146E7FB0201C5F313044FEA0B33DA
:1014300043EA14534FEA0432019C43EA0603A4F141
:101440000C040294009CCDE900B4FFF79FFE03B0AA
:10145000BDE8F08F00200146F9E7C1F30A52C1F35D
:10146000130140F2FF3341F480119A4202DA002066
:101470000146704740F233439A42A2F2334202DC03
:101480005242FEF763BFFFF7E9B90000064C074D73
:1014900006E0E06840F0010394E807009847103444
:1014A000AC42F6D3FEF774FE482004087820040806
:1014B000202A06DBCB17203A41FA02F043EAE07318
:1014C00006E041FA02F3D040C2F120029140084305
:1014D000194670473A2800D2303820F02002412ABD
:1014E00001D3A2F13700884201D34FF0FF3070479B
:1014F0002DE9F34F8BB04FF0000801F10C000C46C2
:101500004FF0010B46460DF1080A01906269012176
:1015100001989047051E2DD0252D2CD0216A884793
:10152000C0B16269012101989047216A884700286B
:10153000F7D1411E62690198904700E0761CA169CD
:101540000B988847216A88470028F7D1E1690B98F2
:101550008847DBE7A1690B9888470746A84201D175
:10156000761CD3E7E1690B9888477F1C02D1B8F15C
:10157000000F6FD047E1002762693D463946019868
:1015800090472A2804D162690121019890470125DA
:10159000DFF888926269012101989047A0F130013B
:1015A0000A290AD24F45E5DC07EB870100EB41072A
:1015B000303FDFD445F01005ECE7E90601D46FF0C9
:1015C00000476C280AD04C2814D0682815D06A2807
:1015D0000DD074281CD07A281AD01DE06269012130
:1015E000019890476C2802D045F0040514E045F0BE
:1015F00002050DE045F020050AE06269012101982D
:101600009047682802D045F0080505E045F40065DC
:101610006269012101989047C4E9015765283DD0CE
:1016200019DC58287AD00CDC452837D004DC252872
:1016300026D0412831D131E046282FD047282CD15F
:101640002CE05B2877D0612828D063287CD06428E0
:1016500023D15AE0D1E06F2848D008DC66281DD09D
:1016600067281BD0692821D06E2816D127E0702862
:1016700045D0732868D0752847D078280DD14DE023
:10168000A1690B988847054625283FF469AFE169B1
:101690000B9888476D1C3FF46AAFB4E023466A4656
:1016A0006FF001000B99FFF73DFB9FE045F0400014
:1016B0006060A80723464FF0000236D43EE0E807FA
:1016C0007FF447AF2068011D21600068290501D51E
:1016D00006701BE7290701D5068017E7A90703D580
:1016E000F117C0E9006111E706600FE745F040001F
:1016F0006060A80723464FF0080216D41EE040F6AB
:101700000E0125EA0100606016E045F040006060CF
:10171000A80723464FF00A0207D40FE045F0400027
:101720006060A80708D5234610226FF001000B99CE
:10173000FFF7A3F85AE007E0234610226FF00100FC
:101740000B99FFF745F951E04FF000094F464B4622
:10175000632802D05B2807D041E02079C00601D47D
:101760000120A06001273AE06269012101989047B9
:101770005E2805D14FF001096269494601989047FA
:10178000216939B900210A46534643F82120491CF2
:101790000829FADBB0B3216969B9C11700EBD1623E
:1017A00053110AEB830122F01F02821A01200B68F9
:1017B000904003430B6062690121019890475D28C6
:1017C000E8D1B9F1000F09D00020514651F820208E
:1017D000D24341F82020401C0828F7DB02AB224608
:1017E00000976FF001000B99FFF798F900280CDAC9
:1017F000401C08D1BBF1000F05D04FF0FF300DB0F9
:10180000BDE8F08FFFE74046F9E7E90701D108F1AD
:10181000010806444FF0000B78E60000CCCCCC0C5D
:101820000EB540F2334202920022CDE90022134667
:10183000FFF7ACFC03B000BD30B58C1810F8012BDD
:1018400012F00F0301D110F8013B120906D110F874
:10185000012B03E010F8015B01F8015B5B1EF9D17D
:1018600001E001F8013B521EFBD1A142E6D300206A
:1018700030BD000049494A6822F440324A604A6853
:1018800043681A434A6001684A6822F480724A60D9
:1018900001684A68036942EA03224A6001684A68AB
:1018A00022F040724A6001684A6883681A434A60BD
:1018B00001688A6822F400628A6001688A68C368E5
:1018C0001A438A60816A6FF07062D14214D0016855
:1018D0008A6822F070628A6001688A68836A1A43A3
:1018E0008A6001688A6822F040528A6001688A68CA
:1018F000C36A1A438A6009E001688A6822F070624C
:101900008A6001688A6822F040528A6001688A68A9
:1019100022F002028A6001688A68836942EA43020F
:101920008A60016A89B101684A6842F400624A60CB
:1019300001684A6822F460424A6001684B68426A62
:10194000521E43EA42324A6004E001684A6822F4C7
:1019500000624A600168CA6A22F47002CA620168C1
:10196000CB6A828B521E43EA0252CA6201688A68BD
:1019700022F400728A6001688A68036B42EA43229B
:101980008A6001688A6822F480628A6001688A68D5
:10199000406942EA802088607047000000230140CF
:1019A00010B50B490948086002F0CCFF01F0C0FCFB
:1019B00007F06AFD04F090FA00F09CFDBDE81040CD
:1019C00004A206A107A00AF05DB900000000020809
:1019D00008ED00E056312E302E31000056312E3009
:1019E0002E3000004A49454A49452D4634303700DB
:1019F0001CB51F4801F028FF00F0FEFF1D480168DC
:101A000041F00101016002208DF8000000218DF8F5
:101A100001108DF802108DF803108DF804108DF868
:101A200005101348144A0260012242600182C0F886
:101A300014D08261C161D105016249128160C9106F
:101A4000C16001F0A5FF044614B10CA008F004FB2E
:101A500007490423134AC831054801F0B8FE124A69
:101A60000423A2F58071024801F07AFE20461CBDD5
:101A7000640C002000900240008002405B4445421C
:101A800055475D206574682068617264776172658E
:101A900020696E6974206661696C642E2E2E0A0DB1
:101AA0000A0000007C250020AC0D002004480268DC
:101AB00003481038016803A008F0CEFAFEE70000E2
:101AC00038ED00E05B4641554C545D20427573464D
:101AD00061756C742120434653523D30782530386F
:101AE000582C20424641523D3078253038580D0A56
:101AF000000000000648016841F08071016005485F
:101B000000214160016841F001010160704700005F
:101B1000FCED00E0001000E0014840687047000064
:101B2000001000E001B50021009BA8204343FFF70F
:101B3000F3FF0246FFF7F0FF9042FBD003D9A0EB82
:101B40000202114403E06FEA020202441144024619
:101B50009942EFD308BD00002DE9F843444C00271B
:101B600040F6B836277043A008F076FA40F25B756D
:101B700069464EA012F0CEFE002827D1009800281A
:101B800024D068460EF0D6FF8046424647A14CA0BE
:101B900008F062FA2A46414654A008F05DFA294648
:101BA00040461BF073F96060002816DB5CA008F06B
:101BB00053FA66A008F050FA04F0D0FE002813D0C3
:101BC0006FA008F049FA1BF041F9CBE77AA008F0C2
:101BD00043FA30461CF0B4F8CAE7844808F03CFAEF
:101BE00030461CF0ADF8C3E781A008F035FA0122B9
:101BF00088A1606804F032FE002805DA90A008F0A1
:101C00002BFA1BF023F9ADE7012298A1606804F0DC
:101C100025FE002805DA8AA008F01EFA1BF016F946
:101C2000A0E701229EA1606804F018FE002805DAF2
:101C300083A008F011FA1BF009F993E70122A7A18C
:101C4000606804F00BFE002805DA7DA008F004FAB5
:101C50001BF0FCF886E7AD4808F0FEF90120207083
:101C6000ABA012F089F8AEA008F0F6F9BDE8F88351
:101C7000200000205B44454255475D20312EE5BCE5
:101C800080E5A78BE8BF9EE68EA5E5AFB9E5BA94DF
:101C9000E4BA91E5B9B3E58FB0E79A84E69C8DE5A7
:101CA0008AA1E599A82E2E2E0A0D0A006D71747472
:101CB000732E6865636C6F7564732E636F6D0000BF
:101CC0005B44454255475D20686F7374206E616DBB
:101CD00065203A202573202C20686F73745F69702B
:101CE000203A2025730A0D0A000000005B4445429B
:101CF00055475D20E69C8DE58AA1E599A84950E508
:101D00009CB0E59D803A2025732CE7ABAFE58FA30F
:101D1000E58FB7EFBC9A253064210A0D0A00000058
:101D20005B44454255475D20E8BF9EE68EA5E4BA78
:101D300091E5B9B3E58FB0E69C8DE58AA1E599A858
:101D4000E68890E58A9F210A0D0A00005B4445421F
:101D500055475D20322E4D515454E794A8E688B77C
:101D6000E5908DE4B88EE7A798E992A5E9AA8CE8FA
:101D7000AF81E799BBE999862E2E2E0A0D0A000045
:101D80005B44454255475D204D515454E794A8E6C5
:101D900088B7E5908DE4B88EE7A798E992A5E9AAFF
:101DA0008CE8AF81E799BBE99986E5A4B1E8B4A5D1
:101DB0002E2E2E0A0D0A00005B44454255475D2039
:101DC000444E53E8A7A3E69E90E5A4B1E8B4A52C41
:101DD000E7AD89E5BE8533E7A792E5868DE5B09D41
:101DE000E8AF952E2E2E0A0D0A0000008C12040872
:101DF0005B44454255475D20332EE5BC80E5A78B0B
:101E0000E8AEA2E99885E6B688E681AF2E2E2E0AC6
:101E10000D0A0000247379732F58394463696F35B4
:101E20006349302F736D6172746461702F746869D7
:101E30006E672F70726F70657274792F736574009E
:101E40005B44454255475D20E5AEA2E688B7E7AB67
:101E5000AFE8AEA2E99885E6B688E681AFE5A4B121
:101E6000E8B4A52E2E2E0A0D0A0000002473797303
:101E70002F58394463696F356349302F736D617230
:101E8000746461702F7468696E672F70726F70650B
:101E90007274792F706F73742F7265706C79000093
:101EA000247379732F58394463696F356349302F30
:101EB000736D6172746461702F7468696E672F70DE
:101EC000726F70657274792F646573697265642FBF
:101ED0006765742F7265706C7900000024737973E4
:101EE0002F58394463696F356349302F736D6172C0
:101EF000746461702F7468696E672F6576656E749F
:101F00002F706F73742F7265706C7900D81204088B
:101F10005B226C65645F737769746368225D00009F
:101F20005B44454255475D20342EE5BC80E5A78BD8
:101F3000E5BEAAE78EAFE68EA5E694B6E8AEA2E9C6
:101F40009885E79A84E6B688E681AF2E2E2E0A0D94
:101F50000A00000070B5401C09F04AF90546280047
:101F600014D01EA109F0ECF80446A4B1204609F0F3
:101F70001CF980B1616971B1C8290CD019A008F0B1
:101F80006BF82846BDE8704009F0B6B8BDE870406F
:101F90001EA008F061B827A1284609F0D1F8B8B111
:101FA00026A109F0CDF804467CB1204609F0F2F8EC
:101FB00018B9204609F0F9F838B1606908B1012074
:101FC00000E0002000F058F802E01FA008F044F8FC
:101FD0002846BDE8704009F08FB80000636F646563
:101FE000000000005B44454255475D20646573690D
:101FF0007265642067657420726566757365642C0C
:1020000020636F64653D25640A0D0A005B44454208
:1020100055475D2064657369726564207265706CF4
:1020200079207061727365206661696C65640A0D60
:102030000A00000064617461000000006C65645F68
:1020400073776974636800005B44454255475D20BF
:10205000646573697265642064617461206861738A
:10206000206E6F206C65645F737769746368207697
:10207000616C75650A0D0A0010B504460E48002C07
:1020800006D04FF4000101600CA007F0E5FF04E06A
:10209000802101600FA007F0DFFF0CB113A100E069
:1020A00016A11AA011F06CFF002804D0BDE8104062
:1020B00017A007F0D1BF10BD181402405B44454281
:1020C00055475D20E5BC80E590AF6C6564E781AF66
:1020D0000A0D0A005B44454255475D20E585B3E99A
:1020E00097AD6C6564E781AF0A0D0A007B227377B8
:1020F00069746368223A317D000000007B227377A7
:1021000069746368223A307D000000006C656400E9
:102110005B44454255475D206C6564206576656E7D
:102120007420706F7374206661696C65640A0D0AAF
:102130000000000070B5AAB0401C09F059F806462E
:10214000300012D028A108F0FBFF0546280011D06E
:1021500009F036F870B125A1304608F0F1FF80B1E2
:1021600024A108F0EDFF04460CE025A007F074FF61
:102170002AB070BD304608F0BFFF2AA007F06CFF00
:10218000F6E7002474B1204609F004F818B9204697
:1021900009F00BF830B1606908B1012000E00020BF
:1021A000FFF76AFF27A2A02102A82B6907F064FFAE
:1021B0000446304608F0A0FF002CD9DDA02CD7DA69
:1021C000A0B20090364802AB002228A1406804F07B
:1021D0006AF8002803DA33A007F03EFFC8E702A937
:1021E00039A007F039FFC3E76964000070617261CC
:1021F0006D7300006C65645F7377697463680000D9
:102200005B44454255475D20736574206A736F6E69
:10221000207061727365206661696C65640A0D0ADD
:10222000000000005B44454255475D207365742003
:102230006A736F6E206E6F206964206669656C64D6
:102240000A0D0A007B226964223A222573222C227D
:10225000636F6465223A3230302C226D7367223A04
:102260002273756363657373227D00002473797331
:102270002F58394463696F356349302F736D61722C
:10228000746461702F7468696E672F70726F706507
:102290007274792F7365745F7265706C79000000D9
:1022A000200000205B44454255475D207365745F04
:1022B0007265706C79207075626C697368206661F4
:1022C000696C65640A0D0A005B44454255475D2010
:1022D0007365745F7265706C79207075626C697378
:1022E00068206F6B3A2025730A0D0A000025002430
:1022F00029A007F0B1FE4FF4FA772F4E0CE03846D4
:1023000013F04AF9641C3C2C06D34FF49D722B4900
:102310002BA007F0A1FE06E096F83110C807EED01A
:1023200070680028EBD0354C606A70B134A007F0BB
:1023300093FE4EF66021606A13F002F928B14FF463
:10234000A2721E4938A007F087FE09F047F850B185
:1023500040F24D12194942A007F07EFE4FF4AC74D2
:102360004FF47A760EE049A007F076FEF6E71D46B8
:10237000022B0DD0224611494CA007F06DFE3046CD
:1023800013F00AF909F05CF80346AB42F7D0EEE728
:102390004EA007F061FEF2E75B494E464F5D2057C5
:1023A000616974696E6720666F72206E6574776FFD
:1023B000726B2E2E2E0D0A00E4E10020B8F6030801
:1023C0005B5741524E5D5B25733A25645D204E6537
:1023D00074776F726B206E6F742072656164792000
:1023E000696E203330732C207374617274204D51E8
:1023F000545420616E797761790D0A003400002011
:102400005B494E464F5D2057616974696E6720666F
:102410006F72204E54502074696D652073796E631D
:102420002E2E2E0D0A0000005B5741524E5D5B259B
:10243000733A25645D2057616974204E54502074AE
:10244000696D656F75742C20636F6E6E65637420A3
:102450004D51545420616E797761790D0A00000066
:102460005B4552524F525D5B25733A25645D2043B4
:102470006C6F7564206D616E616765722073746145
:102480007274206661696C65640D0A005B494E4692
:102490004F5D20436C6F7564206D616E616765727E
:1024A00020737461727465640D0A00005B574152B9
:1024B0004E5D5B25733A25645D20436C6F75642027
:1024C00073746174653A2025640D0A005B494E46B9
:1024D0004F5D20436C6F756420636F6E6E6563742F
:1024E000656420284F6E654E4554204D5154542943
:1024F0000D0A000010B50C4C0A4820604FF4E13082
:1025000060600020A060E0602061A0610C2060613C
:10251000204602F0EFFF2068C16841F02001C16051
:1025200010BD000000100140A402002008B50948B9
:10253000016841F010010160006800F01000009097
:1025400000F01CF80122BDE808400821024801F013
:1025500052BF0000303802400010024000B585B084
:102560000820009000200190012002906946024856
:1025700001F058FE05B000BD0010024000B585B066
:102580000820009001200190022003906946024833
:1025900001F048FE05B000BD001002402DE9F047F3
:1025A000002600254FF47A77DFF880904FF001087D
:1025B00009E0641CA4B2BC4202D90020BDE8F08747
:1025C0000120FFF7AFFA0821484601F00DFF00286F
:1025D000EFD03220FFF7A6FA00240821484601F088
:1025E00003FF012813D0C5F1070008FA00F0864365
:1025F0006D1CEDB2082DE6D33046DFE7641CA4B2B3
:10260000BC4201D90020D9E70120FFF78BFA08214D
:10261000484601F0E9FE0128F0D00024C5F107008A
:1026200008FA00F0C0B20643E2E7000000100240E2
:102630002DE9F04704462DED028BFFF79FFF3F4E3B
:1026400000220821304601F0D6FE44F25060FFF728
:1026500069FA01220821304601F0CDFE1E20FFF765
:1026600061FAFFF77BFF0821304601F0BDFE20B183
:102670000020BDEC028BBDE8F087002508E06D1C52
:10268000ADB2642D01D90020F3E70120FFF74AFA2B
:102690000821304601F0A8FE0028F0D0002508E00F
:1026A0006D1CADB2642D01D90020E2E70120FFF7D7
:1026B00039FA0821304601F097FE0128F0D0FFF7E3
:1026C0006DFF2070FFF76AFF6070FFF767FFA07073
:1026D000FFF764FFE070FFF761FF20718146267805
:1026E000657806EBC60000EB061005EB8000FEF7F0
:1026F00013F89FED138B53EC182BFDF78DFFC4E9F6
:10270000020194F80280E77808EBC80000EB08109B
:1027100007EB8000FEF700F853EC182BFDF77CFF69
:10272000C4E90401701908EB07010844C1B28945E6
:1027300001D101209DE700209BE70000001002402E
:102740000000000000005940704701B502E0009809
:10275000401E009000980028F9D108BD006800F5DF
:102760008050816941F0020181617047006800F585
:102770008050816941F400518161704708B5074973
:102780004FF4FA520968B1FBF2F14143009100BFE6
:102790000098411E0091FAD208BD00000000002000
:1027A00038B50446206800F58050816941F48011F5
:1027B0008161206800F58050806900900120FFF75A
:1027C000DDFF2068009900F58050816138BD000070
:1027D00010B55020EFF3118480F31188BFF34F8FB1
:1027E000BFF36F8F024801F092F884F3118810BD97
:1027F000640C00201079537940EA03230748084409
:1028000003641178D37841EA0361937852781B040A
:1028100043EA0222114341647047000000800240F5
:102820002DE9F041AEB00446002904D04FF4006019
:10283000E060C000A06000251195129513951495D5
:1028400015951695E06900287DD017954FF4007016
:10285000189019951A951B951C951D9540271E9744
:102860001F952095219522952395249525952695AC
:1028700080262796289529952A952B952C952D9578
:102880002068026845490A40D4E902131943179B9E
:10289000194341F40071114301602068D0F80080B1
:1028A000012000F04BFF2068C0F8008020684760DE
:1028B00020684768012000F041FF206847602068D9
:1028C00085602068C560206881694FF641721140BB
:1028D00041F08001816120688769012000F02EFFAE
:1028E000206887612068C5612068C769012000F001
:1028F00025FF2068C7610195B0040290039501117E
:1029000004910595069507950895042109910A906B
:1029100040120B9080010C9040120D900E960F9576
:102920001095206800F5805081691D4A11401D4AAC
:102930000A438261206800F580508569012000F01B
:10294000FDFE206800E016E000F5805085612068FB
:10295000154900F580500160206800F58050056839
:10296000012000F0EBFE206800F580500560A069B2
:10297000012804D00AE04FF48060179066E72068D1
:1029800000F58050C169094A1143C16162692EB0E6
:102990002046BDE8F0410021FFF72CBF0F8120FF4A
:1029A000233FDEF8040020028020C1024000010025
:1029B00038B504462068016841F0040101602068D0
:1029C000006800900120FFF7D9FE21680098086098
:1029D00038BD38B504462068016841F0080101603F
:1029E0002068006800900120FFF7C8FE2168009869
:1029F000086038BD7047000010B586B01248016805
:102A000041F480710160006800F480700090012042
:102A1000029003900220049001900C4C01A92046E2
:102A200001F000FC00220221204601F0E4FC052018
:102A300000F084FE01220221204601F0DCFC05208A
:102A400000F07CFE06B010BD30380240002002408D
:102A50000022002905D001291AD002291BD04FF4E9
:102A600040720E490B6823F440730B600B681343EC
:102A70000B600A6822F0F8020A600A68022303EB7E
:102A8000C00002430A60086840F480300860704764
:102A90004FF48072E5E74FF40072E2E7103C024029
:102AA0001348016889050FD5016821F400710160A0
:102AB000016841F400610160016821F40061016076
:102AC000016841F400710160016849050FD5016892
:102AD00021F480610160016841F480510160016866
:102AE00021F480510160016841F480610160704708
:102AF000003C024008490A6822F440720A600A68F1
:102B000042F004020A600A684FF4803343EA00206E
:102B100002430A6070470000103C0240064A1368F6
:102B200023F44073136013681360136843F00103C8
:102B30001360017070470000103C024010B5084956
:102B40000C6824F440740C600C6844F440740C600D
:102B50000C6844F001040C600260436010BD00008A
:102B6000103C0240074A136823F440731360136853
:102B700043F480731360136843F001031360018012
:102B800070470000103C0240074A136823F440736A
:102B90001360136843F400731360136843F0010378
:102BA0001360016070470000103C0240174908683C
:102BB000C206174805D5C26942F01002C261102250
:102BC0000A600A68920605D5C26942F00802C2612D
:102BD00020220A600A68520605D5C26942F0040242
:102BE000C26140220A600A68120605D5C26942F035
:102BF0000202C26180220A600A68920705D5C26992
:102C000042F02002C2610220086070470C3C024082
:102C10008402002070B5044611490020C86101F00B
:102C2000F7FB05460F4E09E0601C07D024B101F008
:102C3000EFFB401BA04201D9032070BD3068C003E8
:102C4000F2D43068C00701D001203060306810F045
:102C5000F20F03D0FFF7AAFF012070BD002070BD66
:102C6000840200200C3C024070B5B3F5804F05D0C3
:102C70006FF0704140F82210002070BD50F82230F3
:102C8000084C2340D1E9004544EA05148D688E893B
:102C90002D0245EA064589692C430C431C4340F844
:102CA0002240E9E70000F0CFF0B50C6850F824505E
:102CB000114A1540D1E90123D1E903671A433E4384
:102CC00032434E6932438E693243CE6932430E6AD3
:102CD00032434E6A32438E6A3243CE6A3243CE6BFF
:102CE000096B32430A432A43082B01D142F04002C8
:102CF00040F824200020F0BD8000F0FF70B5521C89
:102D000050F8223003F04043D1E9004544EA05146D
:102D10008D688E892D0245EA06452C430D8A6D1E6D
:102D200044EA05550C7D8969A41E45EA04640C43F8
:102D30001C4340F82240002070BD00002DE9FC47F4
:102D40006D4E3178012907D06CA007F085F90CF0A1
:102D5000FDFB0420BDE8FC87FF2203E0411C30445A
:102D600031760275307E08B10428F7D3307E6B4F80
:102D7000042819D1307D717DF27D40EA0121B07DBA
:102D8000000440EA02600143B06820F003003844C8
:102D900000F0B6FA30B162A007F05EF90CF0D6FB95
:102DA0000420D7E700213176D6E90121914206D0EF
:102DB00064A007F051F90CF0C9FB0220CAE7F068E3
:102DC0006FEA00084FF0FF35002414E0E01900F02E
:102DD00095FA8DF80400010A8DF80510010C8DF8A4
:102DE0000610000E8DF80700042201A928460CF0F9
:102DF00063FB0546241D7168201D8142E6D2706880
:102E0000A04216D9E01900F079FA84463079001B07
:102E1000C2B2002001AB05E0C4002CFA04F1195441
:102E2000401CC0B29042F7D301A928460CF044FBE5
:102E30000546EA4342451CD041464DA007F00CF937
:102E400036480C3000F05AFA05463448083000F095
:102E500055FA04463148001D00F050FA81463846C4
:102E600000F04CFA014623464A4650A0009507F070
:102E7000F3F8594D284600F0CFF930B157A007F0CC
:102E8000EBF80CF063FB042064E75D4C2846214618
:102E900000F036FA58B950487168001D00F030FA59
:102EA00028B94D484146083000F02AFA30B155A003
:102EB00007F0D2F80CF04AFB04204BE74246584892
:102EC000716807F0C9F8204600F0C4F8642000F0EB
:102ED00035FC022030704FF4FA6000F02FFCBFF395
:102EE0004F8F50490868504A00F4E0601043086072
:102EF000BFF34F8F00BFFDE7240800205B46575506
:102F000050475D2066696E69736820736B69702C29
:102F10002073746174653D25750D0A000000080872
:102F20005B46575550475D2066696E69736820742B
:102F300061696C207772697465206661696C0D0A3D
:102F4000000000005B46575550475D2073697A6565
:102F5000206D69736D617463682C20726563763DC2
:102F600025752C206578706563743D25750D0A0004
:102F70005B46575550475D20726561646261636BC3
:102F800020435243206D69736D617463682C206126
:102F900063633D3078253038582072656164626122
:102FA000636B3D3078253038580D0A005B46575525
:102FB00050475D206261636B757020686561643A9B
:102FC00020253038582025303858202530385820D2
:102FD000253038580D0A0000000001085B4657559F
:102FE00050475D20666C616720736563746F722063
:102FF0006572617365206661696C0D0A00000000EE
:10300000465755505B46575550475D20666C616783
:10301000207772697465206661696C0D0A00000092
:10302000441204080CED00E00400FA050148406871
:1030300070470000240800200148806870470000A5
:103040002408002001480078704700002408002070
:103050000CF07CBA08B508490A6842F080520A6050
:10306000096801F08051009104490A6842F48072B5
:103070000A600349086008BD403802400070004003
:1030800050280040002802D0B0F5C02F01D9002000
:1030900070470649486000208860421ECA60087672
:1030A00003480861012008707047000024080020D0
:1030B000000008080CF04ABA2DE9F05F81460E4680
:1030C000B9F1000F09D046B1DFF8B08098F80000E0
:1030D000012804D00020BDE8F09F0020FBE7D8F8CD
:1030E0000850D8F80400A919814204D9854201D3B7
:1030F0000020F0E7461B0024A2462EE098F81800B6
:1031000019F80420411C404488F81810027598F8FA
:103110001800042820D198F8140098F8151040EAF7
:10312000012B98F8160098F81710000440EA016087
:103130004BEA000B1248284407460CF0D5F920B999
:103140005946384600F0DCF818B188F800A0002095
:10315000C1E72D1D88F818A0641CB442CED33246B6
:103160004946D8F80C000CF0A7F9C8F80C00D8F8BC
:1031700008003044C8F808000120ACE7240800200B
:103180000000080810B524210748FDF73DF9064C5A
:10319000002020700120A07312F0B2F9E061BDE8B8
:1031A00010401BF08BBD0000400800200148007D4E
:1031B000704700004008002006494A78002A06D0DF
:1031C0000A78824203D10020487001207047002015
:1031D000704700001800002070B50546084C607864
:1031E000002801D0002070BD25706170628012F04F
:1031F00087F96060284606F04FFD012070BD000091
:103200001800002006F048BD1CF04CF81CF0FAF83D
:10321000012012F0C1F9F7E710B586B0014600248D
:10322000002005900090084600F018F80290012058
:1032300003900220049000F041FF0749F32008604A
:1032400005A9684600F0A2FE00B1012400F0EEFEE0
:1032500006B0204610BD00000C3C02400146002094
:103260001B4A914203D31B48814201D2012070477F
:103270001948814201D2022070471848814201D288
:10328000032070471648814201D204207047154838
:10329000814201D2052070471348814201D20620A5
:1032A00070471248814201D207207047104881427E
:1032B00001D2082070470F48814201D2092070478F
:1032C0000D48814201D20A2070470B207047000050
:1032D000004000080080000800C00008000001084D
:1032E00000000208000004080000060800000808AA
:1032F00000000A0800000C0800000E080068704773
:1033000070B506460D46002400F0D8FE0749F320AC
:1033100008602A4600233146022000F091FE00B1E9
:10332000012400F083FE204670BD00000C3C0240EA
:1033300008B51948016841F080010160016801F099
:1033400080010091016841F004010160016801F011
:1033500004010091016841F001010160016801F080
:1033600001010091016841F002010160016801F072
:1033700002010091016841F040010160016801F023
:1033800040010091016841F480710160006800F41F
:103390008070009008BD0000303802400249488823
:1033A000421C4A80704700002000002078B50024AD
:1033B000009490F83C20012A19D0012280F83C208A
:1033C0000A680725092A14D90368DE680A3A02EB5D
:1033D00042029540AE43DE600A788B680A3A02EBFF
:1033E000420293400268D5682B43D36011E002206B
:1033F00078BD03681E6902EB42029540AE431E6130
:103400000A788B6802EB42029340026815692B43ED
:1034100013614A681F25072A13D203685E6B521E88
:1034200002EB82029540AE435E630A8893B20A794A
:10343000521E02EB820293400268556B2B4353638A
:1034400028E00D2A13D203681E6BD21F02EB820202
:103450009540AE431E630A8893B20A79D21F02EBED
:10346000820293400268156B2B43136312E00368DA
:10347000DE6A0D3A02EB82029540AE43DE620A88B4
:1034800093B20A790D3A02EB820293400268D56A40
:103490002B43D362174A184B05689D4206D10D682D
:1034A000122D03D1556845F48005556005689D428D
:1034B0001BD10B68102B01D0112B16D1536843F48C
:1034C00000035360096810290FD10C490C4A0968A0
:1034D000B1FBF2F101EB81014900009102E000999A
:1034E000491E009100990029F9D180F83C40002044
:1034F00078BD0000002301400020014000000020B2
:1035000040420F000068C06C704770B5044600264A
:10351000002C03D0206C002510B107E0012070BD05
:10352000656484F83C50204600F019F8206CC00611
:1035300010D4206C20F4885040F002002064204613
:10354000FEF798F96564206C20F0020040F001005D
:10355000206400E0012684F83C50304670BD70477E
:103560002DE9F04104460D46206881684FF00007C0
:1035700049050BD58068C00508D5206C40F02000B7
:10358000206484F83C700120BDE8F08100F040FF29
:1035900006460FE0681C0DD025B100F039FF801BF6
:1035A000A84207D9206C40F00400206484F83C70E5
:1035B0000320E9E7206800688007EBD521686FF0F9
:1035C00012000860206C40F400702064206881685C
:1035D00011F0405F13D1A16989B9C16A11F4700F6C
:1035E00002D0806840050AD4206C20F480702064EA
:1035F000206CC00403D4206C40F001002064002043
:10360000C2E7000018B50022009290F83C10012992
:1036100007D0012180F83C1001688B68DB0702D0DD
:1036200014E0022018BD8B6843F001038B6027492A
:10363000274B0968B1FBF3F101EB4101009102E076
:103640000099491E009100990029F9D101688B6801
:10365000DB0738D0036C40F20164A34343F480736A
:1036600003644B685B0505D5036C23F4005343F4F6
:1036700080530364036CDB0404D5436C23F006031E
:10368000436400E0426480F83C20124A6FF0220359
:103690000B605168C90608D000680F49884212D1F2
:1036A000816811F0405F0AD00DE00068816811F078
:1036B000405F08D1816841F08041816003E081680A
:1036C00041F080418160002018BD00000000002012
:1036D00040420F00002301400020014090F83C10C0
:1036E00001290CD0012180F83C1001688A6822F081
:1036F00001028A6001688968C90702D007E00220D8
:103700007047016C21F4885141F0010101640021EE
:1037100080F83C100020704790F83510022903D043
:103720008021416501207047052180F8351000682F
:10373000016821F0010101600020704770B5044666
:1037400000F066FE0546601C02D004480078044480
:1037500000F05EFE401BA042FAD370BD04000020C2
:10376000F0B5002490F84550012D09D0012780F8CC
:103770004570022580F84450816244F2F45C19E0FF
:103780000220F0BD01EB44154FF000462E60C5F855
:1037900004C0C4EBC41606EB460602EB8606AE6018
:1037A00086695E1EB44203D205F12006EE6000E099
:1037B000E960641C9C42E5D3026802F58052D16046
:1037C00080F84470002180F845100020F0BD2DE9FC
:1037D000F043002590F84540012C0BD04FF0010C30
:1037E00080F845C0022480F84440C1624FF480183C
:1037F0005F1E1CE00220BDE8F08301EB4514C4F815
:103800000080C5EBC51606EB460602EB8606A660F1
:10381000C66926B9266846F44009C4F80090BD423E
:1038200003D204F12006E66000E0E1606D1C9D42D9
:10383000E3D3026802F58052116180F844C0002190
:1038400080F845100020D6E710B50446022084F821
:103850004400204600F0B8F9002004F8440F6070DE
:1038600010BD0000E322024902A006F0F5BB0000F3
:1038700090F403085B4552524F525D5B25733A2525
:10388000645D20657468206572720A0D0A0000008C
:1038900010B590F84510012913D0012380F8453068
:1038A000022180F84410816A0A680024002A29DB7A
:1038B0000A68D20518D5826B521C8263012A02D095
:1038C00002E0022010BD01632830C1600A68C2F323
:1038D0000D42121F4261826892688261C96801606C
:1038E00003774477002010BD0A68920505D501636F
:1038F00044638363C968816204E0826B521C826303
:10390000C968816200F8443F4470012010BD70B561
:103910000446206800F5805041694FF000064906D2
:103920004FF001050CD5204600F026FA2068402112
:1039300000F58050416184F8445084F845600DE002
:103940004069C0070AD0204600F0E1FA206800F57F
:103950008050456184F8445084F8456020684FF4F5
:10396000803100F580504161206800F58050406949
:1039700000040CD52046FFF775FF20684FF4004186
:1039800000F58050416184F8445084F8456070BD72
:103990002DE9FC4704464FF00008CDF80480C146ED
:1039A000002C03D094F8440018B107E00120BDE8D2
:1039B000FC8784F84580204600F038F97848016893
:1039C00041F480410160006800F480400090754837
:1039D000016821F4000101600168226A114301605D
:1039E000206800F58050016841F00101016000F09D
:1039F0000FFD05464FF4FA760AE000F009FD401B82
:103A0000B04205D9032084F8440084F84580CEE70D
:103A1000206800F580500068C007EED1206800697A
:103A200020F01C0501F0ACF85F49604A0144914266
:103A300002D245F0080516E05D495E4A0144914214
:103A400002D245F00C050EE05B495C4A014491420C
:103A500009D35B4908445B49884202D245F004051A
:103A600001E045F01005206805614FF40042002197
:103A7000204600F04DFA012538B101212046FEF71D
:103A8000CFFE84F84450012091E70520FFF756FE51
:103A90006068E0B300F0BCFC074641F2883601AA3A
:103AA0000121204600F026F900F0B2FCC01BB04214
:103AB00009D901212046FEF7B3FE84F8445084F86A
:103AC0004580032073E701984007E8D54FF4805202
:103AD0000021204600F01CFA38B101212046FEF7F3
:103AE0009FFE84F84450012061E700F091FC0746F6
:103AF00001AA0121204600F0FDF800F089FCC01B5E
:103B0000B0420BD901212046FEF78AFE00E028E0F2
:103B100084F8445084F84580032048E701988006E3
:103B2000E6D501AA1F21204600F0E4F838B10121B2
:103B30002046FEF775FE84F84450012037E70198CF
:103B4000C10603D54FF40061E16001E0C4F80C80C8
:103B5000400702D5C4F808801AE04FF48040A06006
:103B600016E0E0680021C0F3CF02A068C0F34F0068
:103B70000243204600F0CCF938B101212046FEF77F
:103B80004FFE84F84450012011E70520FFF7D6FDD1
:103B900049462046FEF744FE84F84450002006E7DC
:103BA000443802400438014000D3CEFEC0E1E400B6
:103BB00040F1E9FD40787D0100796CFC005A620219
:103BC000001F0AFA80F0FA0210B500681249884214
:103BD00021D11248016821F080610160016821F063
:103BE00000610160016821F00071016032210C4820
:103BF00000F07AFA86210B4800F076FA0A4C4FF46E
:103C00000061204600F070FA2046BDE810404FF4F5
:103C1000C04100F069BA10BD008002403038024057
:103C20000008024000000240001802402DE9F04167
:103C300086B000682A4988424ED132200190022481
:103C4000029400250395032604960B27059701A9E6
:103C5000244800F0E7FA8620019002940395049628
:103C6000059701A9204800F0DDFAA0020190029416
:103C7000039504960597DFF8748001A9404600F08B
:103C8000D1FA70030190029403950496059701A957
:103C9000404600F0C7FA002206213D2000F096FEC3
:103CA0003D2000F088FE1248016841F0007101607B
:103CB000016801F000710091016841F080610160CC
:103CC000016801F080610091016841F000610160CC
:103CD000006800F00060009006B0BDE8F0810000D0
:103CE000008002400008024000000240001802402C
:103CF000303802402DE9F0470446914694F84400DC
:103D000082281DD0822084F844002068026902F0D5
:103D10001C03228A4FF6FF7505EAC2221A434FF4AC
:103D2000F86303EA8111114321F0020141F001051A
:103D3000056100F06DFB064601274FF480380FE067
:103D40000220BDE8F08700F063FB801B404505D3EF
:103D500004F8447F002060700320F2E720680569C2
:103D6000E807F0D12068406980B2C9F8000084F803
:103D700044700020E5E7000008B50C48016881F0B8
:103D800080010160002000900948694600681AF02F
:103D9000EFFC0098002807D006494FF080500860DB
:103DA000BFF34F8FBFF36F8F08BD000014140240A4
:103DB0001002002004ED00E070B5044694F84500C0
:103DC000012819D0012584F84550022084F84400C8
:103DD0002046FEF7FEFD2046FEF7EAFD2046FEF7F0
:103DE000DFFC2046FEF7C2FC2046FEF7B7FC04F8D5
:103DF000445F0020607070BD022070BDF0B50023EC
:103E000090F84520012A11D0012780F84570022240
:103E100080F84420002659B1C46A2268002A0CDACE
:103E2000122100F8441F46700120F0BD0220F0BDB1
:103E300000F8447F46700120F0BD40F2F455A942DD
:103E40000AD9B1FBF5F2B1FBF5FC05FB1C1CBCF17A
:103E5000000F02D0521C00E00122012A44D1226846
:103E600042F040522260C26AC1F30C015160C16A43
:103E70000A6842F000420A60C16AC968C16235E05E
:103E8000C46AD4F800C02CF0405CC4F800C033B958
:103E9000C46AD4F800C04CF0805CC4F800C0C46AA6
:103EA0006560541EA34214D1C46AD4F800C04CF01B
:103EB000005CC4F800C0C2F10104C4EBC41404EBFC
:103EC000440401EB8404D0F82CC0C4F30C04CCF8F7
:103ED0000440C46AD4F800C04CF0004CC4F800C0E0
:103EE000C46AE468C4625B1C9342C9D3016801F5EB
:103EF00080514A69520705D504224A61016801F5DB
:103F000080514E6000F8447F46700020F0BD70473D
:103F10002DE9F041044694F84400422820D0422084
:103F200084F844002068036903F01C03258A4FF6D7
:103F3000FF7606EAC5251D434FF4F86303EA8111B5
:103F4000294341F0020141F0010591B2416120682D
:103F5000056100F05DFA064601274FF480380FE056
:103F60000220BDE8F08100F053FA801B404505D3E4
:103F700004F8447F002060700320F2E720680569A0
:103F8000E807F0D184F84470EBE700002DE9F04732
:103F900004460E46DFF88C8098F8180001280BD0F4
:103FA000012088F818004CF250394846FEF732FEDE
:103FB0000246100003D02FE00220BDE8F0874FF04A
:103FC000FF3030602068184F012801D0A5681CE040
:103FD000207C6168FEF78EFD4846FEF71BFE024618
:103FE000386820F00400386014E0217C2846FEF791
:103FF0002FFD4846FEF70EFE0246386820F0FA0014
:1040000038600AB1356005E06D1CD4E9021008443F
:10401000A842EAD8FEF744FD002088F818001046B0
:10402000CBE7000084020020103C024003480168F6
:1040300041F000410160002070470000103C024048
:104040002DE9F0470646894614461D46194F387E2D
:10405000012808D0012038764CF250384046FEF74F
:10406000D9FD18B114E00220BDE8F0879EB1012E01
:1040700016D0022E19D022462B464846FEF75EFD8A
:104080004046FEF7C7FD0C490A6822F001020A60AB
:1040900000213976E8E7E1B24846FEF73FFDEFE759
:1040A000A1B24846FEF75EFDEAE721464846FEF724
:1040B0006BFDE5E784020020103C02400020074928
:1040C0000A68002A09DA054A054B0C3A1360054BC9
:1040D00013600968002900DA01207047103C024093
:1040E00023016745AB89EFCD2DE9F04F0023DFF8C1
:1040F0000C814FF0010C0F270CFA03F201EA0204C5
:10410000944275D106684FEA4309032505FA09F57B
:10411000AE430660DE0800EB8609D9F820A05E07F2
:104120004FEAD66B07FA0BFB2AEA0B0A3E46C9F8A0
:1041300020A0D0F8089029EA0509C0F80890D0F826
:10414000049029EA0209C0F80490C268AA43C26038
:1041500023F0030202EB0805D5F808284FEA83791B
:104160004FEA197906FA09F606EA020A244A904249
:1041700001D1002223E0234A904201D101221EE016
:10418000214A904201D1022219E0204A904201D1F5
:10419000032214E01E4A904201D104220FE01D4A7E
:1041A000904201D105220AE01B4A904201D1062229
:1041B00005E01A4A904201D1072200E0082202FAE3
:1041C00009F2524514D1D5F80828B243C5F8082899
:1041D000134A1568A5431560121D1568A54315609F
:1041E000121D1568A5431560121D1568A5431560BD
:1041F0005B1C102B80D3BDE8F08F00000030014025
:10420000000002400004024000080240000C02408E
:10421000001002400014024000180240001C02403E
:10422000003C01402DE9F84F0022DFF89091DFF8C3
:104230008C8109F108094FF0010E4FF00F0C09F1C4
:10424000040A0EFA02F60B683340B34271D14C688F
:10425000022C01D0122C11D1D40800EB84073D6A46
:104260005407E40E0CFA04FB25EA0B05D1F810B054
:104270000BFA04FB4BEA050BC7F820B007685400A3
:104280000325A540AF4391F804B00BF0030B0BFAE4
:1042900004FB4BEA070BC0F800B04F68012F05D0B4
:1042A000022F03D0112F01D0122F11D18768AF43F5
:1042B000D1F80CB00BFA04FB4BEA070BC0F808B0BE
:1042C0004768B7430E79C6F3001696403E434660F2
:1042D000C668AE438D68A5403543C5604C68E400B0
:1042E00065D5374C256845F480452560246804F47D
:1042F00080440094334C22F003052544D5F8087817
:104300009407260F0CFA06F4A7432F4CA04201D1C4
:10431000002424E02D4CA04201D101241FE02C4CAC
:10432000A04201D102241AE02A4CA04202D1032467
:1043300015E03CE0284CA04201D104240FE0274CBA
:10434000A04201D105240AE0254CA04201D1062457
:1043500005E0244CA04201D1072400E00824B44029
:104360003C43C5F80848D8F800409C434D68ED032D
:1043700000D51C43C8F80040104D2D1D2C689C43EF
:104380004E68B60300D51C432C60D9F800409C430E
:104390004D68ED0200D51C43C9F80040DAF8004032
:1043A0009C434D68AD0200D51C43CAF80040521C26
:1043B000102AFFF446AFBDE8F88F0000003C014032
:1043C0004438024000300140000002400004024036
:1043D00000080240000C024000100240001402409D
:1043E00000180240001C02400069084201D0012070
:1043F000704700207047002A01D08161704709048E
:104400008161704701480068000C7047002004E09B
:1044100001488068704700000400002070B5044621
:10442000002C04D094F83D00002510B106E00120D6
:1044300070BD84F83C50204600F07AFA242084F8BD
:104440003D002068016821F00101016000F09EFB41
:104450003349B0FBF1F122685160324A63689342FC
:1044600001D8491C07E04FF4967359434FF47A730F
:10447000B1FBF3F1491C23681962616891420BD8C2
:104480004900B0FBF1F2C2F30B02042A01D204206E
:1044900019E0B0FBF1F016E0A2689AB301EBC1039A
:1044A00003EB0113B0FBF3F343F480431B0530D05F
:1044B0004AB301EBC10202EB0111B0FBF1F040F491
:1044C000804040F400402168C861D4E907010843F6
:1044D00021680860D4E90310084321688860D4E9A2
:1044E000050108432168C8602068016841F00101A6
:1044F00001602564202084F83D00256384F83E5047
:10450000002070BD00E006E001EB4103B0FBF3F3D7
:10451000CCE70120D7E701EB4101B0FBF1F0D0E798
:1045200040420F00A08601002DE9FF4F83B00446F2
:10453000DDE911988A469346109FFFF769FF05460B
:1045400094F83D00202803D0022007B0BDE8F08F8A
:10455000192301229B492046009501F0E7F908B193
:104560000220F2E794F83C00012807D0012084F8EB
:104570003C0020680168C90702D005E00220E4E79A
:10458000016841F0010101602068016821F40061C7
:104590000160222084F83D00402084F83E0000267F
:1045A00026646762A4F82A908748E062608D2085BF
:1045B000CDE900855A4651462046069B01F08AF80F
:1045C00050B1206C042803D084F83C600320BCE781
:1045D00084F83C600120B8E7208D48B1012810D054
:1045E00002281CD02068416980690290774FDDE085
:1045F0002068416981690291016841F4007101609C
:10460000F4E72068016821F4806101602068416955
:1046100081690291016841F400710160E6E7206858
:10462000016821F4806101602068016841F4006143
:1046300001602068416980690290D7E703287DD82E
:1046400001280BD0022823D04346002239462046B9
:10465000009501F06BF9E8B3032076E72A4641465E
:10466000204601F0E7F930B1206C202801D001206C
:104670006BE7032069E720680169606A421C626297
:104680000170208D401E2085608D401E60858DE06C
:104690004346002239462046009501F047F908B10B
:1046A000032052E72068016841F40071016020682E
:1046B0000169606A421C62620170208D401E208583
:1046C000608D401E608520680169606A421C6262DC
:1046D000017000E006E0208D401E2085608D401EA8
:1046E000608563E02068016821F4806101602068D2
:1046F0000169606A421C62620170208D401E208543
:10470000608D401E60854346002239462046009554
:1047100001F00CF908B1032017E72068016841F4A3
:104720000071016020680169606A421C6262017068
:10473000208D401E2085608D401E00E00DE06085CC
:1047400020680169606A421C62620170208D401E0F
:104750002085608D401E608528E02A46414620461F
:1047600001F068F930B1206C202801D00120ECE67E
:104770000320EAE620680169606A421C62620170F7
:10478000208D401E2085608D401E60852068416917
:10479000C94349070AD40169606A421C6262017018
:1047A000208D401E2085608D401E6085208D002854
:1047B0007FF444AF20203C346070A6702670002047
:1047C000C3E60000020010000000FFFF040001002B
:1047D0002DE9FF4F83B00446DDE910898A469346F0
:1047E000129FFFF715FE054694F83D00202803D0E0
:1047F000022007B0BDE8F08F192301224A49204664
:10480000009501F093F808B10220F2E794F83C001B
:10481000012807D0012084F83C0020680168C907FE
:1048200002D005E00220E4E7016841F001010160E7
:104830002068016821F400610160212084F83D00B6
:10484000402084F83E0000262664C4F82480A4F8A2
:104850002A903648E062608D2085CDE900755A4681
:1048600051462046069B00F0D7FFD0B3206C0428A9
:1048700003D084F83C600320BBE784F83C6001204F
:10488000B7E72A463946204601F005F958B1206CB1
:10489000042801D00320ACE72068016841F40071CE
:1048A00001600120A5E7606A411C6162216800780F
:1048B0000861208D401E80B22085618D491E618572
:1048C00023685969C94349070BD450B1606A411C38
:1048D000616200781861208D401E2085608D401E29
:1048E0006085208D0028CCD12A463946204600F02C
:1048F000F7FF58B1206C042801D0032079E7206825
:10490000016841F400710160012072E71F3454F81E
:104910001F0C016841F4007101602020A077E67748
:104920006677002065E70000020010000000FFFF2E
:104930007047000002488168027811448160704726
:104940000400002010B50948016841F400710160BD
:10495000016841F480610160032000F057F80F20E6
:1049600000F006F800F026F8002010BD003C0240E0
:1049700070B504460D4D4FF47A712878B1FBF0F014
:104980000B490968B1FBF0F000F017FD08B10120F8
:1049900070BD102C07D200222146501E00F016F8E0
:1049A0006C60002070BD012070BD0000040000207C
:1049B00000000020704700F01F02012191404009D3
:1049C000800000F1E020C0F800117047F0B40D46FF
:1049D0000D4B1B68C3F30223C3F10704042C00D959
:1049E0000424191D072901D2002300E0DB1E012643
:1049F00006FA04F1491E294099409E40761E164051
:104A00003143F0BC04F004B90CED00E000F0070104
:104A1000054A10684FF6FF03184040EA0120034999
:104A200008431060704700000CED00E00000FA053C
:104A3000014901200862704700000E422DE9F0474D
:104A400004460D46002C13D0DFF82491D9F800005D
:104A5000EFB200F00F00A8420CD289F80070D9F82C
:104A6000000000F00F00A84204D00120BDE8F0874C
:104A70000120FBE720683F4E810712D5400703D590
:104A8000306840F4E05030602078000703D530688B
:104A900040F4604030603068A16820F0F0000843C6
:104AA00030602078C00731D0324960680839012869
:104AB00008D002280BD0032809D0096889070BD435
:104AC0000120D3E70968890306D40120CEE70968ED
:104AD000890101D40120C9E7316821F003010143B4
:104AE0003160FFF795FC804641F2883A07E0FFF716
:104AF0008FFCA0EB0800504501D90320B6E73068D1
:104B0000616800F00C00B0EB810FF0D1D9F8000023
:104B100000F00F00A84209D989F80070D9F8000008
:104B200000F00F00A84201D001209FE72078400745
:104B300005D53068E16820F4E05008433060207803
:104B4000000706D53068216920F4604040EAC100C2
:104B5000306000F03BF83168074AC1F30311515C43
:104B6000C840064908600F20FFF702FF00207DE7DC
:104B7000003C02400838024078F40308000000209E
:104B800001480068704700000000002000B5FFF7F2
:104B9000F7FF04490968044AC1F38221515CC84007
:104BA00000BD00000838024088F4030800B5FFF794
:104BB000E7FF04490968044AC1F34231515CC84027
:104BC00000BD00000838024088F4030810B51748FB
:104BD000006810F00C01164816D0164B042912D0AC
:104BE000082911D1114C241F216801F03F022168CE
:104BF00049020AD52068C0F38810A0FB03010023F6
:104C0000FBF742FB09E0184610BD21680023C1F301
:104C10008811A1FB0001FBF737FB2168C1F30141BB
:104C2000491C4900B0FBF1F010BD000008380240FB
:104C30000024F40040787D012DE9F84F0446002C53
:104C400010D02078DC4DC00757D0DB480830016811
:104C5000C1F3810101290DD00068C0F38100022851
:104C600003D00EE00120BDE8F88FD348001D006896
:104C7000400206D5286880033FD5606870BB0120DC
:104C8000F1E76068B0F5803F10D0B0F5A02F12D0EA
:104C9000286820F480302860286820F4802028606C
:104CA0006068E0B1FFF7B4FB064614E0286840F402
:104CB00080302860F4E7286840F480202860286865
:104CC00040F480302860EBE7FFF7A2FB801B6428EC
:104CD00001D90320C7E728688003F5D50DE0FFF769
:104CE00097FB064606E0FFF793FB801B642801D97B
:104CF0000320B8E728688003F5D42078AF4F8007F9
:104D00004FF0000849D5AC480830016811F00C0F8D
:104D100009D00068C0F38100022814D1A648001D04
:104D2000006840020FD42868800704D5E068012895
:104D300001D0012097E72868216920F0F80040EAB7
:104D4000C100286029E0E068B8B101203860FFF7B1
:104D50005FFB064606E0FFF75BFB801B022801D9DC
:104D6000032080E728688007F5D52868216920F0AE
:104D7000F80040EAC10028600FE0C7F80080FFF7A4
:104D800047FB064606E0FFF743FB801B022801D9DC
:104D9000032068E728688007F5D42078000729D524
:104DA000DFF814928648616909F1740989B101211B
:104DB0000160FFF72DFB064606E0FFF729FB801B8D
:104DC000022801D903204EE7D9F800008007F4D566
:104DD00010E0C0F80080FFF71BFB064606E0FFF777
:104DE00017FB801B022801D903203CE7D9F80000FB
:104DF0008007F4D42078400772D50026DFF8B8A1E8
:104E00000AF1400ADAF80000C0000BD4DAF800001A
:104E100040F08050CAF80000DAF8000000F080503E
:104E200000900126DFF89CB1DBF80000C00515D426
:104E3000DBF8000040F48070CBF80000FFF7E8FAE0
:104E4000814607E0FFF7E4FAA0EB0900022801D948
:104E5000032008E7DBF80000C005F3D5DFF858B100
:104E6000A0680BF1700B012813D0052818D0DBF8CF
:104E7000000020F00100CBF80000DBF8000020F07B
:104E80000400CBF80000A06830B3FFF7C1FA8146F8
:104E90001DE0DBF8000040F00100CBF80000F2E775
:104EA000DBF8000040F00400CBF80000DBF8000065
:104EB00040F00100CBF80000E5E7FFF7A9FAA0EB0E
:104EC000090141F28830814201D90320CBE6DBF8A9
:104ED00000008007F1D512E0FFF79AFA81460AE058
:104EE00015E0FFF795FAA0EB090141F28830814205
:104EF00001D90320B7E6DBF800008007F1D4012ECA
:104F000005D1DAF8000020F08050CAF80000A0694E
:104F1000C0B3294908310968C1F38101022949D088
:104F2000022805D0C7F86080FFF772FA04463CE01B
:104F3000C7F86080FFF76CFA064606E0FFF768FAEC
:104F4000801B022801D903208DE628688001F5D452
:104F5000D4E907010843616AA26A4FF0FF3389016F
:104F600003EB520241EA0241084394F82C1040EA54
:104F700001611148001D016001203866FFF748FA01
:104F8000044607E014E0FFF743FA001B022801D9AA
:104F9000032068E628688001F5D509E0FFF738FAB4
:104FA000001B022801D903205DE628688001F5D4A2
:104FB000002058E6012056E6003802400000474233
:104FC000800E4742007000400068503000EB8100C6
:104FD000006870470068503000EB81000260704745
:104FE00010B50B46006841680D480140080CD870A8
:104FF000C1F304245C7001F03F049C70C1F34231A2
:105000001970002A0AD104F0AFF8D870587804F06B
:10501000ABF85870987804F0A7F89870002010BD8D
:105020003FFFFF0010B50B460168896A59600168AF
:105030000969C1F30E019960006801680E480140DA
:10504000C1F305401870C1F306245C7001F07F04C1
:105050009C7001F48001090CD970002A0AD104F077
:1050600083F81870587804F07FF85870987804F036
:105070007BF89870002010BD7F7F7F0070B50446DC
:10508000002C02D0607F10B106E0012070BD00202E
:105090002077204600F04EF8022060772168CA2071
:1050A0004862216853204862204604F071F8FF25C9
:1050B000042620B1206845626677012070BD206813
:1050C00081681B4A114081602068816862681143D1
:1050D000D4E904231A43114381602168E068086120
:1050E00020680169228941EA024101612068C168A2
:1050F00021F08001C16020688068800608D42046C5
:1051000000F006F920B1206845626677012070BD85
:105110002068016C21F4802101642068016CA2697F
:10512000114301642068456201206077002070BD52
:10513000BFFF8FFF704700002DE9F04704460B4684
:10514000207F012807D04FF0010884F81C8002203E
:1051500060771AB109E00220BDE8F0875878C106EF
:1051600003D500F0EF000A305870F2B19878D97882
:1051700040EA014558781978000240EA4130054379
:105180002168CA204862216853204862204603F003
:10519000FFFF0026FF274FF00409B8B120684762DF
:1051A00084F81D9026770120D6E7D87803F0E5FF34
:1051B0000204587803F0E1FF42EA0022987803F0F5
:1051C000DCFF0243187842EA4035D9E70F48054032
:1051D000206845602068C16821F08001C1602068B6
:1051E000806880060AD4204600F092F830B120682A
:1051F000476284F81D9026770120ADE7206847625A
:1052000084F81D8026770020A6E700003FFFFF00FE
:105210002DE9F04704460D46207F01280FD04FF0BE
:10522000010984F81C9002206077002652B12068A2
:10523000806840061CD5287803F096FF19E002200C
:10524000BDE8F08720688068400600D4EE702878BA
:1052500003F093FF0204687803F08FFF42EA002214
:10526000A87803F08AFF0243E87842EA00470AE0A0
:10527000EE70A878297840EA01476878E97800025A
:1052800040EA014007432168CA2048622168532050
:105290004862204603F07CFF4FF0FF084FF0040AFD
:1052A00038B12068C0F8248084F81DA0267701203A
:1052B000C6E716480740206807602068816821F427
:1052C00080218160D5E90310014320688268114381
:1052D00081602068C16821F08001C1602068806819
:1052E00080060BD4204600F013F838B12068C0F8CF
:1052F000248084F81DA026770120A1E72068C0F84B
:10530000248084F81D902677002099E77F7F7F0016
:1053100070B505462868C16821F0A001C160FFF79B
:1053200077F804464FF47A7606E0FFF771F8001B31
:10533000B04201D9032070BD2868C0688006F4D54A
:10534000002070BD70B504460E461546002C03D0F3
:1053500094F8490010B107E0012070BD002084F8E6
:105360004800204600F01AF804F108012068FDF713
:105370009BFC3146A2682068FDF7C0FCD4E901021D
:105380002946236BFDF770FCA168206850F82120A6
:1053900042F0010240F82120002070BD70474FF01C
:1053A000E021042804D0086920F004000861704757
:1053B000086940F004000861704710B5401EB0F164
:1053C000807F01D3012010BD4FF0E02460610F21E8
:1053D000601703F01DFC0020A06107202061002061
:1053E00010BD704770B5044622681068D1685269D4
:1053F00000F00F03002B08D1850606D58D0604D5D5
:105400002046BDE8704004F060B9002B5ED002F089
:10541000010301F490752B4358D0C30705D0CB0589
:1054200003D5E36B43F00103E363430705D5D307DB
:1054300003D0E36B43F00203E363830705D5D3078F
:1054400003D0E36B43F00403E363030705D5D207FE
:1054500003D0E26B42F00802E263E26B002A2AD03A
:10546000800604D5880602D5204604F02EF920686F
:105470004069C0F38010E16B090700D400B32046F7
:1054800004F008F920684169490615D5416921F001
:1054900040014161606B58B115490165606BFEF7D1
:1054A0003BF9002807D0606B016DBDE870400847EC
:1054B0002046FFF796FF70BD2046FFF792FF70BDB4
:1054C0002046FFF78EFF0020E06370BD020606D580
:1054D0000A0604D52046BDE8704004F0C9BA40066B
:1054E000F3D54806F1D52046BDE8704004F0E0B899
:1054F0008596020870B50446002C04D094F8390053
:10550000002510B106E0012070BD84F83850204617
:1055100000F022F8242084F839002068C16821F4C2
:105520000051C160204604F019F92068016921F496
:10553000904101612068416921F02A0141612068A0
:10554000C16841F40051C160E563202084F839004E
:1055500084F83A00002070BD30B587B01D4801685E
:1055600041F010010160006800F01000019019483E
:105570001438016841F001010160016801F0010186
:105580000191016841F001010160006800F0010033
:1055900001904FF4007002900220039001200490CB
:1055A00003200590072406940B4D02A92846FEF718
:1055B00039FE29150291069402A92846FEF732FE0B
:1055C000012200212520FFF701FA2520FFF7F3F93A
:1055D00007B030BD443802400000024070472DE95A
:1055E000F84304460D4691461E4694F8390020289B
:1055F00002D00220BDE8F883B5B1B9F1000F13D095
:1056000094F83800012811D0012084F838000027D0
:10561000E763212084F83900FEF7FAFE8046A4F8FB
:105620002490A4F826902DE00120E3E70220E1E792
:10563000E08C401EE084A068B0F5805F09D043464E
:10564000002280212046009604F045FAB0B10320E4
:10565000D0E74346002280212046009604F03BFA22
:1056600008B10320C6E728882168C0F30800486015
:10567000206908B16D1C05E0AD1C03E0216815F838
:10568000010B4860E08C0028D2D143460022402123
:105690002046009604F01FFA08B10320AAE7202054
:1056A0003834607027700020A4E7704701684A69A9
:1056B000D24352050CD46FF480624A610421303029
:1056C00001610021016020224273017301207047B3
:1056D000002070472DE9F84F0446DDE90AB60F4671
:1056E00090461D462068016841F480610160206891
:1056F000016841F4807101604FF001195B4600229E
:1057000049462046009600F011F910B10320BDE88B
:10571000F88F216807F0FE000861DFF8F8A0334633
:105720005A465146204600F03BF930B1206C04281F
:1057300001D00320EBE70120E9E720684169806997
:10574000009032465946204600F0A5F958B1206C29
:10575000042801D00320DAE72068016841F40071D1
:1057600001600120D3E7284608F0FF0501280ED08C
:1057700021684FEA1820086132465946204600F059
:105780008AF970B1206C042804D00320BFE7206898
:10579000056108E02068016841F4007101600120A2
:1057A000B5E72068056132465946204600F073F996
:1057B00058B1206C042801D00320A8E720680168B4
:1057C00041F4007101600120A1E72068016841F403
:1057D000807101605B46002249462046009600F039
:1057E000A5F808B1032092E72168F8B240F0010063
:1057F000086133465A465146204600F0D1F830B190
:10580000206C042801D0032081E701207FE70020DD
:105810007DE70000020001002DE9F8430446DDE9C0
:1058200008970D46164698462068016841F4807135
:1058300001604B4600224FF001112046009700F016
:1058400075F810B10320BDE8F883216805F0FE006B
:1058500008613B464A462149204600F0A1F830B194
:10586000206C042801D00320EDE70120EBE720683D
:105870004169806900903A464946204600F00BF99C
:1058800058B1206C042801D00320DCE720680168AF
:1058900041F4007101600120D5E7F5B2B8F1010FC4
:1058A0000DD02168300A08613A464946204600F08A
:1058B000F2F870B1206C042804D00320C3E72068FC
:1058C000056108E02068016841F400710160012071
:1058D000B9E7206805610020B5E70000020001007B
:1058E00070B504460D46164619E02046FFF7DEFE69
:1058F00008B1012070BD681C11D025B1FEF788FDEC
:10590000801BA8420BD93034206940F02000206170
:1059100000202060202161732073032070BD206867
:105920004069C0434007E0D4002070BD2DE9F04736
:105930000546DDF820A00F4691461E46C7F30748EE
:1059400012E0701C10D02EB1FEF762FDA0EB0A0031
:10595000B04209D9002045F8300F20216973A8739F
:1059600028730320BDE8F087B8F1010F0BD0286839
:10597000806927EA00000004000C0FD000244C4589
:10598000DFD00020EEE72868406927EA0000000425
:10599000000C01D00024F2E70124F0E70124EEE737
:1059A0002DE9F04704460E46154698464FF000098B
:1059B0004FF0200AC6F3074729E020684069C0433A
:1059C000400513D42068016841F40071016021682A
:1059D0006FF48060486104202064C4F8309084F83B
:1059E0003DA084F83C900120BDE8F087681C0ED0F3
:1059F0002DB1FEF70DFDA0EB0800A84207D9C4F8B1
:105A0000309084F83DA084F83C900320ECE7012F0F
:105A100008D02068806926EA00000004000CCCD180
:105A20000020E1E72068406926EA00000004000C3D
:105A3000F6D0C2E72DE9F04104460D461646002790
:105A40004FF0200820E04069C043C0060CD4216814
:105A50006FF0100048612764276384F83D8084F864
:105A60003C700120BDE8F08125B1FEF7D1FC801B20
:105A7000A84209D9206C40F02000206484F83D80C1
:105A800084F83C700320EDE720684169C94349066A
:105A9000D9D40020E6E770B504460D46164619E055
:105AA0002046FFF703FE08B1012070BD681C11D02D
:105AB00025B1FEF7ADFC801BA8420BD9303420691C
:105AC00040F02000206100202060202161732073BD
:105AD000032070BD20684069C0430006E0D4002068
