:020000040802F0
:1000000030E1012059020208A92402087D020208F9
:10001000D1230208A10B0208D52C02080000000021
:10002000000000000000000000000000A101020824
:10003000DD0B020800000000F5010208012702089C
:1000400073020208730202087302020873020208B4
:100050007302020873020208790E02087302020892
:100060007302020873020208730202087302020894
:100070007302020873020208730202087302020884
:100080007302020873020208730202087302020874
:100090007302020873020208730202087302020864
:1000A0007302020873020208730202087302020854
:1000B0007302020873020208730202087302020844
:1000C0007302020873020208730202087302020834
:1000D00073020208BD2C02087302020873020208B0
:1000E0007302020873020208730202087302020814
:1000F0007302020873020208730202087302020804
:1001000073020208730202087302020873020208F3
:1001100073020208730202087302020873020208E3
:1001200073020208730202087302020873020208D3
:1001300073020208550C02087302020873020208D7
:1001400073020208730202087302020873020208B3
:1001500073020208730202087302020873020208A3
:100160007302020873020208730202087302020893
:100170007302020873020208730202080000000002
:100180007302020873020208DFF810D000F0A8FB27
:1001900000480047C99C0208AFF3008030E101200D
:1001A0002A4B19680868B0E8F04F80F30988BFF35C
:1001B0006F8F4FF0000080F311887047000000003F
:1001C00006480068006880F3088862B661B6BFF32D
:1001D0004F8FBFF36F8F00DF00BF00BF08ED00E05F
:1001E000DFF80C00016841F470010160704700BF46
:1001F00088ED00E0EFF30980BFF36F8F134B1A68AF
:100200001EF0100F08BF20ED108A20E9F04F10609B
:1002100008B44FF0500080F31188BFF34F8FBFF345
:100220006F8F12F055F94FF0000080F3118808BC71
:1002300019680868B0E8F04F1EF0100F08BFB0EC66
:10024000108A80F30988BFF36F8F70473800002051
:10025000EFF30580704700000648804706480047D6
:10026000FEE7FEE7FEE7FEE7FEE7FEE7FEE7FEE766
:10027000FEE7FEE7E92702088901020870466946A1
:1002800003F074FAFFF7FEFF2DE9F05F054600204A
:1002900092469B4688460646814640241BE02846F7
:1002A00041464746224600F044F953465A46C01A92
:1002B000914110D311461846224600F02BF92D1A11
:1002C00067EB01084F4622460120002100F022F989
:1002D00017EB00094E41201EA4F10104DFDC484663
:1002E00031462A464346BDE8F09F0000004870476B
:1002F000083403080649074A0868504343F23902A4
:1003000010440860400870470149086070470000C9
:10031000D40100206D4EC64110B5441A03469442E4
:1003200009D28418114403E011F8013D04F8013D9D
:10033000521EF9D210BD40EA0104A40703D009E01F
:1003400010C9121F10C3042AFAD203E011F8014B9E
:1003500003F8014B521EF9D210BDD2B201E000F8F1
:10036000012B491EFBD270470022F6E710B5134659
:100370000A4604461946FFF7F0FF204610BD10B5A7
:10038000044604E00B7800F8013B03B1491C521EFF
:10039000F8D2204610BD421C10F8011B0029FBD1E9
:1003A000801A704730B504460020034600E05B1C0D
:1003B000934203D2E05CCD5C401BF8D030BD70B5F9
:1003C000064602F0ADFC046805460A2200213046CC
:1003D00000F0BFF82C6070BD2DE9F04D81EA0304F8
:1003E00004F0004B21F0004514464FF0000A23F0C2
:1003F000004150EA050220D054EA01021DD0C5F3A5
:100400000A570246C5F31303C1F31300C1F30A569A
:1004100040F4801543F48013A7EB0608101BD64662
:1004200008F2FD3873EB050002D308F1010801E082
:1004300092185B41B8F1000F03DA00200146BDE8D5
:10044000F08D00204FF48011064684460EE0171B05
:1004500073EB050705D3121B63EB050306434CEA58
:10046000010C49084FEA300092185B4150EA01073D
:10047000EDD152EA030012D082EA040083EA0501BA
:10048000084305D0101BAB4106D20122002306E031
:1004900000224FF0004302E06FF0010253101AEB0C
:1004A00006004CEB085110EB0A0041EB0B01BDE8D4
:1004B000F04D00F086B8000030B5041E71F1000464
:1004C00004DB4FF00044404264EB0101141E73F161
:1004D000000405DB1C464FF00043524263EB04036B
:1004E000994208BF904230BD30B50B46014600200E
:1004F0002022012409E021FA02F59D4205D303FAE6
:1005000002F5491B04FA02F52844151EA2F1010266
:10051000F1DC30BD202A04DB203A00FA02F1002091
:1005200070479140C2F1200320FA03F31943904031
:100530007047202A04DB203A21FA02F0002170479C
:1005400021FA02F3D040C2F120029140084319463B
:1005500070472DE9F04791460F4680460446002635
:1005600014F8015B2DB1FFF7C1FE0068405DC007C4
:10057000F6D12B2D02D02D2D18D0641E4A463946B7
:10058000204600F0DFF927B13968A14201D1C7F850
:10059000008071054FF002040BD54042002803DDB6
:1005A00002F0BEFB0460A007BDE8F08746F4806659
:1005B000E4E70028F8DA02F0B3FB04606FF00040D3
:1005C000F2E710B5141E73F1000408DA401C41F183
:1005D000000192185B411A4301D120F0010010BDC7
:1005E0002DE9F04D92469B4611B1B1FA81F202E03D
:1005F000B0FA80F220329046FFF78CFF04460F4697
:1006000040EA0A0041EA0B0153465A46084313D018
:10061000114653EA010019D0C8F140025046FFF7D5
:1006200088FF05460E46504659464246FFF772FF80
:10063000084305D0012004E020463946BDE8F08D8E
:100640000020054346EAE0762C4337430A986305C9
:10065000E40AA0EB08000022FD0A44EA47540A30ED
:1006600002D500200146E9E7010510196941DDE9DD
:10067000084500196941BDE8F04DA2E72DE9FE4F9C
:10068000804681EA0300C00F0C46009021F0004133
:1006900023F00045B8EB0200A94105D240462146AF
:1006A00090461C460B46024623F00040104347D0BC
:1006B000270DC7F30A00C3F30A510290401A0190B4
:1006C00040286BDAC3F3130040F4801B0098924675
:1006D00020B10023D2EB030A63EB0B0B01985946C0
:1006E000C0F140025046FFF715FF06460D46504642
:1006F0005946019A00F006F910EB08006141002408
:1007000087EA115284EAE7731A4340D0009A62B331
:10071000019A012A4FEA075215DC001B61EB020126
:100720004FF0004202EA0752CDE90042001C41F5B9
:10073000801132462B46FFF753FF03B0BDE8F08F20
:1007400040462146F9E7001B61EB0201001C41F520
:10075000801300185B412018A2F5001747EB030136
:1007600040EAD570B6196D4111E06D084FEA3606C2
:1007700045EAC0754FEA0752001B61EB0201001CFD
:1007800041F5801149084FEA3000001951413246C5
:100790002B4603B0BDE8F04FFFF713BF00980122CE
:1007A00040000023D0EB020263EBE0730098214687
:1007B0004FEAE074B8EB000061EB0401E9E783F075
:1007C00000435BE781F0004158E72DE9FE4F81EAE5
:1007D000030404F0004421F0004100944FF0000BAA
:1007E00023F0004350EA01045ED052EA03045BD0D8
:1007F000C3F30A54C1F30A552C44A4F2F334019410
:10080000A0FB0254C1F3130141F48011C3F313039D
:1008100043F4801301FB024400FB034E840A970A51
:1008200044EA815447EA8357A4FB076802958D0A7E
:1008300005FB07854FEA932C04FB0C542705029D0A
:100840004FEA065847EA1637B5EB08056EEB070C7A
:10085000870E920E47EA811742EA8312A7FB020134
:10086000B6EB0B0164EB00042B0D43EA0C335E186E
:1008700044EB1C50DA465146E7FB0201C5F3130472
:100880004FEA0B3343EA14534FEA0432019C43EA24
:100890000603A4F10C040294009CCDE900B4FFF718
:1008A0009FFE03B0BDE8F08F00200146F9E7C1F3D9
:1008B0000A52C1F3130140F2FF3341F480119A420E
:1008C00002DA00200146704740F233439A42A2F216
:1008D000334202DC5242FFF72CBEFFF71BBE000082
:1008E000064C074D06E0E06840F0010394E807007D
:1008F00098471034AC42F6D3FFF74AFC2C3E03086D
:100900004C3E0308202A06DBCB17203A41FA02F0BE
:1009100043EAE07306E041FA02F3D040C2F120025C
:1009200091400843194670473A2800D2303820F0E9
:100930002002412A01D3A2F13700884201D34FF0AF
:10094000FF3070472DE9F05F82460078002715469A
:100950008B460AF10104B946302801D09DB113E05D
:1009600014F8010B0127782803D0582801D045B18D
:100970000AE00DB1102D07D10027102514F8010B46
:1009800002E0082500E00A250026B0460EE005FB3F
:10099000080005FB06F1012701EB10461FFA80F85D
:1009A000B6F5803F00D3B94614F8010B2946FFF78E
:1009B000BBFF0028EBDABBF1000F05D00FB1641EBE
:1009C00000E05446CBF80040B9F1000F06D002F029
:1009D000A7F902210160C81EBDE8F09F48EA064061
:1009E000FAE770B58C1810F8015B15F0070301D118
:1009F00010F8013B2A1106D110F8012B03E010F882
:100A0000016B01F8016B5B1EF9D12B0705D40023A4
:100A1000521E0DD401F8013BFAE710F8013BCB1A46
:100A2000921C03E013F8015B01F8015B521EF9D53B
:100A3000A142D8D3002070BD10B50C490A48086007
:100A400001F042F800F046FA01F070FE01F074FC8B
:100A500000F0A8F806A208A109A002F0B9FFBDE8BD
:100A600010400AA002F038B90000020808ED00E0CA
:100A700056302E312E30000056312E302E300000F0
:100A80004A49454A49452D46343037002D2D2D2DF4
:100A90002D2D2D2D2D2D2D204C7769702064656D09
:100AA0006F202D2D2D2D2D2D2D2D2D2D2D2D0A0091
:100AB0001CB5214800F0CAFA00F0E0F91F480168AF
:100AC00041F00101016002208DF8000000218DF845
:100AD00001108DF802108DF803108DF804108DF8B8
:100AE00005101548164A0260012242600182C0F8D2
:100AF00014D08261C161D105016249128160C910BF
:100B0000C16000F047FB04468CB10EA002F0E4F88F
:100B10000823164A1649084800F05BFA154A0823CC
:100B2000A2F50071044800F01DFA20461CBD12A079
:100B300002F0D2F8ECE70000200200200090024012
:100B4000008002405B44454255475D206574682043
:100B5000686172647761726520696E69742066618C
:100B6000696C642E2E2E0A0D0A0000000834002045
:100B700068030020680400205B44454255475D201F
:100B800065746820686172647761726520696E6956
:100B900074207375636573732E2E2E0A0D0A000080
:100BA000FEE7000010B50C4C0A4820604FF4E1301D
:100BB00060600020A060E0602061A0610C206061A6
:100BC000204601F0DFFA2068C16841F02001C160D1
:100BD00010BD000000100140E001002070470068D7
:100BE00000F58050816941F0020181617047006821
:100BF00000F58050816941F4005181617047000027
:100C000008B507494FF4FA520968B1FBF2F14143C4
:100C1000009100BF0098411E0091FAD208BD00006B
:100C20000000002038B50446206800F58050816936
:100C300041F480118161206800F580508069009046
:100C40000120FFF7DDFF2068009900F580508161E9
:100C500038BD000010B55020EFF3118480F31188E7
:100C6000BFF34F8FBFF36F8F024800F052FA84F347
:100C7000118810BD200200201079537940EA032327
:100C80000748084403641178D37841EA03619378F4
:100C900052781B0443EA022211434164704700006A
:100CA000008002402DE9F041AEB00446002904D096
:100CB0004FF40060E060C000A0600025119512951F
:100CC0001395149515951695E06900287DD0179514
:100CD0004FF40070189019951A951B951C951D9549
:100CE00040271E971F9520952195229523952495A1
:100CF0002595269580262796289529952A952B9522
:100D00002C952D952068026845490A40D4E90213C4
:100D10001943179B194341F4007111430160206886
:100D2000D0F80080012000F00BF92068C0F80080A6
:100D30002068476020684768012000F001F92068BA
:100D40004760206885602068C560206881694FF62B
:100D50004172114041F08001816120688769012062
:100D600000F0EEF8206887612068C5612068C769D7
:100D7000012000F0E5F82068C7610195B0040290F9
:100D80000395011104910595069507950895042191
:100D900009910A9040120B9080010C9040120D9026
:100DA0000E960F951095206800F5805081691D4AB8
:100DB00011401D4A0A438261206800F58050856910
:100DC000012000F0BDF8206800E016E000F580503A
:100DD00085612068154900F580500160206800F5A4
:100DE00080500568012000F0ABF8206800F58050C5
:100DF0000560A069012804D00AE04FF480601790D4
:100E000066E7206800F58050C169094A1143C16155
:100E100062692EB02046BDE8F0410021FFF72CBFEB
:100E20000F8120FF233FDEF8040020028020C10252
:100E30004000010038B504462068016841F0040113
:100E400001602068006800900120FFF7D9FE21684A
:100E50000098086038BD38B504462068016841F044
:100E6000080101602068006800900120FFF7C8FEBB
:100E700021680098086038BD7047000010B586B042
:100E80001248016841F480710160006800F48070CC
:100E900000900120029003900220049001900C4CDD
:100EA00001A9204600F012FD00220221204600F098
:100EB000EFFD052000F044F801220221204600F059
:100EC000E7FD052000F03CF806B010BD30380240C8
:100ED0000020024008B51948016841F08001016016
:100EE000016801F080010091016841F00401016096
:100EF000016801F004010091016841F00101016005
:100F0000016801F001010091016841F002010160F6
:100F1000016801F002010091016841F040010160A7
:100F2000016801F040010091016841F480710160A5
:100F3000006800F48070009008BD00003038024066
:100F400070B5044600F0B2FD0546601C02D00448AE
:100F50000078044400F0AAFD401BA042FAD370BD03
:100F600004000020F0B5002490F84550012D09D070
:100F7000012780F84570022580F84450816244F2D0
:100F8000F45C19E00220F0BD01EB44154FF000467F
:100F90002E60C5F804C0C4EBC41606EB460602EB8F
:100FA0008606AE6086695E1EB44203D205F1200655
:100FB000EE6000E0E960641C9C42E5D3026802F543
:100FC0008052D16080F84470002180F845100020E4
:100FD000F0BD2DE9F043002590F84540012C0BD0E1
:100FE0004FF0010C80F845C0022480F84440C162F3
:100FF0004FF480185F1E1CE00220BDE8F08301EB77
:101000004514C4F80080C5EBC51606EB460602EB96
:101010008606A660C66926B9266846F44009C4F863
:101020000090BD4203D204F12006E66000E0E160DA
:101030006D1C9D42E3D3026802F58052116180F875
:1010400044C0002180F845100020D6E710B50446C2
:10105000022084F84400204600F0B8F9002004F88B
:10106000440F607010BD0000E522024902A001F0AB
:1010700033BE0000703003085B4552524F525D5B37
:1010800025733A25645D20657468206572720A0DC7
:101090000A00000010B590F84510012913D0012373
:1010A00080F84530022180F84410816A0A680024E3
:1010B000002A29DB0A68D20518D5826B521C82638C
:1010C000012A02D002E0022010BD01632830C16075
:1010D0000A68C2F30D42121F4261826892688261FF
:1010E000C968016003774477002010BD0A68920543
:1010F00005D5016344638363C968816204E0826B40
:10110000521C8263C968816200F8443F4470012028
:1011100010BD70B50446206800F5805041694FF05D
:10112000000649064FF001050CD5204600F026FACE
:101130002068402100F58050416184F8445084F8D3
:1011400045600DE04069C0070AD0204600F0E1FA92
:10115000206800F58050456184F8445084F845606B
:1011600020684FF4803100F580504161206800F51F
:101170008050406900040CD52046FFF775FF2068B9
:101180004FF4004100F58050416184F8445084F8E8
:10119000456070BD2DE9FC4704464FF00008CDF8CE
:1011A0000480C146002C03D094F8440018B107E035
:1011B0000120BDE8FC8784F84580204600F038F91E
:1011C0007848016841F480410160006800F4804083
:1011D00000907548016821F4000101600168226AED
:1011E00011430160206800F58050016841F0010161
:1011F000016000F05BFC05464FF4FA760AE000F06F
:1012000055FC401BB04205D9032084F8440084F803
:101210004580CEE7206800F580500068C007EED119
:101220002068006920F01C0500F066FD5F49604AF7
:101230000144914202D245F0080516E05D495E4A3C
:101240000144914202D245F00C050EE05B495C4A34
:101250000144914209D35B4908445B49884202D268
:1012600045F0040501E045F01005206805614FF4E4
:1012700000420021204600F04DFA012538B101213D
:101280002046FFF70FFD84F84450012091E7052028
:10129000FFF756FE6068E0B300F008FC074641F235
:1012A000883601AA0121204600F026F900F0FEFB55
:1012B000C01BB04209D901212046FFF7F3FC84F896
:1012C000445084F84580032073E701984007E8D52F
:1012D0004FF480520021204600F01CFA38B1012161
:1012E0002046FFF7DFFC84F84450012061E700F05E
:1012F000DDFB074601AA0121204600F0FDF800F0C1
:10130000D5FBC01BB0420BD901212046FFF7CAFC18
:1013100000E028E084F8445084F84580032048E742
:1013200001988006E6D501AA1F21204600F0E4F8C6
:1013300038B101212046FFF7B5FC84F84450012064
:1013400037E70198C10603D54FF40061E16001E081
:10135000C4F80C80400702D5C4F808801AE04FF4A6
:101360008040A06016E0E0680021C0F3CF02A068D2
:10137000C0F34F000243204600F0CCF938B1012100
:101380002046FFF78FFC84F84450012011E7052028
:10139000FFF7D6FD49462046FFF784FC84F8445009
:1013A000002006E7443802400438014000D3CEFE56
:1013B000C0E1E40040F1E9FD40787D0100796CFC7A
:1013C000005A6202001F0AFA80F0FA0210B50068A3
:1013D0001249884221D11248016821F080610160E0
:1013E000016821F000610160016821F00071016075
:1013F00032210C4800F0CCF986210B4800F0C8F9E6
:101400000A4C4FF40061204600F0C2F92046BDE8C6
:1014100010404FF4C04100F0BBB910BD0080024045
:10142000303802400008024000000240001802402C
:101430002DE9F04186B000682A4988424ED1322019
:1014400001900224029400250395032604960B279D
:10145000059701A9244800F039FA862001900294EA
:1014600003950496059701A9204800F02FFAA002E1
:1014700001900294039504960597DFF8748001A902
:10148000404600F023FA70030190029403950496FD
:10149000059701A9404600F019FA002206213D20D7
:1014A00000F056FB3D2000F048FB1248016841F077
:1014B00000710160016801F000710091016841F064
:1014C00080610160016801F080610091016841F074
:1014D00000610160006800F00060009006B0BDE8A7
:1014E000F08100000080024000080240000002403D
:1014F00000180240303802402DE9F047044691467A
:1015000094F8440082281DD0822084F8440020688A
:10151000026902F01C03228A4FF6FF7505EAC22217
:101520001A434FF4F86303EA8111114321F00201D9
:1015300041F00105056100F0B9FA064601274FF4B4
:1015400080380FE00220BDE8F08700F0AFFA801B82
:10155000404505D304F8447F002060700320F2E783
:1015600020680569E807F0D12068406980B2C9F8B1
:10157000000084F844700020E5E7000008B50C483E
:10158000016881F0800101600020009009486946EF
:10159000006811F0D9FA0098002807D006494FF0EA
:1015A00080500860BFF34F8FBFF36F8F08BD0000FE
:1015B000141402409401002004ED00E070B50446CC
:1015C00094F84500012819D0012584F845500220DF
:1015D00084F844002046FFF73EFC2046FFF72AFC33
:1015E0002046FFF71FFB2046FFF701FB2046FFF7D1
:1015F000F6FA04F8445F0020607070BD022070BDF0
:10160000F0B5002390F84520012A11D0012780F879
:101610004570022280F84420002659B1C46A22682D
:10162000002A0CDA122100F8441F46700120F0BD98
:101630000220F0BD00F8447F46700120F0BD40F26A
:10164000F455A9420AD9B1FBF5F2B1FBF5FC05FB53
:101650001C1CBCF1000F02D0521C00E00122012A28
:1016600044D1226842F040522260C26AC1F30C01A8
:101670005160C16A0A6842F000420A60C16AC968E2
:10168000C16235E0C46AD4F800C02CF0405CC4F8F4
:1016900000C033B9C46AD4F800C04CF0805CC4F810
:1016A00000C0C46A6560541EA34214D1C46AD4F851
:1016B00000C04CF0005CC4F800C0C2F10104C4EBEF
:1016C000C41404EB440401EB8404D0F82CC0C4F32C
:1016D0000C04CCF80440C46AD4F800C04CF0004CB0
:1016E000C4F800C0C46AE468C4625B1C9342C9D3F6
:1016F000016801F580514A69520705D504224A6103
:10170000016801F580514E6000F8447F467000206A
:10171000F0BD70472DE9F041044694F8440042289A
:1017200020D0422084F844002068036903F01C03A1
:10173000258A4FF6FF7606EAC5251D434FF4F86368
:1017400003EA8111294341F0020141F0010591B200
:1017500041612068056100F0A9F9064601274FF4B0
:1017600080380FE00220BDE8F08100F09FF9801B77
:10177000404505D304F8447F002060700320F2E761
:1017800020680569E807F0D184F84470EBE70000B1
:101790002DE9F04F0023DFF80C814FF0010C0F27EB
:1017A0000CFA03F201EA0204944275D106684FEA8A
:1017B0004309032505FA09F5AE430660DE0800EB90
:1017C0008609D9F820A05E074FEAD66B07FA0BFB13
:1017D0002AEA0B0A3E46C9F820A0D0F8089029EA68
:1017E0000509C0F80890D0F8049029EA0209C0F869
:1017F0000490C268AA43C26023F0030202EB08050A
:10180000D5F808284FEA83794FEA197906FA09F6DC
:1018100006EA020A244A904201D1002223E0234A28
:10182000904201D101221EE0214A904201D10222C0
:1018300019E0204A904201D1032214E01E4A90424E
:1018400001D104220FE01D4A904201D105220AE095
:101850001B4A904201D1062205E01A4A904201D16A
:10186000072200E0082202FA09F2524514D1D5F805
:101870000828B243C5F80828134A1568A54315601F
:10188000121D1568A5431560121D1568A543156046
:10189000121D1568A54315605B1C102B80D3BDE895
:1018A000F08F0000003001400000024000040240C0
:1018B00000080240000C02400010024000140240E8
:1018C00000180240001C0240003C01402DE9F84F86
:1018D0000022DFF89091DFF88C8109F108094FF0C0
:1018E000010E4FF00F0C09F1040A0EFA02F60B6814
:1018F0003340B34271D14C68022C01D0122C11D16B
:10190000D40800EB84073D6A5407E40E0CFA04FB8C
:1019100025EA0B05D1F810B00BFA04FB4BEA050BD6
:10192000C7F820B0076854000325A540AF4391F8DD
:1019300004B00BF0030B0BFA04FB4BEA070BC0F8E7
:1019400000B04F68012F05D0022F03D0112F01D016
:10195000122F11D18768AF43D1F80CB00BFA04FBFA
:101960004BEA070BC0F808B04768B7430E79C6F3D7
:10197000001696403E434660C668AE438D68A5405B
:101980003543C5604C68E40065D5374C256845F49F
:1019900080452560246804F480440094334C22F090
:1019A00003052544D5F808789407260F0CFA06F4A9
:1019B000A7432F4CA04201D1002424E02D4CA0428B
:1019C00001D101241FE02C4CA04201D102241AE0D5
:1019D0002A4CA04202D1032415E03CE0284CA0424E
:1019E00001D104240FE0274CA04201D105240AE0D4
:1019F000254CA04201D1062405E0244CA04201D18F
:101A0000072400E00824B4403C43C5F80848D8F84F
:101A100000409C434D68ED0300D51C43C8F80040CE
:101A2000104D2D1D2C689C434E68B60300D51C43F9
:101A30002C60D9F800409C434D68ED0200D51C4352
:101A4000C9F80040DAF800409C434D68AD0200D56B
:101A50001C43CAF80040521C102AFFF446AFBDE8F0
:101A6000F88F0000003C0140443802400030014043
:101A7000000002400004024000080240000C024046
:101A8000001002400014024000180240001C0240F6
:101A9000002A01D08161704709048161704700000C
:101AA00001480068000C7047002004E0014880688D
:101AB0007047000004000020024881680278114449
:101AC000816070470400002010B50948016841F4A6
:101AD00000710160016841F480610160032000F041
:101AE00057F80F2000F006F800F026F8002010BD8F
:101AF000003C024070B504460D4D4FF47A712878D1
:101B0000B1FBF0F00B490968B1FBF0F000F026FBE7
:101B100008B1012070BD102C07D200222146501EB2
:101B200000F016F86C60002070BD012070BD000050
:101B30000400002000000020704700F01F02012177
:101B400091404009800000F1E020C0F8001170478A
:101B5000F0B40D460D4B1B68C3F30223C3F1070419
:101B6000042C00D90424191D072901D2002300E008
:101B7000DB1E012606FA04F1491E294099409E40C9
:101B8000761E16403143F0BC00F08FBC0CED00E037
:101B900000F00701054A10684FF6FF03184040EABD
:101BA0000120034908431060704700000CED00E07D
:101BB0000000FA052DE9F04704460D46002C13D02D
:101BC000DFF82491D9F80000EFB200F00F00A8422E
:101BD0000CD289F80070D9F8000000F00F00A8427C
:101BE00004D00120BDE8F0870120FBE720683F4ECC
:101BF000810712D5400703D5306840F4E0503060CB
:101C00002078000703D5306840F4604030603068C9
:101C1000A16820F0F000084330602078C00731D080
:101C2000324960680839012808D002280BD00328FF
:101C300009D0096889070BD40120D3E70968890313
:101C400006D40120CEE70968890101D40120C9E743
:101C5000316821F0030101433160FFF727FF80461F
:101C600041F2883A07E0FFF721FFA0EB080050455A
:101C700001D90320B6E73068616800F00C00B0EBD2
:101C8000810FF0D1D9F8000000F00F00A84209D967
:101C900089F80070D9F8000000F00F00A84201D0C8
:101CA00001209FE72078400705D53068E16820F4DF
:101CB000E050084330602078000706D5306821697D
:101CC00020F4604040EAC100306000F03BF8316829
:101CD000074AC1F30311515CC840064908600F2050
:101CE000FFF708FF00207DE7003C02400838024073
:101CF00058300308000000200148006870470000C9
:101D00000000002000B5FFF7F7FF04490968044A06
:101D1000C1F38221515CC84000BD00000838024078
:101D20006830030800B5FFF7E7FF04490968044A73
:101D3000C1F34231515CC84000BD00000838024088
:101D40006830030810B51748006810F00C011648F9
:101D500016D0164B042912D0082911D1114C241F7A
:101D6000216801F03F02216849020AD52068C0F3CA
:101D70008810A0FB03010023FEF786FA09E018464D
:101D800010BD21680023C1F38811A1FB0001FEF7FB
:101D90007BFA2168C1F30141491C4900B0FBF1F015
:101DA00010BD0000083802400024F40040787D0196
:101DB0002DE9F84F0446002C10D02078DC4DC007E8
:101DC00057D0DB4808300168C1F3810101290DD0EB
:101DD0000068C0F38100022803D00EE00120BDE8B6
:101DE000F88FD348001D0068400206D5286880039C
:101DF0003FD5606870BB0120F1E76068B0F5803FB7
:101E000010D0B0F5A02F12D0286820F480302860C0
:101E1000286820F4802028606068E0B1FFF746FE63
:101E2000064614E0286840F480302860F4E728680B
:101E300040F480202860286840F480302860EBE778
:101E4000FFF734FE801B642801D90320C7E7286808
:101E50008003F5D50DE0FFF729FE064606E0FFF703
:101E600025FE801B642801D90320B8E72868800379
:101E7000F5D42078AF4F80074FF0000849D5AC4823
:101E80000830016811F00C0F09D00068C0F3810020
:101E9000022814D1A648001D006840020FD428680B
:101EA000800704D5E068012801D0012097E7286861
:101EB000216920F0F80040EAC100286029E0E068CC
:101EC000B8B101203860FFF7F1FD064606E0FFF7E4
:101ED000EDFD801B022801D9032080E728688007D8
:101EE000F5D52868216920F0F80040EAC100286093
:101EF0000FE0C7F80080FFF7D9FD064606E0FFF7C0
:101F0000D5FD801B022801D9032068E728688007D7
:101F1000F5D42078000729D5DFF814928648616946
:101F200009F1740989B101210160FFF7BFFD06467F
:101F300006E0FFF7BBFD801B022801D903204EE716
:101F4000D9F800008007F4D510E0C0F80080FFF752
:101F5000ADFD064606E0FFF7A9FD801B022801D96A
:101F600003203CE7D9F800008007F4D4207840072C
:101F700072D50026DFF8B8A10AF1400ADAF80000AD
:101F8000C0000BD4DAF8000040F08050CAF800001E
:101F9000DAF8000000F0805000900126DFF89CB1D4
:101FA000DBF80000C00515D4DBF8000040F48070B9
:101FB000CBF80000FFF77AFD814607E0FFF776FDDA
:101FC000A0EB0900022801D9032008E7DBF8000094
:101FD000C005F3D5DFF858B1A0680BF1700B0128EC
:101FE00013D0052818D0DBF8000020F00100CBF852
:101FF0000000DBF8000020F00400CBF80000A0682F
:1020000030B3FFF753FD81461DE0DBF8000040F0E0
:102010000100CBF80000F2E7DBF8000040F004001C
:10202000CBF80000DBF8000040F00100CBF8000026
:10203000E5E7FFF73BFDA0EB090141F28830814263
:1020400001D90320CBE6DBF800008007F1D512E0D0
:10205000FFF72CFD81460AE015E0FFF727FDA0EB16
:10206000090141F28830814201D90320B7E6DBF84B
:1020700000008007F1D4012E05D1DAF8000020F02D
:102080008050CAF80000A069C0B329490831096826
:10209000C1F38101022949D0022805D0C7F8608028
:1020A000FFF704FD04463CE0C7F86080FFF7FEFC44
:1020B000064606E0FFF7FAFC801B022801D9032040
:1020C0008DE628688001F5D4D4E907010843616AE8
:1020D000A26A4FF0FF33890103EB520241EA024149
:1020E000084394F82C1040EA01611148001D01607A
:1020F00001203866FFF7DAFC044607E014E0FFF73A
:10210000D5FC001B022801D9032068E6286880015D
:10211000F5D509E0FFF7CAFC001B022801D903200E
:102120005DE628688001F5D4002058E6012056E6D7
:102130000038024000004742800E474200700040D5
:102140004FF0E021042804D0086920F00400086161
:102150007047086940F004000861704710B5401EE0
:10216000B0F1807F01D3012010BD4FF0E024606109
:102170000F21601700F099F90020A061072020616D
:10218000002010BD70B50446002C04D094F839002E
:10219000002510B106E0012070BD84F838502046BB
:1021A00000F022F8242084F839002068C16821F466
:1021B0000051C160204600F0C5FB2068016921F490
:1021C000904101612068416921F02A014161206844
:1021D000C16841F40051C160E563202084F83900F2
:1021E00084F83A00002070BD30B587B01D48016802
:1021F00041F010010160006800F0100001901948E2
:102200001438016841F001010160016801F0010129
:102210000191016841F001010160006800F00100D6
:1022200001904FF40070029002200390012004906E
:1022300003200590072406940B4D02A92846FFF7BA
:1022400045FB29150291069402A92846FFF73EFB9B
:10225000012200212520FFF77BFC2520FFF76DFCE4
:1022600007B030BD44380240000002402DE9F84379
:1022700004460D4691461E4694F83900202802D0A7
:102280000220BDE8F883B5B1B9F1000F13D094F87E
:102290003800012811D0012084F838000027E763B6
:1022A000212084F83900FFF701FC8046A4F824902F
:1022B000A4F826902DE00120E3E70220E1E7E08C7E
:1022C000401EE084A068B0F5805F09D0434600223C
:1022D00080212046009600F0BFFCB0B10320D0E77B
:1022E0004346002280212046009600F0B5FC08B14C
:1022F0000320C6E728882168C0F3080048602069E9
:1023000008B16D1C05E0AD1C03E0216815F8010B58
:102310004860E08C0028D2D143460022402120466C
:10232000009600F099FC08B10320AAE72020383479
:10233000607027700020A4E7F0B587B01B480168E3
:1023400041F020010160016801F020010191016864
:1023500041F020010160016801F020010191016854
:1023600041F020010160006800F02000019040244D
:102370000294012003900490032005900C4F02A9C1
:102380003846FFF7A3FA8025029502A93846FFF7E1
:102390009DFAA600029602A93846FFF797FA04486C
:1023A000183004600560066007B0F0BD30380240A8
:1023B00000140240054C4FF4FA75216881F0400189
:1023C0002160284609F07CF8F7E700001414024069
:1023D000FEE700004FF47A7442F210750BA000F093
:1023E0007BFC10F0B7F8014614A000F075FC10F06B
:1023F00091FCB0FBF4F119A000F06EFC1EA000F0FF
:102400006BFC284609F05CF8E8E700005B494E46A3
:102410004F5D203D3D3D3D3D3D3D3D3D3D205379A2
:102420007374656D20537461747573203D3D3D3D3B
:102430003D3D3D3D3D3D0D0A000000005B494E46DF
:102440004F5D204865617020667265653A2025649D
:102450002062797465730D0A000000005B494E46E6
:102460004F5D20557074696D653A20256420736551
:10247000636F6E64730D0A005B494E464F5D203DED
:102480003D3D3D3D3D3D3D3D3D3D3D3D3D3D3D3D7C
:102490003D3D3D3D3D3D3D3D3D3D3D3D3D3D3D3D6C
:1024A0003D3D0D0A0000000070470907090E002895
:1024B00006DA00F00F0000F1E02080F8141D7047EC
:1024C00000F1E02080F8001470470000C0B0002444
:1024D0000FF2DC080FF2F80940A000F0FDFB40F617
:1024E000B83008F0EDFF4FF4FA6707E09222434955
:1024F00043A000F0F1FB384608F0E2FF01F0BCFA1F
:102500000028F3D14046FDF746FF0146404601F062
:10251000BBFB49A000F0E0FB4FF4807A0026642268
:102520005146684601F058FB0546002D0FDD29464F
:10253000684601F0A9FBFF2D02DC0DF8056001E003
:102540008DF8FF60694644A000F0C6FB1EE01DDA6E
:10255000AA222A4947A000F0BFFB01F067FA3846DB
:1025600008F0AEFF07E0AF22244925A000F0B4FB3D
:10257000384608F0A5FF01F07FFA0028F3D1404665
:10258000FDF709FF0146404601F07EFB641C642C08
:102590000AD3002401F01AFB30B14846FDF7FBFED8
:1025A0000146484601F070FB642008F089FFB6E759
:1025B00053544D333220496F54205465726D696E07
:1025C000616C20436F6E6E6563746564210D0A0053
:1025D0004845415254424541540D0A005B494E461C
:1025E0004F5D2057616974696E6720666F72206E57
:1025F0006574776F726B2E2E2E0D0A00B3300308B0
:102600005B5741524E5D5B25733A25645D205265F0
:1026100074727920636F6E6E65637420746F2064CA
:10262000656275672073657276657220696E203207
:10263000732E2E2E0D0A00005B494E464F5D204E34
:1026400065744465627567207461736B207374618F
:10265000727465640D0A00005B494E464F5D20525E
:102660006563762066726F6D2050433A2025730DA6
:102670000A0000005B5741524E5D5B25733A2564AA
:102680005D20436F6E6E656374696F6E206C6F734F
:10269000742C207265636F6E6E656374696E672E4D
:1026A0002E2E0D0A0000000010B506A000F014FB4D
:1026B00000F0C6F80BA000F00FFBBDE810400020B2
:1026C0000FF0B0BD5B494E464F5D20496E6974699D
:1026D000616C697A696E67204C5749502E2E2E0D19
:1026E0000A0000005B494E464F5D204C5749502080
:1026F000696E697469616C697A65640D0A0000002D
:1027000010B55020EFF3118480F31188BFF34F8F81
:10271000BFF36F8FFFF7D0F910F0EEFA012801D068
:102720000FF0A4FF84F3118810BD000030B593B002
:1027300000252A48016841F080510160006800F0DE
:10274000805001902648016841F480410160006892
:1027500000F48040019001200290000403900224C4
:1027600008948001099019200A904FF4A8700B90EA
:102770000C9407200D9002A8FFF71AFB00B1FEE7AA
:102780000F200E900F9410954FF4A05011904FF41D
:102790008050129005210EA8FFF70CFA00B1FEE759
:1027A000FFF7AAFA4FF47A71B0FBF1F0FFF7D6FC0D
:1027B0000420FFF7C5FC00221146501EFFF7C8F9A0
:1027C000FFF76EF941F20101884204D10548016822
:1027D00041F48071016013B030BD00004038024008
:1027E00000700040003C02401048016841F4700154
:1027F00001600F48016841F0010101600C4A0021AD
:102800000832116002680B4B1A400260031D0A4A2D
:102810001A60026822F48022026005480C300160D0
:1028200002490648803908607047000088ED00E0E2
:1028300000380240FFFFF6FE1030002400000208BE
:102840003EB5002108460EF0F1FC224D0020286024
:10285000291D0860091D08601F49204ACDE9012192
:1028600005F1080300901A1F111F1D4808F014FC01
:102870001B4808F0C7FD1A4C94F83100400703D5F7
:10288000204608F0E7FD02E0154808F0C1FD1548B4
:1028900000F022FA124802F02BFB18B112A000F04F
:1028A0001BFA06E017A000F017FA02E001200FF073
:1028B0007FFC606829688842F8D06068010E00914A
:1028C000C0F30743C0F30722C1B215A000F004FA19
:1028D0003EBD0000AC0100202D1303084D6202082C
:1028E000BCDB0120A83503086C776970206468633D
:1028F0007020696E6974206661696C2E2E2E0A0A3A
:10290000000000006C776970206468637020696E55
:10291000697420737563636573732E2E2E0A0A0023
:102920004C6F63616C2049502061646472657373FD
:102930002069733A2025642E25642E25642E256493
:102940000A0A00002DE9F04104462068016921F4DB
:102950004052E168114301612068C26849F20C618C
:102960008A432369A168E569194363692B431943C5
:102970001143C1602068416921F44071A2690A4392
:102980004261E069B24AB34964253226B0F5004F8E
:1029900059D02068884201D090427DD1FFF7C2F91A
:1029A00000EBC00101EB001061688900B0FBF1F79A
:1029B000FFF7B8F900EBC00101EB00106168890076
:1029C000B0FBF1F0B0FBF5F06FF01801484307EBF6
:1029D000800006EB0010B0FBF5F000F0F007FFF709
:1029E000A1F900EBC00101EB001061688900B0FBA8
:1029F000F1F0B0FBF5F007EB0017FFF793F900EBF0
:102A0000C00101EB001061688900B0FBF1F8FFF72D
:102A100089F900EBC00101EB001061688900B0FB8F
:102A2000F1F0B0FBF5F06FF01801484308EB8000BF
:102A300006EB0010B0FBF5F0216800F00F00384401
:102A40008860BDE8F0812068884201D0904256D16C
:102A5000FFF768F900EBC00101EB00106168490065
:102A6000B0FBF1F0B0FBF5F00701FFF75BF900EB0D
:102A7000C00101EB001061684900B0FBF1F8FFF7FD
:102A800051F900EBC00101EB001061684900B0FB97
:102A9000F1F0B0FBF5F000E086E06FF0180148437C
:102AA00008EB800006EBC000B0FBF5F000F0F8008A
:102AB00007EB4007FFF736F900EBC00101EB001010
:102AC00061684900B0FBF1F8FFF72CF900EBC00199
:102AD00001EB001061684900B0FBF1F0B0FBF5F0CC
:102AE0006FF01801484308EB800006EBC000B0FB14
:102AF000F5F0216800F0070038448860A1E7FFF78F
:102B000001F900EBC00101EB001061684900B0FB66
:102B1000F1F0B0FBF5F00701FFF7F4F800EBC001AE
:102B200001EB001061684900B0FBF1F8FFF7EAF82B
:102B300000EBC00101EB001061684900B0FBF1F04F
:102B4000B0FBF5F06FF01801484308EB800006EB8E
:102B5000C000B0FBF5F000F0F80007EB4007FFF70E
:102B6000D1F800EBC00101EB001061684900B0FB37
:102B7000F1F8FFF7C7F800EBC00101EB0010616846
:102B80004900B0FBF1F0B0FBF5F06FF018014843DD
:102B900008EB800006EBC000B0FBF5F0216800F008
:102BA0000700384488604CE7FFF7ACF800EBC00141
:102BB00001EB001061688900B0FBF1F7FFF7A2F8A4
:102BC00000EBC00101EB001061688900B0FBF1F07F
:102BD000B0FBF5F06FF01801484307EB800006EBFF
:102BE0000010B0FBF5F000F0F007FFF78BF800EBFA
:102BF000C00101EB001061688900B0FBF1F0B0FB8F
:102C0000F5F007EB0017FFF77DF800EBC00101EBD3
:102C1000001061688900B0FBF1F8FFF773F800EB72
:102C2000C00101EB001061688900B0FBF1F0B0FB5E
:102C3000F5F06FF01801484308EB800006EB001038
:102C4000B0FBF5F0216800F00F0038448860F8E62A
:102C500000140140001001402DE9F04104460E46E9
:102C600017469846069D1DE0681C1BD02DB1FEF747
:102C70001DFFA0EB0800A84214D92068C16821F408
:102C8000D071C1602068416921F0010141612020BB
:102C900084F8390084F83A00002084F838000320D2
:102CA000BDE8F0812068006836EA000004D000200A
:102CB000B842D9D00020F3E70120F9E704480068C2
:102CC0000168C943890602D44168C9B241607047AE
:102CD000E0010020FEE700000FB4054B10B503A98A
:102CE000044A029800F0F2F810BC5DF814FB0000F2
:102CF00069660208DC0100200FB4084B10B504A976
:102D000002AA039800F0E2F8044602A9002000F0AD
:102D100060FC204610BC5DF814FB0000D3350208AF
:102D200000487047D801002002E008C8121F08C1FF
:102D3000002AFAD170477047002001E001C1121F3C
:102D4000002AFBD1704700002DE9FF5F82B000210F
:102D5000DDE90430020DDDF840B0034318D044F63D
:102D60001050A2F2FF3242431514119801281FD0CF
:102D7000A5EB0B00401C5FEA000A4FF000064E4F27
:102D8000DFF83891B046504615D5CAF1000413E07B
:102D9000119801244AA3012801D16FEA0B0102987E
:102DA000119AC0E90031C0E9024206B0BDE8F09FC7
:102DB000CBF10000DFE704460021404A491842EB0E
:102DC0000450CDE9001012E0E00707D032463B4640
:102DD00040464946FDF7F9FC8046894632463B4667
:102DE00010461946FDF7F1FC06460F466410002C0C
:102DF000EAD1DDE90401DDE90023BAF1000F06DACA
:102E0000FDF7E3FC42464B46FDF7DFFC05E0FDF72E
:102E1000E3FA42464B46FDF7DFFA04460E4600222F
:102E2000284BFDF749FB03D84FF0FF30014607E080
:102E30000022254B20463146FDF720FCFDF737FDEB
:102E4000102409E0002C0ADB0A220023FDF71CFAFB
:102E5000039B30321A55641E50EA0102F2D1641C01
:102E6000039AC4F111031444119A012A03D00122D8
:102E700008430DD10AE0084304D000204FF0110BA5
:102E8000119072E7A3EB0B056D1E0DE05B4504DDB1
:102E90004FF0000205F1010504E003DA4FF00002F3
:102EA000A5F10105002AECD002981199C0E9023180
:102EB000C0E9004579E70000000014400000F03F41
:102EC000300000000000F0430000E03F2DE9FF4F1C
:102ED00095B09A46884606460025EEE1252877D12A
:102EE00000242746F94A0121039400E0044316F820
:102EF000013F203B01FA03F01042F7D130782A2835
:102F000011D06FF02F033078A0F13002092A16D8C3
:102F1000039A44F0020402EB820203EB42021044E3
:102F2000761C0390EFE758F8042B0392002A03DA8B
:102F3000504244F40054039044F00204761C30786C
:102F40002E2816D116F8010F44F004042A280DD0BB
:102F50006FF02F023078A0F13003092B09D807EB6E
:102F6000870302EB4303C718761CF3E758F8047B8A
:102F7000761C30786C280FD006DC4C2817D06828D7
:102F80000DD06A2814D104E0742810D07A280FD10B
:102F90000DE044F400140AE044F4801401E044F429
:102FA00040147278824202D104F58014761C761C9B
:102FB000307866280BD013DC582877D009DC00283D
:102FC00075D04528F6D04628F4D047281AD193E189
:102FD00018E0632835D0642879D0652812D18BE1B8
:102FE000702873D008DC6728F1D069286FD06E286C
:102FF0000DD06F2806D1ACE073282CD0752874D082
:10300000782853D05246179990476D1C54E1C4F369
:103010000250022809D003280DD0D8F80010042847
:103020000DD00D6008F1040846E1D8F80010EA1749
:10303000C1E90052F6E7D8F800100D80F2E70D70F4
:10304000F0E718F8041B8DF8001000208DF801003F
:10305000EB46012003E058F804BB4FF0FF30610756
:103060004FF0000102D40DE009F101018946B94297
:103070000FDA8145F8DB1BF809100029F4D108E0CC
:1030800009F1010189468142FADB1BF80910002988
:10309000F6D103985346A0EB090721463846179A04
:1030A00000F080FA284400EB090507E044E008E15D
:1030B0000DE01BF8010B524617999047B9F1010931
:1030C000F7D2534621463846179AF2E039E00A21F2
:1030D000C4F302524FF0000B0091022A06D058F8B8
:1030E000040BC117032A09D00AE023E008F1070006
:1030F00020F00702F2E80201904605E000B2C11795
:10310000042A01D140B2C117002906DA0A4600217B
:10311000404261EB02012D2202E0220504D52B2260
:103120008DF80420012203E0E20701D02022F7E716
:10313000914657E00A2100E010214FF0000B00916A
:103140000BE010214FF0000B44F00404082700911D
:1031500003E008204FF0000B0090C4F30252022A53
:1031600005D058F8040B0021032A08D008E008F124
:10317000070020F00702F2E80201904603E080B267
:10318000042A00D1C0B24FF0000922072AD53278B4
:10319000702A07D0DDF800C08CF0100C5CEA0B0C34
:1031A00005D00EE040228DF80420012208E050EA0C
:1031B000010306D030238DF804308DF8052002225B
:1031C0009146009B83F0080353EA0B030AD150EAAF
:1031D000010201D1620705D530228DF804204FF09D
:1031E00001097F1E3278582A04D039A20C920CAA09
:1031F00002920BE03BA2F9E75B46009AFDF744F828
:103200000C9B9B5C029A521E0292137050EA0102C0
:10321000F2D1029804A9081A00F1200B600702D528
:1032200024F4803400E001275F4502DDA7EB0B00AA
:1032300000E0002000EB0B01009003984944401A85
:103240000390E00306D453462146179A039800F0F2
:10325000A9F90544002706E001A85246C05D179968
:1032600090476D1C7F1C4F45F6DBE0030CD55346A1
:103270002146179A039800F095F9054404E03020A0
:103280005246179990476D1C0099481E00900029DE
:10329000F5DC08E00298029952460078491C029138
:1032A000179990476D1CBBF10001ABF1010BF1DCEC
:1032B0005BE100F065F90544761C307800287FF466
:1032C0000DAE19B02846BDE8F08F000009280100B6
:1032D000303132333435363738396162636465668C
:1032E000000000003031323334353637383941424E
:1032F0004344454600000000600700D4062708F15B
:10330000070020F00700F0E80223804603F0004C9D
:103310005FEA0C0001D097A009E0200501D596A036
:1033200005E0E00701D095A001E0AFF24C0013905A
:10333000307823F0004365280CD006DC452809D0FE
:1033400046281DD047287FD13BE0662818D0672843
:103350007AD136E00021112F01DB112000E0781C2A
:10336000CDE9000104A90CA8FFF7EEFCDDE90D0191
:103370000C9A4FF0000B07F10109109200914EE0FA
:103380004FF000400097CDE9011004A90CA8FFF709
:10339000DBFCDDE90D020C9B0F994FF0000B914611
:1033A0001093009211B9791C00EB0109B7EB0900E9
:1033B00003D4C0F1FF3B07F10109A9EB070001901D
:1033C00042E0012F00DA01270021112F01DD112039
:1033D00000E03846CDE9000104A90CA8FFF7B4FCD1
:1033E000DDE90D010C9A00914FF0000BB9461092E7
:1033F00021070FD4009A4A4503DA914601E0A9F16A
:103400000109B9F1010F05DD109AA9F10101515C23
:103410003029F4D0B84202DA10F1040F03DA0121A6
:10342000CDE9011010E0002803DC8344A9EB000182
:1034300002E0411C494500DD8946A0EB0B00401C21
:1034400001904FF000400290200705D401984845B4
:1034500002DB4FF0FF30019000208DF84B00029806
:103460000DF14B07B0F1004F25D002200C902B201E
:103470000D90029800280CDA404202902D200D9009
:1034800007E00A210298FDF72FF83031029007F883
:10349000011D0C99481E0C900029F2DC02980028AE
:1034A000EFD1791E0D980870307800F0200040F0C0
:1034B000450007F8020D11A8C01BC01D029013980B
:1034C000007800B1012000EB0901019801EBE071E7
:1034D000029801440398401A401E0390E00306D46A
:1034E00053462146179A039800F05CF80544139858
:1034F000007818B15246179990476D1CE00323D508
:1035000053462146179A039800F04CF805441BE0F7
:10351000BBF1000F07DB0098584504DD10981799A0
:1035200010F80B0001E0179930205246904701989F
:103530000BF1010B401E05F10105019004D12E2075
:103540005246179990476D1CB9F10001A9F1010984
:10355000DEDC05E017F8010B5246179990476D1C09
:103560000299481E02900029F4DC53462146179A1E
:1035700003989EE62D0000002B00000020000000B4
:103580002DE9F041044600251E461746880404D460
:1035900005E039462020B0476D1C641EF9D5284649
:1035A000BDE8F0812DE9F041044600251E46904615
:1035B000C80301D5302700E02027880404D505E0A2
:1035C00041463846B0476D1C641EF9D52846BDE813
:1035D000F0810A68531C0B60107070472DE9F041B0
:1035E00006460F460024184D09F09FFB05EB041119
:1035F000096841B109F0BEFB641C042CF4DB4FF0F8
:10360000FF30BDE8F08105EB04152E6009F0B2FB38
:103610004FF00008C5F80480A87B10B10BA0FFF79D
:103620005BFBA5F8088030780121B1EB101F04D1B5
:103630000FB1012002E0002000E001206881A5F820
:103640000C802046DDE70000FCE70020736F636B11
:103650006574735B695D2E73656C6563745F776118
:103660006974696E67203D3D2030000010B5044943
:103670000020087003A0FFF72FFB002010BD000002
:10368000300000205B434C4F55445F4D414E414755
:1036900045525D20436C6F7564206D616E61676596
:1036A0007220696E697469616C697A656420287337
:1036B000747562290D0A00002DE9F0470446294D72
:1036C000AB680020D5F80C8000272E4695F801A0A5
:1036D00096F80290D6E9045605EB060CBAF1000FF5
:1036E00013D0B9F1000F10D11F4E0120D6F818A049
:1036F000C4F800A07669361FAE4206D3B44504D3A1
:10370000012902D9022066600127B9F1000F08D013
:103710009A4201D21A4604E003EB0806964200D210
:10372000324603EB080618E013681B1F5FEAC378F4
:1037300012D0AB4210D39C450ED310280CD2884235
:103740000AD2022804D11FB1D4F80480984503D0CE
:103750008046401C44F82830121D9642E4D8BDE84B
:10376000F0870000BC010020E8DC01202DE9F047D3
:103770008EB006460C4620225C4906A8FCF7CCFD1C
:103780005B4FBD68D7F80C90387858B1787898B10D
:10379000564A58A1143A5AA0FFF79EFA60A0FFF7C4
:1037A0009BFAFEE7514A5FA1143A55A0FFF794FA3D
:1037B0005BA0FFF791FAFEE74FF0010A87F801A03E
:1037C0005AA0FFF789FA56A0FFF786FA00F0EAF848
:1037D000DFF81881A8F1BC08D8F82800FFF77CFAB8
:1037E0004FA0FFF779FA04F12001304609F05EFAA4
:1037F0000646AE4203D305EB0900B04201D287F87A
:1038000002A032464946284601F018FFB878484DD4
:1038100000283FD1D8F82C00FFF75EFA40A0FFF750
:103820005BFA27682F6060686860A168A960E26839
:10383000EA6023692B6163696B61A369AB61E3692A
:10384000EB61DDE90843CDE90141CDE90332DDE972
:10385000061300903A4637A0FFF73EFA30A0FFF774
:103860003BFAAA69E8690D990C9BCDE90132CDE9D3
:103870000310686900900B9B2A692EA00A99FFF734
:103880002BFA27A0FFF728FA35A0FFF725FA24A086
:10389000FFF722FA4248006845F8200F4048001D13
:1038A000007828713E4810300068A8603C48401DF0
:1038B000007828733A481430006828613848801D21
:1038C0000088A882364808300068A86134480C3067
:1038D0000088E861324818300088286202F0A4FDB0
:1038E000304608F083FC0EB0BDE8F087643303086F
:1038F000BC010020216F6E5F6661756C7400000072
:1039000028257329206861732061737365727420A0
:103910006661696C65642061742025732E00000067
:103920000D0A0000696E69745F6F6B000000000093
:10393000E8DC0120202025733A202530387820202B
:1039400025733A2025303878202025733A202530F9
:103950003878202025733A20253038780000000080
:103960003D3D3D3D3D3D3D3D3D3D3D3D3D3D3D3D87
:103970003D3D3D3D3D3D3D3D3D3D3D3D3D3D3D3D77
:103980003D3D3D3D3D3D3D3D3D3D3D3D3D3D3D3D67
:103990003D3D3D3D3D3D3D3D3D3D3D3D3D3D0000D1
:1039A00024ED00E010B50748074BA3F120020068A2
:1039B000A2F12001FFF790F9BDE8104003A0FFF746
:1039C0008BB90000A832030838DC01200D0A000082
:1039D00070B50D461446014620220E48FCF7CFFC78
:1039E0000C48202229462030FCF7C9FC0948202237
:1039F00021464030FCF7C3FC084807498160084A6B
:103A0000511AC16007490161074A511A41610121F8
:103A1000017070BDF8DB012030DD0120BC01002009
:103A200030E10120000002084C3E030810B5084CAC
:103A30006068002804DB04F069FC4FF0FF30606030
:103A400000202070BDE8104002A0FFF745B900003B
:103A5000100000205B494E464F5D2044656275674B
:103A600020636F6E6E656374696F6E20636C6F7335
:103A700065640D0A000000002DE9F04186B00022C7
:103A80000121022006F022F8264D68604FF0FF3633
:103A900000280BDAFFF744F903682C22224923A0FF
:103AA000FFF71AF9304606B0BDE8F0812A4C002035
:103AB00020606060A060E0600220607041F6907756
:103AC000384604F0DDFC6080244804F0CDFC6060E2
:103AD00010222146686804F059FC01244FF00C08BC
:103AE000002814DAFFF71CF900680490CDE902877A
:103AF000A82000900194C0233E220B4918A0FFF794
:103B0000EBF8686804F002FC6E60E01ECBE72C70F6
:103B1000CDE900870123A822C0211FA0FFF7DCF810
:103B20000020C0E710000020863003085B45525299
:103B30004F525D5B25733A25645D20437265617465
:103B40006520736F636B6574206661696C65643AA8
:103B50002025640D0A000000A86300200C01A8C005
:103B60005B4552524F525D5B25733A25645D20439D
:103B70006F6E6E65637420746F2025642E25642E2D
:103B800025642E25643A2564206661696C65643A73
:103B90002025640D0A0000005B494E464F5D20431E
:103BA0006F6E6E656374656420746F206465627502
:103BB00067207365727665722025642E25642E2534
:103BC000642E25643A25640D0A000000014800783F
:103BD0007047000010000020FEB505460E461D4C43
:103BE0002078002802D06068002802DA4FF0FF3009
:103BF000FEBD4FF47A71B2FBF1F30193B2FBF1F326
:103C000001FB13214FF47A7251430291082141F2D2
:103C10000602009101ABD11F05F056FD002332468C
:103C20002946606805F0B8FA0028E1DAFFF778F86D
:103C300001680B290CD001680B2909D00368872281
:103C4000054906A0FFF748F800202070801EFEBD41
:103C50000020FEBD10000020A43003085B45525236
:103C60004F525D5B25733A25645D2052656365693B
:103C700076652064617461206661696C65643A20D0
:103C800025640D0A0000000070B505460E4C207832
:103C9000002802D06068002802DA4FF0FF3070BDC3
:103CA0000A460023294605F057FC0028F7DAFFF7FB
:103CB00037F803686322054905A0FFF70DF80020D7
:103CC0002070801E70BD0000100000209530030899
:103CD0005B4552524F525D5B25733A25645D20531C
:103CE000656E642064617461206661696C65643A24
:103CF0002025640D0A00000000280BD0026A002A6B
:103D00000BD05379082B08D10968D269914204D1AC
:103D100000F0CCB901A0FEF7DFBF70476E65746993
:103D20006620213D204E554C4C0000002DE9FC4101
:103D30000546002D18D02C6ADCB100276782A36AE3
:103D40004FF03C02581C4FF480384FF0010C4FF6F6
:103D5000FF7614D01E33B3FBF2F0404500D330465B
:103D600083B2A3824BB10AE02BA0FEF7B5FFBDE8FA
:103D7000FC8130A0FEF7B0FFF9E7A4F814C0E36AB5
:103D8000581C0CD01E33B3FBF2F1414500D3314631
:103D90008BB263810BB9A4F80AC06089E081236B00
:103DA000581C0CD01E33B3FBF2F2424500D332460E
:103DB00093B2A3810BB9A4F80CC0A08920826089BA
:103DC000A389984201D303B16781E07910B1206AD9
:103DD00001900CE0237F7F2B02D8FF20019006E0AA
:103DE000C02B03D36FF07F40019000E00196606A22
:103DF000009028B9E0690199084040F08070009077
:103E00000A21204601F06CF86B4601AA04F11C015E
:103E1000284607F0C5FAAAE7646863705F62696EB6
:103E2000643A206E6574696620213D204E554C4CE5
:103E300000000000646863705F62696E643A206429
:103E400068637020213D204E554C4C0070B50546EE
:103E50002C6A0821204601F043F8002204F11C01DD
:103E6000284601F07BFFA079FF2801D2401CA071F9
:103E70004FF4FA7040F2E731B1FBF0F0208170BDF1
:103E800010B51748046828E0216A09B34879F8B1E9
:103E9000888A68B1488A401C80B248828A8A9042E7
:103EA00006D1204600F098FE204601F021F813E0EC
:103EB000088A18B1421E0A82012806D0C88938B182
:103EC000421ECA81012804D006E0204601F09AF87B
:103ED00002E0204601F081F82468002CD4D110BD06
:103EE000080100202DE9F04707460C461646994682
:103EF000002F17D0002C1BD04FF49A7A4FF4207269
:103F00005146362007F048FB80465FEA080014D08F
:103F1000B8F80A00504502D22EA0FEF7DDFE032EAF
:103F200010D10CE03BA0FEF7D7FE0020BDE8F087E3
:103F300040A0FEF7D1FE0020F8E70020F6E7607908
:103F4000032807D1A079434D10B9FCF7D3F9A86035
:103F5000A8682060D8F8045051462846FCF704FAB7
:103F600001202870687097F83000A870206804F06D
:103F70007BFA6860082E0AD0042E08D0072E06D0DF
:103F8000032E06D16079052801D0042801D1786874
:103F9000E86000243819291990F82A000877641C71
:103FA000A4B2062CF6D32C48C5F8EC0005F1F001BC
:103FB000012335220C46002000F00CFA324621463F
:103FC00000F020FAB9F1000F01D0A9F80000404636
:103FD000ACE70000646863705F6372656174655F7D
:103FE0006D73673A20636865636B20746861742041
:103FF000666972737420706275662063616E2068F2
:104000006F6C642073747275637420646863705F8E
:104010006D736700646863705F6372656174655F88
:104020006D73673A206E6574696620213D204E5598
:104030004C4C0000646863705F6372656174655F17
:104040006D73673A206468637020213D204E554CA3
:104050004C000000680100206382536310B5094CD6
:104060002078002802D108A0FEF736FE2078401EF6
:10407000C0B22070002804D1E0680DF0ABFC002035
:10408000E06010BD68010020646863705F70636267
:104090005F726566636F756E7428293A2072656673
:1040A000636F756E74206572726F7200FEB506469E
:1040B000346A0C21204600F013FF02AB0422214693
:1040C0003046FFF70FFF0546280026D06968042315
:1040D000F03132220F46BDF8080000F07BF9029063
:1040E000E06904F0C1F902463946BDF8080000F065
:1040F000B3F902902A46394600F016FA0F484323D6
:10410000CDE900600F480E4A2946C0680DF098FDC1
:104110000646284607F00EFD01E04FF0FF36A07975
:10412000FF2801D2401CA07142F603104FF4FA712F
:10413000B0FBF1F020813046FEBD00008432030860
:1041400088320308680100202DE9FE4F07463D6ACA
:104150004FF000090020E8610621284600F0C0FE6B
:1041600002AB012229463846FFF7BCFE0646300066
:1041700037D071680223F03139228A46BDF8080031
:1041800000F028F902903A8D514600F09DF9029016
:1041900004233722514600F01DF902900024DFF875
:1041A00080805146BDF8080018F8042000F02AF974
:1041B0000290641CE4B2042CF3D332465146BDF89D
:1041C000080000F0B1F917484323CDE90070144806
:1041D000154A401E3146C0680DF032FD304607F0EA
:1041E000A9FCA879FF2801D2401CA871A979062949
:1041F00002D20120884000E03C2000EB4001C1EBEE
:10420000C0104FF6FF7101EAC00000F2F3104FF446
:10421000FA71B0FBF1F028814846BDE8FE8F00003E
:1042200069010020843203088832030870B50B4806
:10423000046800250EE0216A59B10889012803D9D4
:10424000A0F10100088104E003D10D81204600F0B7
:10425000F0FE2468002CEED170BD000008010020A3
:10426000F8B5046A002222626262214EA6F1280596
:10427000F078002801D0E868A062307910B1286990
:10428000E06202E0A06A4008E062707910B16869FB
:10429000206304E0A06AC0EBC000C0082063086986
:1042A000E061B07930B1A86904F0DEF82062012045
:1042B000E07100E0E271F07918B1E86904F0D4F837
:1042C000606200240CE004F1080055F8200004F0BE
:1042D000CBF800906946204601F094F8641CE4B2E3
:1042E000022C03D23019007A0028ECD1F8BD00006E
:1042F000A0DA012010B50446206A0C2100F0F0FD80
:10430000054B20461A46114607F04AF82046BDE8FC
:104310001040FFF719BF00008432030870B505464E
:104320000E462C6A0948807800280ED00020208193
:1043300006482838806804F097F8A0613069E06189
:104340002846BDE8704000F00DBD70BDA0DA012028
:1043500010B5134C207800281AD1E06810B111A0D4
:10436000FEF7BAFC0DF0ECFAE060B0B1417A41F032
:1043700020014172442215490DF0BEF84322134931
:10438000E0680DF017F900221149E0680DF00EFB0E
:104390002078401C2070002010BD4FF0FF3010BD71
:1043A00068010020646863705F696E635F706362B8
:1043B0005F726566636F756E7428293A206D656D4E
:1043C0006F7279206C65616B000000008432030815
:1043D000E14A02082DE9F04104460E4690461F4688
:1043E000E019801C442802D90548FEF775FC601CC2
:1043F00085B206F80480681C80B27755BDE8F0816C
:10440000DC34030870B504460E461546442C02D32E
:1044100003A0FEF761FC601C80B2355570BD000042
:10442000646863705F6F7074696F6E5F62797465E2
:104430003A206F7074696F6E735F6F75745F6C652F
:104440006E203C20444843505F4F5054494F4E53D8
:104450005F4C454E0000000070B506460D46144600
:10446000301D442802D909A0FEF736FC220E701C2C
:1044700081B2AA55220C481C80B26A54220A411CFF
:1044800089B22A54481C80B26C5470BD6468637051
:104490005F6F7074696F6E5F6C6F6E673A206F70DC
:1044A00074696F6E735F6F75745F6C656E202B201F
:1044B00034203C3D20444843505F4F5054494F4EB8
:1044C000535F4C454E00000070B504460E4615463D
:1044D000A01C442802D905A0FEF7FEFB290A601C97
:1044E00083B23155581C80B2F55470BD6468637056
:1044F0005F6F7074696F6E5F73686F72743A206F6C
:104500007074696F6E735F6F75745F6C656E202B6E
:104510002032203C3D20444843505F4F5054494F87
:104520004E535F4C454E000030B404461046FF2504
:10453000621C93B20D55002403E01D465B1C9BB228
:104540004C55442B01D39D0701D0442BF5D3F033B8
:1045500030BC99B207F0AABB2DE9F34F85B000201B
:10456000049003900A21C148FBF7FEFE059840899C
:104570002C2804D26FF0010007B0BDE8F08F4FF097
:10458000F0080598B0F808A0059E08E0A8EB000127
:104590001FFA81F8AAEB00001FFA80FA366816B1FC
:1045A00070894045F2D91EB14746D6F804B020E1E3
:1045B0006FF00100E0E74FF0FF34B81C1FFA80F9FC
:1045C000B94501D26000D7E77389781C024683425F
:1045D00003D90BEB0700407805E0306810B1406864
:1045E000007800E000200546342958D00BDC032970
:1045F00029D003DCD1B101290DD11AE006292DD033
:10460000332908D141E035295CD0362964D03A29D4
:104610006CD03B2977D0002500297ED03844801CFF
:10462000B0F5803F7BD36FF00100A5E70020054681
:10463000F2E7042805D08EA0FEF74EFB6FF00500D0
:104640009AE70624E8E70425042805D28BA0FEF7A4
:1046500043FB6FF005008FE70724DDE7830705D0F4
:104660008BA0FEF739FB6FF0050085E7082801D223
:10467000054600E00825A84205D280A0FEF72CFBE5
:104680006FF0050078E70824C6E7042805D078A075
:10469000FEF722FB6FF005006EE70324BCE701285C
:1046A00005D07FA0FEF718FB6FF0050064E7B8F1B6
:1046B000F00F05D07DA0FEF70FFB6FF005005BE764
:1046C0000024A9E7012805D075A0FEF705FB6FF0CF
:1046D000050051E701249FE7042805D064A0FEF7F8
:1046E000FBFA6FF0050047E7022495E7042808D09D
:1046F0005FA0FEF7F1FA6FF005003DE703E00CE084
:104700000DE0042488E7042805D059A0FEF7E4FA58
:104710006FF0050030E705247EE797B25AE087B2D4
:10472000D5B3002002900A2C02D366A0FEF7D4FA7B
:104730004E48005D80BB042D01D2284600E00420D5
:1047400001904B4602A93046019A07F095F90146BF
:104750000198814202D06FF001000DE7042D1FD9AE
:10476000A80705D05CA0FEF7B7FA6FF0050003E7D5
:104770003E4801210155029803F076FE3B49283955
:1047800041F824002D1FEDB209F1040080B2484524
:1047900003D26FF00100EFE61CE08146641CC2E723
:1047A000042D07D0012D0AD051A0FEF795FA6FF025
:1047B0000500E1E6029803F057FE029002E09DF842
:1047C00008000290294901200855284802992838F4
:1047D00040F824107089B8420BD8391A8FB2AAEB6E
:1047E00000001FFA80FA574520D23668C6B1D6F8C5
:1047F00004B036B1574504D21BF80710FF297FF4E7
:10480000DAAE1A4A1078E8B1A2F128000068002157
:10481000117001280DD002280ED003280FD011E00E
:1048200038A0FEF759FA6FF00500A5E66FF0010019
:10483000A2E60120049005E00120039002E001209F
:1048400003900490049830B1002004904FF06C085D
:104850004FF0EC0A98E6039830B1002003904FF037
:104860002C084FF06C0A8FE6002085E6A0DA0120C4
:104870006C656E203D3D2034000000006C656E20AC
:104880003E3D206465636F64655F6C656E0000008B
:104890006C656E2025252034203D3D203000000031
:1048A0006C656E203D3D2031000000006F76657222
:1048B0006C6F616420696E2066696C652F736E6130
:1048C0006D650000636865636B206465636F646594
:1048D0005F696478000000006465636F64655F6C05
:1048E000656E2025252034203D3D2030000000004D
:1048F000696E76616C6964206465636F64655F6C82
:10490000656E00006E657874207062756620776150
:1049100073206E756C6C00002DE9FC478046D8F85A
:1049200020500421284600F0DBFA01AB032229467F
:104930004046FFF7D7FA0746380037D07968022398
:10494000F03139228946BDF80400FFF743FD01909C
:10495000B8F828204946FFF7B7FD01900423372215
:104960004946FFF737FD019000241E4E4946BDF829
:104970000400325DFFF746FD0190641CE4B2042C94
:10498000F4D33A464946BDF80400FFF7CDFD15487B
:10499000CDF80080401E4323134A3946C0680DF00D
:1049A000E1F80446384607F0C5F801E04FF0FF345F
:1049B000A879FF2801D2401CA871A8790A2803D23F
:1049C0004FF47A71484301E042F2107080B200F275
:1049D000F3104FF4FA71B0FBF1F028812046BDE8E6
:1049E000FC87000069010020883203082DE9FC479C
:1049F0008046D8F820500321284600F071FA01AB18
:104A0000032229464046FFF76DFA0746380047D093
:104A100079680223F03139228946BDF80400FFF796
:104A2000D9FC01904FF410724946FFF74DFD0190FB
:104A3000042332224946FFF7CDFC0190E86903F0D8
:104A400013FD02464946BDF80400FFF705FD01903D
:104A5000042337224946FFF7BDFC019000241E4E77
:104A60004946BDF80400325DFFF7CCFC0190641CA0
:104A7000E4B2042CF4D33A464946BDF80400FFF7EB
:104A800053FD1548CDF80080401E4323134A394694
:104A9000C0680DF067F80446384607F04BF801E0AF
:104AA0004FF0FF34A879FF2801D2401CA871A879E3
:104AB0000A2803D24FF47A71484301E042F21070A1
:104AC00080B200F2F3104FF4FA71B0FBF1F02881DC
:104AD0002046BDE8FC8700006901002088320308F9
:104AE0002DE9F04116463A4845682C6A7168002C59
:104AF00069D02079002866D070892C2863D3087883
:104B0000022860D1002095F8302008E02B180F18FB
:104B100093F82A303F7FBB4255D1401CC0B282423D
:104B200001D90628F2D3486803F09EFC2168884228
:104B300049D121463046FFF70FFD00BB254840789C
:104B4000E8B17268234828380079052802D0062881
:104B500022D02AE06079012806D0032814D0042846
:104B600012D0052810D02EE011462846FFF778FB1A
:104B700095F83100000703D52846FFF767F922E0D2
:104B80002846FFF7D3F81EE011462846FFF768FBDA
:104B90002846FFF7CBF816E06179032908D00129F0
:104BA00006D0042904D0052902D0022804D00AE046
:104BB0002846FFF79FFB06E06079062803D11146DF
:104BC0002846FFF7ABFB3046BDE8F04106F0B2BF28
:104BD000BCEC0020A0DA01202DE9FE4307463C6A28
:104BE000002C50D0607900284DD0A069029000259B
:104BF000A561E561256265622563E562A562A5821E
:104C000065822582E581384600F0D6F958B301ABBC
:104C1000072221463846FFF765F90646300022D0C4
:104C200071680423F03136228846BDF80400FFF78E
:104C3000D1FB0190029803F017FC02464146BDF8F3
:104C40000400FFF709FC019032464146FFF76CFC77
:104C50000E480097432302AA3146C0680CF082FF39
:104C6000304606F067FF0A4B38461A46114606F0F2
:104C700097FB0021204600F033F92079002802D06C
:104C8000FFF7ECF92571BDE8FE8300006801002004
:104C9000843203082DE9FC478046D8F820500521CE
:104CA000284600F01DF901AB032229464046FFF7D4
:104CB00019F90746380038D079680223F0313922D3
:104CC0008946BDF80400FFF785FB0190B8F828205D
:104CD0004946FFF7F9FB0190042337224946FFF7C5
:104CE00079FB019000241E4E4946BDF80400325D58
:104CF000FFF788FB0190641CE4B2042CF4D33A461D
:104D00004946BDF80400FFF70FFC1548CDF80080B8
:104D1000401E432305F118023946C0680CF022FFFB
:104D20000446384606F006FF01E04FF0FF34A8794C
:104D3000FF2801D2401CA871A8790A2803D24FF499
:104D4000FA61484301E044F6206080B200F2F310BB
:104D50004FF4FA71B0FBF1F028812046BDE8FC87E2
:104D6000690100202DE9FE430646002E69D0356A10
:104D7000002D6DD00121284600F0B2F802AB0322CD
:104D800029463046FFF7AEF880465FEA080065D056
:104D9000D8F804100223F03139228946BDF8080002
:104DA000FFF718FB0290328D4946FFF78DFB02900A
:104DB000042332224946FFF70DFB0290E86903F015
:104DC00053FB02464946BDF80800FFF745FB029039
:104DD000042336224946FFF7FDFA0290A86903F042
:104DE00043FB02464946BDF80800FFF735FB029039
:104DF000042337224946FFF7EDFA02900024274F9B
:104E00004946BDF808003A5DFFF7FCFA0290641CC1
:104E1000E4B2042CF4D342464946BDF80800FFF73B
:104E200083FB1F484323CDE900601C481D4A401EF8
:104E30004146C0680CF004FF0446404606F07AFE86
:104E40000EE019A0FDF748FF6FF00F00BDE8FE83EC
:104E50001CA0FDF741FF6FF00500F7E74FF0FF34AE
:104E6000A879FF2801D2401CA871A979062902D28D
:104E70000120884000E03C2000EB4001C1EBC01065
:104E80004FF6FF7101EAC00000F2F3104FF4FA711F
:104E9000B0FBF1F028812046D8E70000690100202E
:104EA0008432030888320308646863705F73656C3A
:104EB0006563743A206E6574696620213D204E5505
:104EC0004C4C0000646863705F73656C6563743A92
:104ED000206468637020213D204E554C4C0000003A
:104EE00042798A4203D0417100218171018170476A
:104EF00070B505466FF00F04002D0CD095F8310009
:104F0000C0070DD02C6A288D4FF0FF36B0F5107F0A
:104F10000BD2304670BD1BA0FDF7DEFE204670BDF3
:104F20001CA0FDF7D9FE204670BD64B1207908B100
:104F3000FFF794F834212046FBF716FAFFF708FA3A
:104F400050B1304670BD342005F0E4F804460CB191
:104F50002C62EFE7304670BD0120207195F83100DA
:104F6000400705D402212046FFF7BAFF002070BD9C
:104F70002846FFF7E9F80028F9D02846FFF72CFE6D
:104F8000304670BD6E6574696620213D204E554CDB
:104F90004C0000006E65746966206973206E6F7442
:104FA0002075702C206F6C64207374796C65207090
:104FB0006F72743F0000000000280CD0006A50B1EE
:104FC00040790A2805D0052803D0042801D0002004
:104FD0007047012070470020704710B5046A61795E
:104FE000012903D00A2901D005290AD1FFF752FE71
:104FF000A089618A401A022803DB00EBD0704008C8
:10500000E08110BD10B5046A6179012905D00A2933
:1050100003D0052901D004290AD1FFF77DFCA08A1D
:10502000618A401A022803DB00EBD070400820821E
:1050300010BD10B50446216A4A790C2A0FD0062A01
:105040000DD0012A10D0082A1ED0032A2ED188792B
:10505000022826D22046BDE81040FFF7C7BC2046F4
:10506000BDE81040FFF770B88879052804D82046BD
:10507000BDE81040FFF776BE2046FFF7ADFD2046A5
:10508000BDE81040FFF734BF8879012804D82046D6
:10509000BDE81040FEF7DABE2046BDE81040FEF73E
:1050A00045BE2046BDE81040FFF74EB810BD0000D9
:1050B00001460020002909D0C97A491C022905D2DD
:1050C000034A52F82110002900D001207047000047
:1050D000B00000202DE9F05F07468B460025DFF881
:1050E000808007EB0710A8F5886AA9460AEB001430
:1050F00005EB450658F826305BB108EB8600017ACF
:10510000B94206D1426804F110005946984748F860
:1051100026906D1CEDB2042DEAD300210425B9427E
:105120000CD001EB01100AEB0010827A022A05D1A3
:10513000C07BE27B904201D1E57303E0491CC9B218
:105140000429ECD3E07B042808D2064E56F8200050
:105150000CF040FCE07B46F82090E573BDE8F09F42
:105160008CEC00203CE8002010B50024204600F024
:1051700005F8641CE4B2042CF8D310BD2DE9F0410D
:105180000546284905EB051001EB0014042D02D358
:1051900025A0FDF7A1FDA07A00283AD0002601271E
:1051A000012808D0022813D0032834D0BDE8F041EC
:1051B00024A0FDF791BD00F055F820810220A072D7
:1051C000E672277366732846BDE8F04100F074B8B4
:1051D000207B401E10F0FF0020731AD1607B401C22
:1051E000C0B26073042805D020732846BDE8F041A2
:1051F00000F062B82046FFF75BFF28B1E07A401C60
:10520000E07227736673F0E700212846FFF762FF1C
:10521000A672BDE8F081206810B1401E2060F8D170
:10522000A672F6E74CE80020617272617920696E1F
:10523000646578206F7574206F6620626F756E6488
:1052400073000000756E6B6E6F776E20646E735F17
:105250007461626C6520656E747279207374617418
:10526000653A000010B50A4CFBF744F880B2002103
:1052700001EB011204EB0212937A022B02D1128984
:105280008242F1D0491CC9B20429F1D310BD0000FB
:105290004CE8002008B504A002F0AEFE009069467C
:1052A000002000F0AFF808BD3230382E36372E32ED
:1052B00032322E32323200002DE9FF5F0446494976
:1052C00004EB041001EB0015E87A022802D346A093
:1052D000FDF702FDEA7A4A49002651F8220048B358
:1052E00005F110000446FBF756F8123081B24FF476
:1052F0002072362006F050F982465FEA0A006CD030
:10530000019602960396288903F0BAF8ADF80400D6
:1053100001208DF806004FF4807BADF808B00C2218
:1053200001A9504606F088FD641E0C26641C274621
:1053300000220BE000212046FFF7CCFEAE720020D9
:1053400004B0BDE8F09F521CD2B2641C20782E2815
:1053500001D00028F7D1E01B1FFA80F906EB020804
:1053600008F10108B8F5803F05D3504606F0E2FB8E
:105370006FF00500E4E73146504606F087FC761CE6
:10538000B3B24A463946504606F0D6FD1FFA88F6B3
:1053900020780028CAD100223146504606F076FC1B
:1053A000761CB3B2ADF800B0ADF802B00422694685
:1053B000504606F0C1FDE87B3523EA7A104901EB3F
:1053C00082020849103951F8200051460CF058FB70
:1053D0000446504606F0AEFB01E04FF0FF34204695
:1053E000AEE700004CE80020646E732073657276AF
:1053F0006572206F7574206F66206172726179002A
:10540000B0000020022805D2054A02EB800011B14D
:10541000096801607047034909680160704700002E
:10542000B000002084320308FFF79EBE70B5054629
:105430000C46A00702D007A0FDF74EFC07F075FC54
:10544000A96809682160A9680C60BDE8704007F090
:1054500091BC00006D656D705F667265653A206D88
:10546000656D2070726F7065726C7920616C696710
:105470006E65640070B5044607F057FC0546A068E9
:1054800004685CB121680160A00702D006A0FDF7A6
:1054900023FC284607F06EFC204670BD284607F026
:1054A00069FC002070BD00006D656D705F6D616C02
:1054B0006C6F633A206D656D702070726F706572ED
:1054C0006C7920616C69676E6564000010B502A09C
:1054D000FDF702FC002010BD5B4452565F43414D76
:1054E0004552415D2043616D657261206472697649
:1054F000657220696E697469616C697A65640D0A08
:105500000000000010B50849002008808870A1F84C
:1055100003004871054908604860886004A0FDF7F1
:10552000DBFB002010BD000029000020F8630020F4
:105530005B4452565F4B45595D204B657920647240
:105540006976657220696E697469616C697A6564EF
:105550000D0A000010B502A0FDF7BEFB002010BD33
:105560005B4452565F4C43445D204C43442064727C
:105570006976657220696E697469616C697A6564BF
:105580000D0A000010B502A0FDF7A6FB002010BD1B
:105590005B4452565F4C45445D204C454420647248
:1055A0006976657220696E697469616C697A65648F
:1055B0000D0A000010B540210548FAF7D5FE05494F
:1055C0000020087004A0FDF787FB002010BD00003C
:1055D000B8630020280000205B4452565F4D414EC6
:1055E000414745525D20447269766572206D616E57
:1055F0006167657220696E697469616C697A656456
:105600000D0A000010B502A0FDF766FB002010BDDA
:105610005B4452565F53454E534F525D2053656E67
:10562000736F722064726976657220696E6974693D
:10563000616C697A65640D0A000000002DE9F04193
:10564000064614461B481C4F75188278002A17D04E
:10565000007938B121467869FDF73EFB17A0FDF7C8
:105660003BFB06E02146B869FDF736FB13A0FDF7CA
:1056700033FBB44201D2344602E0A54200D22C46AC
:10568000F868FDF729FB0DA0FDF726FB08E0214691
:105690000BA02268FDF720FB08A0FDF71DFB241DD1
:1056A000A542F4D80DA0FDF717FBBDE8F04103A01B
:1056B000FDF712BBBC010020A83203080D0A000050
:1056C0002020616464723A20253038782020202020
:1056D000646174613A202530387800003D3D3D3DDD
:1056E0003D3D3D3D3D3D3D3D3D3D3D3D3D3D3D3DEA
:1056F0003D3D3D3D3D3D3D3D3D3D3D3D3D3D3D3DDA
:10570000000000002DE9F04704460F46002C02D1AE
:1057100037A0FDF7E1FA07F008FB00266660277264
:10572000217F41F0010121776578667007F022FB47
:10573000636A1BB10022042120469847636A1BB1AB
:105740000022114620469847636A1BB100220221BD
:1057500020469847384603F0B1FC804604F110001B
:10576000814607F066FB18B14146484607F053FBF7
:1057700004F11400814607F05CFB18B1414648462D
:1057800007F049FB012D0BD0042D09D0032D07D0C4
:10579000206A002829D0BDE8F04719A0FDF79CBA7F
:1057A000207FC0F3800100F0FB00207700291CD18E
:1057B000206A10B919A0FDF78FFA042D09D0206ACC
:1057C0000771206A05680C35284607F0C5FB18B13B
:1057D00005E0206A0671F4E717A0FDF77DFA26625E
:1057E0002846BDE8F04707F097BBBDE8F08700000A
:1057F000636F6E6E20213D204E554C4C0000000022
:10580000636F6E6E2D3E63757272656E745F6D733D
:1058100067203D3D204E554C4C000000636F6E6E7E
:105820002D3E63757272656E745F6D736720213DE6
:10583000204E554C4C000000696E61766C69642006
:105840006F705F636F6D706C657465645F73656DB9
:1058500000000000002802DC4142112901DB052084
:1058600070470249A1EB800000687047C43003080C
:1058700070B505460024084E04EB440006EBC0005A
:10588000017D29B18068A84202D1204600F0F6F8D7
:10589000641C0A2CF0DB70BDACDA01202DE9F74F57
:1058A00084B080464FF00A0AD1460A270024BB463E
:1058B0000020029001900090494904EB440001EB64
:1058C000C0060390357D0A2F00D1CDB125B3012D3F
:1058D00004D0022D02D243A0FDF7FEF9B8F1000F6B
:1058E00010D0D8F80000716888420BD1069818B122
:1058F000B1680698814205D1204607B0BDE8F08F17
:10590000274609E0012D13D0022D05D3708A009996
:10591000884201D3A1460090641C24B20A2CCBDB40
:1059200005984FF0FF3180071CD40A2F13D015E0E3
:105930002B48039950F8310030B1708A029988429F
:10594000EAD3A3460290E7E7708A01998842E3D33D
:10595000A2460190E0E70598C00703D00A2F03DABA
:105960003C4620E00846C8E7B9F10A0F0ADA4C467F
:105970001B4804EB440150F8310060B129A0FDF749
:10598000ABF908E0BAF10A0F01DA544603E0BBF1C3
:105990000A0F23DA5C460A2C02DB28A0FDF79CF9EB
:1059A000204600F06BF80A2C02DB24A0FDF794F9E6
:1059B0000B4804EB440100EBC105287D10B124A085
:1059C000FDF78AF9B8F1000F02D0D8F8000068603E
:1059D000002068820698A86020468EE708468CE77B
:1059E000ACDA01207374617465203D3D2045544854
:1059F0004152505F53544154455F50454E44494EC7
:105A000047207C7C207374617465203E3D204554A2
:105A1000484152505F53544154455F535441424CA6
:105A2000450000006172705F7461626C655B695D66
:105A30002E71203D3D204E554C4C000069203C20ED
:105A40004152505F5441424C455F53495A45000012
:105A50006172705F7461626C655B695D2E73746105
:105A60007465203D3D204554484152505F53544198
:105A700054455F454D5054590000000070B5084D25
:105A800000EB4004002655F83400002803D006F04F
:105A900051F845F8346005EBC400067570BD000090
:105AA000ACDA01202DE9F04387B007460D46002D02
:105AB00009D07C684FF48078208840450FD1207948
:105AC00006280CD105E024A0FDF706F907B0BDE8D3
:105AD000F0836079042802D16088082803D0384612
